:1000000073EF17F00000000000EF00F000000000A8
:0A0010000000000000000000F3D71C
:10001C006EC2C9FFC7B002D00000FCD7C9CF00F038
:02002C001200C0
:10002E00F250026EF29E0500FF6A0150FE6E005005
:08003E00FD6E02BEF28E1200FD
:100046008B92400E02016B11006E4EC1E1FF4FC153
:10005600E2FF00C0E6FF4CC100F04DC101F0E4DF55
:100066004EC1E1FF4FC1E2FF6CC2E6FF4CC100F09A
:100076004DC101F0D9DF4EC1E1FF4FC1E2FF6DC2B4
:10008600E6FF4CC100F04DC101F0CEDF8B821200BD
:100096008B924EC1E1FF4FC1E2FF7A0EE66E4CC174
:1000A60000F04DC101F0C0DF4EC1E1FF4FC1E2FFDC
:1000B60068C2E6FF4CC100F04DC101F0B5DF8B828E
:0200C600120026
:1000C80002016B6B68C26CF269C26DF2B8DF8B9289
:1000D8004EC1E1FF4FC1E2FF3A0EE66E4CC100F09F
:1000E8004DC101F0A0DF4EC1E1FF4FC1E2FFE66A5A
:0E00F8004CC100F04DC101F096DF8B8212006A
:100106008B92A00E02016811006E4EC1E1FF4FC135
:10011600E2FF00C0E6FF4CC100F04DC101F084DFF4
:100126004EC1E1FF4FC1E2FF69C2E6FF4CC100F0DC
:0A0136004DC101F079DF8B82120049
:10014000020E02016B6F68C26CF269C26DF27BDF56
:100150008B924EC1E1FF4FC1E2FF7A0EE66E4CC1B9
:1001600000F04DC101F063DF4EC1E1FF4FC1E2FF7E
:100170006AC2E6FF4CC100F04DC101F058DF8B822E
:0201800012006B
:100182008B92800E02016811006E4EC1E1FF4FC1D9
:10019200E2FF00C0E6FF4CC100F04DC101F046DFB6
:1001A2004EC1E1FF4FC1E2FF69C2E6FF4CC100F060
:0A01B2004DC101F03BDF8B8212000B
:1001BC008B924EC1E1FF4FC1E2FF68C2E6FF4CC11A
:1001CC0000F04DC101F02DDF4EC1E1FF4FC1E2FF48
:1001DC00E66A4CC100F04DC101F023DF8B821200A6
:1001EC005EC268F25FC269F260C26AF2A3DF61C2EA
:0601FC0068F24BDF120067
:100202000201676B010E605F000E615B64530DE0DB
:100212006151190802E16051AD0807E2672BAD0E8A
:10022200605D656F190E6159666F675305E0AD0E2B
:10023200016E190E026E04D060C201F061C202F0BA
:100242005F51021802E101505E190DE15EC268F2CF
:100252005FC269F238DF00C06AF262C268F263C24A
:1002620069F26DDF36D0100E02016B6F5EC26CF266
:100272005FC26DF2E7DE120E02016B6F675305E09B
:10028200AD0E006E190E016E04D060C200F061C2A4
:1002920001F000C06CF201C06DF2D4DE140E020156
:1002A2006B6F62C26CF263C26DF2CCDE1F0E020192
:1002B200686F100E696F26DF1F0E0201686F200E35
:1002C200696F5EDF1F0E0201686F77DF00AA01D03F
:1002D200F9D7020167531AE05E51605D006E5F510B
:1002E2006159016E6551005E6651015A004A012A48
:1002F2000050622701506323010E655D606F000E9E
:0E0302006659616F5E6B5F6B676B8FD7120081
:10031000AE0E0201686F190E696F6A6B11DFAE0EC7
:1003200002015E25006E190E5F21016E00C05EF2B3
:1003300001C05FF2060E6B6F00C06CF201C06DF27F
:1003400082DE1F0E0201686F800E696F1ADF1F0EBA
:100350000201686F800E696FD6DE0001AB51050A9D
:1003600004E0AB51070A01E006D01C0E0201686FE1
:100370000A0E696FC8DE1F0E0201686F080E696FF2
:1003800000DF0001AB51050A04E0AB51070A01E0B0
:1003900080D00201626B636B1C0E686F0FDF0A0E68
:1003A000001600520AE10201624B632B030E635DEB
:1003B00002E1E80E625D01E2EFD702011C0E686FF8
:1003C000FDDE00B208D0030E0201635D02E1E80E1B
:1003D000625D01E25DD002011F0E686F080E696F59
:1003E00092DE040E02015E25686F000E5F21696FC8
:1003F0006BDE00C061F20201606B100E605D48E2CE
:100400001C0E686FDBDE00A23FD0020161AB3CD066
:100410001F0E686F800E696FB4DE1F0E0201686FD9
:10042000800E696F70DE1C0E0201686F0A0E696F24
:100430006ADE1F0E0201686F080E696FA2DE0201FC
:10044000626B636B1C0E686FB9DE0A0E00160052F9
:100450000AE10201624B632B030E635D02E1E80EC9
:10046000625D01E2EFD702011F0E686F080E696F2F
:100470004ADE040E02015E25686F000E5F21696F7F
:1004800023DE00C061F201D003D00201602BB5D79A
:1004900007D002011F0E686F91DE00A601D0F9D7C8
:1004A0001D0E0201686F8ADE060E0016005202E081
:0A04B000006A02D0010E006E120077
:1004BA00020160515E25626F61515F21636F010E17
:1004CA00625F000E635B100E6B6F5EC26CF25FC2FE
:1004DA006DF2B4DD120E02016B6F62C26CF263C27E
:1004EA006DF2ACDD1F0E0201686F300E696F44DEDB
:1004FA001F0E0201686F5DDE00AA01D0F9D7120053
:10050A00020E02016B6F5EC26CF25FC26DF296DD83
:10051A008B924EC1E1FF4FC1E2FF7A0EE66E4CC1EB
:10052A0000F04DC101F07EDD02016251631117E056
:10053A004EC1E1FF4FC1E2FF60C2E9FF61C2EAFFBB
:10054A00EECFE6FF4CC100F04DC101F06BDD0201B8
:10055A00604B612B010E625F000E635BE5D78B82F5
:02056A0012007D
:10056C008B924EC1E1FF4FC1E2FF7A0EE66E4CC199
:10057C0000F04DC101F055DD60C200F061C201F028
:10058C00010E0201605F000E615B0050011013E070
:10059C004EC1E1FF4FC1E2FF5EC2E9FF5FC2EAFF5D
:1005AC00EECFE6FF4CC100F04DC101F03ADD020187
:0A05BC005E4B5F2BE1D78B8212002B
:1005C6008B924EC1E1FF4FC1E2FF7A0EE66E4CC13F
:1005D60000F04DC101F028DD4EC1E1FF4FC1E2FF41
:1005E6005FC2E6FF4CC100F04DC101F01DDD4EC1FA
:1005F600E1FF4FC1E2FF5EC2E6FF4CC100F04DC114
:0806060001F012DD8B821200ED
:10060E005EC2E9FF5FC2EAFFEECF01F001C003F068
:10061E000336039003360390010E02015E25E96E48
:10062E00000E5F21EA6EEECF02F002C000F0003243
:10063E00009E0032009E0032009E0032009E60C27C
:10064E00E1FF61C2E2FF00500310E66E010E60256D
:10065E00E16E000E6121E26E010E5E25E96E000E66
:10066E005F21EA6EEECF01F001C003F00336039076
:10067E00033603900336039003360390020E5E2575
:10068E00E96E000E5F21EA6EEECF02F002C000F0BE
:10069E000032009E0032009E0350001200C0E6FFA2
:1006AE00020E6025E16E000E6121E26E020E5E25E5
:1006BE00E96E000E5F21EA6EEECF02F0060E016EBD
:1006CE0002C000F0015004E000360090FF0FFBD78F
:1006DE00C00E0016030E5E25D96E000E5F21DA6E77
:0A06EE00DE50001200C0E6FF12000B
:1006F8000201516B526B8B924EC1E1FF4FC1E2FF79
:100708007A0EE66E4CC100F04DC101F08CDC4EC291
:1007180000F04FC201F002014E4B4F2B00C0E9FF21
:1007280001C0EAFFEECF00F000C050F200520FE027
:100738004EC1E1FF4FC1E2FF50C2E6FF4CC100F0DD
:100748004DC101F070DC0201514B522BE0D78B8276
:0A07580051C200F052C201F012007D
:100762004EC2E9FF4FC2EAFFEE5211E04EC2E9FF6C
:100772004FC2EAFF50C2D9FF51C2DAFFEE50DE1873
:1007820006E102014E4B4F2B504B512BE9D74EC283
:10079200E9FF4FC2EAFF50C2D9FF51C2DAFFDE5071
:0C07A200EE5C006E016A000E015A1200AD
:1007AE000201526B536B8B924EC1E1FF4FC1E2FFC0
:1007BE007A0EE66E4CC100F04DC101F031DC4EC236
:1007CE0000F04FC201F050C202F0010E02014E279E
:1007DE00000E4F23502300C0F6FF01C0F7FF02C0EA
:1007EE00F8FF0900F5CF00F000C051F200520FE003
:1007FE004EC1E1FF4FC1E2FF51C2E6FF4CC100F016
:10080E004DC101F00DDC0201524B532BD8D78B8218
:0A081E0052C200F053C201F01200B4
:100828008B924EC1E1FF4FC1E2FF7A0EE66E4CC1DA
:1008380000F04DC101F017EC00F051C200F052C2B7
:1008480001F0010E0201515F000E525B00500110D1
:100858001CE04EC1E1FF4FC1E2FF4EC2F6FF4FC29E
:10086800F7FF50C2F8FF0900F5CF00F000C0E6FF1F
:100878004CC100F04DC101F017EC00F0010E02016F
:0E0888004E27000E4F235023D8D78B8212002C
:10089600AF0E02015E6F190E5F6F4EC260F24FC25D
:1008A60061F2060E626F000E636F2CDECE0E5E6F77
:1008B600000E5F6F060E606F000E616F54DE000E55
:1008C6005E6F080E5F6F7CDE1C0E02015625596FA7
:1008D600000E57215A6F000E5E6F450E5F6F70DE79
:1008E60059C25EF25AC25FF26BDEDCC05EF2DDC058
:1008F6005FF266DE0001DC4BDD2B02015E6B5F6B97
:100906005FDE110E02015E6F800E5F6F59DE02011F
:100916005E6B5F6B55DEB40E02015E6F000E5F6F9D
:10092600040E606F000E616F1EDE50C25EF251C291
:100936005FF2040E606F000E616F15DE080E56251D
:10094600596F000E57215A6F52C25EF253C25FF2C0
:1009560037DE54C25EF255C25FF232DE59C25EF233
:100966005AC25FF22DDE02015E6B5F6B29DEBD0EA1
:1009760002015E6F190E5F6F140E606F000E616FDD
:1009860099DD160E0201686F16DC00C05BF2170EC9
:100996000201686F10DC00C060F2C70E02015E6FD4
:1009A600190E5F6F5BC261F21EDC010E0201591562
:1009B600586FD90E5625686F190E5721696F6A6BE5
:1009C600A0EC00F0C90E02015E6F190E5F6FD10E2A
:1009D600606F190E616FD90E5625626F190E572179
:1009E600636F58516227000E6323646B07DCD90ED0
:1009F60056255E6F190E57215F6F58515E27000E00
:100A06005F23080E5E27000E5F23606B110E616F79
:100A1600F6EC00F05AC268F24BEC00F059C268F2EC
:100A26004BEC00F0D10E02015E6F190E5F6F0C0EDB
:100A36005925606F000E5A21616F58516027000ECC
:100A4600612338DD160E0201686FDEEC00F000C08F
:100A56005BF2170E0201686FDEEC00F000C060F278
:100A6600D70E02015E6F190E5F6F5BC261F2F6EC84
:100A760000F02A0E020156255E6F000E57215F6FA9
:040A860044DC12003A
:100A8A004EC2E9FF4FC2EAFFEE52D8B4ACD002011F
:100A9A005C6B5D6B5A6B5B6B800E5B19006E800E34
:100AAA00005C02E1040E5A5DD8B06DD04EC2E9FF77
:100ABA004FC2EAFFEE5267E0596B4EC2E9FF4FC2DE
:100ACA00EAFFEE5241E05951000A3EE14EC2E9FF07
:100ADA004FC2EAFFEECF01F001C059F24E4B4F2B45
:100AEA002B0E015C04E359517A0801E302D0026A31
:100AFA0017D02B0E595D006E016A000E015A190EAD
:100B0A000024F66E3A0E0120F76E000EF86E000E03
:100B1A0001BEFF0EF8220900F5CF00F000C002F076
:100B2A0002C059F202520FE05951240A03E1016A44
:100B3A00026A07D03D0E595D006E00C001F0000E3A
:100B4A00026E01C059F2B9D74EC2E9FF4FC2EAFF9D
:100B5A00EE520FE05C4B5D2B59530AE0520E5A25B8
:100B6A00E16E020E5B21E26E5905006E00C0E6FFDF
:100B7A0007D0520E5A25E16E020E5B21E26EE66A3A
:100B8A005A4B5B2B89D75C515D112CE0520E5E6F7C
:100B9A00020E5F6F560E606F020E616F33DD5A6B85
:100BAA005B6B010E5C5D016E000E5D59026E800E7C
:100BBA005B19006E800E0218005C02E101505A5D5A
:100BCA0011E2560E5A25E96E020E5B21EA6E50C2F8
:100BDA00E1FF51C2E2FFEECFE6FF504B512B5A4BD9
:100BEA005B2BDFD74DD750C2E1FF51C2E2FFE66A65
:020BFA001200E7
:100BFC008B924EC1E1FF4FC1E2FF3A0EE66E4CC143
:100C0C0000F04DC101F017EC00F04EC1E1FF4FC1F7
:100C1C00E2FFE66A4CC100F04DC101F017EC00F0A8
:040C2C008B821200A5
:100C300050C204F051C205F04EC202F04FC203F0A0
:100C400052C200F053C201F0010E0201525F000EC9
:100C5000535B005001100FE004C0E9FF05C0EAFF3C
:100C600002C0E1FF03C0E2FFEECFE6FF024A032A23
:100C7000044A052AE5D74EC200F04FC201F0120027
:100C800002015151FF0A02E1FF0E501907E06B6BA0
:100C900050C26CF251C26DF223EC00F08B924EC147
:100CA000E1FF4FC1E2FF3A0EE66E4CC100F04DC1CC
:100CB00001F017EC00F052C200F053C201F0010E37
:100CC0000201525F000E535B0050011015E04EC14F
:100CD000E1FF4FC1E2FFE66A4CC100F04DC101F0F7
:100CE00017EC00F04EC2E1FF4FC2E2FF00C0E6FF8A
:0C0CF00002014E4B4F2BDFD78B8212000D
:100CFC0052C201F053C202F0010E0201525F000E0B
:100D0C00535B000E021802E1000E01181FE04EC2E8
:100D1C00E9FF4FC2EAFF50C2D9FF51C2DAFFEE50D1
:100D2C00DE180FE04EC2E9FF4FC2EAFF50C2D9FFF6
:100D3C0051C2DAFFDE50EE5C006E016A000E015A01
:100D4C0012004E4B4F2B504B512BD2D7006A016ADD
:020D5C00120083
:100D5E00AE0E02014E6F3A0E4F6F000E506F20DD39
:100D6E0000C0A6F101C0A7F1A4C14EF2A5C14FF279
:100D7E00BCDC00500101A6270150A7238F0E0201F3
:100D8E004E6F3B0E4F6F000E506F0ADD0101A651E4
:100D9E000026A751012200C0A6F101C0A7F1120042
:100DAE00D80E02014E6F3A0E4F6F000E506FF8DCE8
:100DBE0000C0A7F101C0A8F1A4C14EF2A5C14FF227
:100DCE00A6C150F2EDDC0101A7510026A851012267
:0A0DDE0000C0A7F101C0A8F1120047
:100DE8000101A66B3C0E0001BE6F000EBF6FC06F05
:100DF800C16F00DF00C0A4F10050020AD8A41BD1C3
:100E08000101A56B0F0EA55D04E2F4DE0101A52B1F
:100E1800F9D7C20E02014E6F000E4F6FFF0E506FD2
:100E2800FF0E516F040E526F000E536F25DF010144
:100E3800A56B080EA55D04E2DDDE0101A52BF9D73F
:100E4800A56B060EA55D12E2D5DE00C0A4F1CE0E9C
:100E5800D96E000EDA6E0101A551D926D8B0DA2A6A
:100E68000050DE1801E013D1A52BEBD7A56BCE0EF1
:100E7800A55D04E2BFDE0101A52BF9D7A76BBADE99
:100E880000C0A4F1B9D0B6DE00C0A4F10050010A38
:100E980004E1B0DE00C0A6F101D0F9D0C8D0AADEC6
:100EA80000C0A4F10050040A0FE1CA0E02014E6FFF
:100EB800000E4F6FFF0E506FFF0E516F040E526FF2
:100EC800000E536FD9DE01D0E2D0B1D093DE00C05E
:100ED800A4F1040E005C0FE3C60E02014E6F000E73
:100EE8004F6FFF0E506FFF0E516F040E526F000EC2
:100EF800536FC2DE01D0CBD0040E0101A45F010103
:100F0800A4C100F0A407005202E074DEF8D78FD025
:100F180071DE00C0A4F1040E005C0FE3B00E020104
:100F28004E6F000E4F6FFF0E506FFF0E516F040E85
:100F3800526F000E536FA0DE01D0A9D0040E01013C
:100F4800A45F0101A4C100F0A407005202E052DE30
:100F5800F8D76DD04FDE00C0A4F10050040A0FE1AD
:100F6800A80E02014E6F010E4F6FFF0E506FFF0E5D
:100F7800516F040E526F000E536F7EDE01D087D082
:100F880056D0010E0101A76F52D034DE00C0A4F183
:100F98000050040A23E1BE0E02014E6F000E4F6F8F
:100FA800FF0E506FFF0E516F040E526F000E536FFD
:100FB80063DE0001C151000808E1C051000805E1E5
:100FC800BF51070802E1BE51080807E2080EBE5FDC
:100FD800070EBF5B000EC05BC15B01D058D027D0A5
:100FE80009DE00C0A4F1A4C100F00101A407005269
:100FF80002E000DEF8D71BD00101A451350AD8B4AD
:1010080042D7A451010AD8B44AD7A451030AD8B484
:101018005DD7A451060AD8B47BD7A451360A9AE002
:10102800A451FF0AAEE0A451330AAFE0D9D70101B9
:10103800A753D8B424D70101A651020A0FE1AC0E78
:1010480002014E6F000E4F6FA80E506F010E516FC8
:10105800040E526F000E536FE7DD16D00201AC0E7E
:101068004E6F000E4F6FA80E506F010E516F040E99
:10107800526F000E536F3EDE000E011802E1000EA3
:10108800001802E00101A66BA6C100F01200006A78
:02109800120044
:10109A006A0E02014E6F3A0E4F6F000E506FD7EC78
:1010AA0003F000C0AAF101C0ABF1A4C14EF2A5C180
:1010BA004FF2A6C150F2D7EC03F000500101AA2763
:1010CA000150AB238B0E02014E6F3B0E4F6F000E89
:1010DA00506FD7EC03F000500101AA270150AB234F
:1010EA00A7C14EF2A8C14FF2A9C150F2D7EC03F042
:1010FA000101AA510026AB51012200C0AAF101C088
:04110A00ABF1120033
:10110E00060E0C6E2B0E0D6E0D2EFED70C2EFCD772
:02111E001200BD
:10112000A4C102F0A5C103F0A7C100F0A8C101F05D
:10113000010E0101A75F000EA85B0050011009E03D
:1011400002C0E1FF03C0E2FFA6C1E6FF024A032A94
:0C115000EBD7A4C100F0A5C101F0120013
:10115C0002014A6B4B6B0101A86BA96B0201496B35
:10116C00A4C100F0A5C101F0010E0101A45F000EA5
:10117C00A55B0050011068E0AA0EA82502014C6F77
:10118C00010E0101A92102014D6F32DD4CC2E1FFBC
:10119C004DC2E2FF00C0E6FFAA0E0101A825E96ED0
:1011AC00010EA921EA6E200EEE5C07E3000EA919D0
:1011BC0002E17F0EA81901E044D0AA0E02014E6F85
:1011CC00010E4F6F160E506F000E516F140E526FB2
:1011DC00000E536F8DDD000E011802E1000E001899
:1011EC002CE1AA0E0101A825E16E010EA921E26EE7
:1011FC00E66A010E006E000E016E0050BF0802017F
:10120C004E6F01C04FF2010E4F572A0E506F020E57
:10121C00516F35DC2A0E4E6F020E4F6FA6C150F285
:10122C00A7C151F2B1EC03F0000E011802E1000E5F
:10123C00001802E1010E496F07D00101A86BA96BE0
:0E124C0002D0A84BA92B8CD749C200F012008B
:10125A00B80E02014E6F000E4F6FA4C150F2A5C125
:10126A0051F2040E526F000E536FDDDCE80E4E6F22
:10127A00000E4F6FA6C150F2A7C151F2040E526F71
:10128A00000E536FD0DCE40E4E6F000E4F6FA8C1F4
:10129A0050F2A9C151F2040E526F000E536FC3DC13
:0212AA00120030
:1012AC00F90E0101A76F000EA86F020E02016B6F01
:1012BC00D90E6C6F190E6D6F23EC00F0740E0201D9
:1012CC004E6F3B0E4F6F000E506F0C0E516F000E99
:1012DC00526F14EC04F00101A451030A0EE1A55362
:1012EC000CE0C20E02015E6F000E5F6F040E606FA9
:1012FC00000E616FB6EC02F00CD00101A66B040E6F
:10130C00A65D07E20201686B4BEC00F00101A62B15
:10131C00F6D70101A66B0C0EA65D07E20201686B05
:10132C004BEC00F00101A62BF6D7CE0E02015E6F3E
:10133C00000E5F6F060E606F000E616FB6EC02F070
:10134C000101A66BCA0EA65D07E20201686B4BECAD
:10135C0000F00101A62BF6D7800E02014E6F3B0E5A
:10136C004F6F000E506F060E516F000E526F14EC43
:10137C0004F0A4C168F24BEC00F00101A451030A83
:10138C001CE1A5531AE1360E0201686F4BEC00F01C
:10139C00040E0201686F4BEC00F0AC0E02015E6FA4
:1013AC00000E5F6F040E606F000E616FB6EC02F002
:1013BC00060E0101A727000EA823860E02014E6F10
:1013CC003B0E4F6F000E506F050E516F000E526F9B
:1013DC0014EC04F00101A451030A24E1A55322E109
:1013EC00320E0201686F4BEC00F0040E0201686FC4
:1013FC004BEC00F00101A66B040EA65D0FE2C20ED1
:10140C00E96E000EEA6EA651E926D8B0EA2AEECFB4
:10141C0068F24BEC00F00101A62BEED7060EA727C5
:10142C00000EA823FF0E0201686F4BEC00F0340E87
:10143C0002014E6F000E4F6F340E506F000E516F45
:10144C00440E526F000E536F430E546F000E556FC7
:0E145C00A7C156F2A8C157F24BEC04F01200E3
:10146A00020E02014E6F3B0E4F6F000E506FD7EC0B
:10147A0003F000C0A9F101C0AAF1A4C14EF2A5C1AE
:10148A004FF2A6C150F2A7C151F2A8C152F214EC10
:10149A0004F00101A751A925006EA851AA21016EE5
:0A14AA0000C0A9F101C0AAF1120070
:1014B400A4C102F0A5C103F002C000F003C001F012
:1014C400024A032A00C0E9FF01C0EAFFEE5201E02C
:1014D400F3D70101A451025C006EA5510358016EBB
:0A14E400010E005E000E015A120016
:1014EE00FEEC05F00050470A10E1FEEC05F000504E
:1014FE00450A0BE1FEEC05F00050540A06E1FEEC45
:10150E0005F00050200A01E102D0006A120001012C
:10151E00AA6BAB6BA951AB5D02E1A851AA5D2FE29C
:10152E00A6C1E9FFA7C1EAFFEE50EE1028E0FEECDF
:10153E0005F0A4C1E1FFA5C1E2FF00C0E6FFA6C110
:10154E00E9FFA7C1EAFF010EEE5C006E000EEE5839
:10155E00016EA6C1E1FFA7C1E2FF00C0E6FF01C018
:10156E00E6FFA4C1E9FFA5C1EAFF200EEE5C01E291
:10157E0006D00101AA4BAB2BA44BA52BCBD7A4C1F4
:0E158E00E1FFA5C1E2FFE66A010E006E120049
:10159C002C0E02014E6F3B0E4F6F000E506FD7ECAE
:0415AC0003F0120036
:1015B000B50E02015E6F190E5F6FBB0E606F190EE4
:1015C000616FAF0E626F190E636F646B01EC01F017
:1015D000B50E5E6F190E5F6FCE0E606F000E616FFD
:0E15E000060E626F000E636F85EC02F01200C3
:1015EE000B6A0A6A096A00500402F4CF09F0F3CFBD
:1015FE0008F001500502F4CF0BF0F3CF0AF00050C3
:10160E000502F3500926F4500A22E86A0B22015013
:10161E000402F3500926F4500A22E86A0B2208C08D
:10162E0000F009C001F00AC002F00BC003F0120076
:10163E008B92400E01019511006E4EC1E1FF4FC11C
:10164E00E2FF00C0E6FF4CC100F04DC101F017EC07
:10165E0000F04EC1E1FF4FC1E2FF96C1E6FF4CC163
:0E166E0000F04DC101F017EC00F08B8212006D
:10167C000101956BC80E955D04E243DD42DD952BAF
:04168C00F9D7120078
:101690000201686BDEEC00F000C09AF1010E02015D
:1016A000686FDEEC00F000C09BF102016B6B95C12E
:1016B0006CF296C16DF223EC00F08B924EC1E1FF0B
:1016C0004FC1E2FF3A0EE66E4CC100F04DC101F091
:1016D00017EC00F00101995318E04EC1E1FF4FC132
:1016E000E2FFE66A4CC100F04DC101F017EC00F0DA
:1016F00097C1D9FF98C1DAFF0050DE1801E005D08C
:101700000101974B982B9907E5D78B8202016B6BF0
:101710009AC16CF29BC16DF223EC00F099C100F00C
:021720001200B5
:1017220001019651190802E19551AD0804E2AE0E8D
:10173200955F190E965B02016B6B95C16CF296C1B7
:081742006DF223EC00F012002F
:06174A00006A016A1200B2
:101750000101A26BA36B000E9A1902E1500E9919B8
:1017600003E0006A016A1200190EA46F010EA56F52
:101770009B0EA66F010EA76F320EA86F000EA96F09
:10178000B6DE0050000A03E1006A016A120001019E
:101790009BC1A4F19CC1A5F17C0EA66F000EA76FA2
:1017A000DDDC00C09FF1190E02014E6F010E4F6F7C
:1017B0008E0E506F000E516F080E526F000E536F59
:1017C0007EEC06F0000E011802E1000E001850E158
:1017D000010E006E000E016E005022080101A06F84
:1017E00001C0A1F1010EA1579F51000A12E1450E5F
:1017F000A46F3B0EA56F000EA66F5D0EA76F3B0E8C
:10180000A86F000EA96F49DC00C0A2F101C0A3F1CE
:101810002ED0A0C14EF2A1C14FF2720E0201506F44
:10182000000E516F090E526F000E536F7EEC06F0E2
:10183000000E011802E1000E00180CE13F0E01013C
:10184000A46F000EA56FAFEC06F000C0A2F101C0BE
:10185000A3F10DD00101940EA46F380EA56F000EF8
:10186000A66FD7EC06F000C0A2F101C0A3F180D0B2
:1018700001015E0EA46F000EA56F1CDE00C052F2C7
:1018800001C053F2190E02014E6F010E4F6F5E0E32
:10189000506F000E516F7EEC06F0000E011802E151
:1018A000000E001811E1400E0101A46F2F0EA56F6C
:1018B000000EA66F670EA76F040EA86FD6DD00C0DE
:1018C000A2F101C0A3F154D00101680EA46F000E73
:1018D000A56FF0DD00C052F201C053F2190E0201F3
:1018E0004E6F010E4F6F680E506F000E516F7EEC01
:1018F00006F0000E011802E1000E001811E1A70E1B
:101900000101A46F330EA56F000EA66FE60EA76F40
:10191000030EA86FAADD00C0A2F101C0A3F128D078
:10192000190E02014E6F010E4F6F970E506F000E91
:10193000516F010E526F000E536F7EEC06F0000ED9
:10194000011802E1000E00180EE18D0E0101A46FD6
:10195000370EA56F000EA66FD7EC06F000C0A2F1FF
:1019600001C0A3F105D01ADE00C0A2F101C0A3F1AD
:0A197000A2C100F0A3C101F01200B3
:10197A00C90E02015E6F190E5F6FCD0E606F190EF0
:10198A00616FCD0E626F190E636F646B01EC01F02B
:10199A00C90E5E6F190E5F6FB40E606F000E616F35
:0E19AA00040E626F000E636F85EC02F01200F7
:1019B800FEEC05F0FEEC05F0FEEC05F000C096F13B
:1019C800FEEC05F000C095F1FEEC05F000C098F1C2
:1019D800FEEC05F000C097F1FEEC05F000C09AF1AE
:1019E800FEEC05F000C099F1FEEC05F0FEEC05F008
:1019F800FEEC05F0FEEC05F097C100F098C101F08F
:101A0800010E0101975F000E985B005001100EE077
:101A1800FEEC05F0005201E0FBD7FEEC05F0FEEC11
:101A280005F0FEEC05F0FEEC05F0E6D799C100F0F4
:101A38009AC101F0010E0101995F000E9A5B0050F6
:101A4800011048E0FEEC05F0FEEC05F0FEEC05F0B8
:101A580000C09EF1FEEC05F000C09DF1FEEC05F023
:101A6800FEEC05F0FEEC05F0FEEC05F0FEEC05F0F2
:101A7800FEEC05F0FEEC05F000C09CF1FEEC05F074
:101A880000C09BF1000E01019E1902E1010E9D1993
:101A980011E1FEEC05F000C0D8F0FEEC05F000C046
:101AA800D9F0FEEC05F000C0DAF0FEEC05F000C05D
:101AB800DBF010D09BC100F09CC101F0010E0101C8
:101AC8009B5F000E9C5B0050011003E0FEEC05F0EC
:061AD800F1D7ACD71200AB
:101ADE00B4D0B40E0101A46F000EA56FA66B040E58
:101AEE00A76F000EA86F90EC08F0010EA46FA56B07
:101AFE0056EC09F03AC0D4F03BC0D5F03CC0D6F05D
:101B0E003DC0D7F0030E306EA9D0050E0001D425CE
:101B1E00016E000ED521026E000ED621036E000E50
:101B2E00D721046E3D50045C08E13C50035C05E196
:101B3E003B50025C02E13A50015C02E2020E306E52
:101B4E00F4EC06F00050020A03E1040E306E01D0F0
:101B5E0085D0030E0101A46F31C0A5F156EC09F03A
:101B6E003AC0D4F03BC0D5F03CC0D6F03DC0D7F063
:101B7E00050E306E73D0F4EC06F000C095F10050F7
:101B8E00060A03E1040E306E2ED001019551050AAE
:101B9E002AE13AC0D4F03BC0D5F03CC0D6F03DC0EF
:101BAE00D7F0060E306EB40E02014E6F000E4F6F60
:101BBE00C20E506F000E516F040E526F000E536F17
:101BCE0018EC06F0CA0E0101A46F000EA56FC60E2A
:101BDE00A66F000EA76FB00EA86F000EA96F2DECAA
:101BEE0009F0316A12003AD0010E0001D425016EBF
:101BFE00000ED521026E000ED621036E000ED721E7
:101C0E00046E04503D5C08E103503C5C05E102505B
:101C1E003B5C02E101503A5C0FE30001010EBE5F36
:101C2E00000EBF5BC05BC15B3AC0D4F03BC0D5F0C9
:101C3E003CC0D6F03DC0D7F011D03050020AD8B417
:101C4E0048D73050030AD8B460D73050040A81E028
:0E1C5E003050050A90E03050060AC6E0120031
:101C6C006BC168F26CC169F264EC00F000C076F1F3
:101C7C00FEEC05F000C075F1FEEC05F000C074F14F
:101C8C00FEEC05F000C073F1000E0101741902E1C5
:101C9C00000E731901E11200FEEC05F000C078F1A2
:101CAC00FEEC05F000C077F1790E02014E6F010ECB
:101CBC004F6FC90E506F190E516F040E526F000EFC
:101CCC00536F40EC06F0020E6B6F080E01016B2592
:101CDC0002016C6F000E01016C2102016D6F23EC8F
:101CEC0000F00E0E01016825956F000E6921966FAC
:101CFC006A519527000E9623080E9527000E962301
:101D0C000ADD000E0101761902E1350E751902E1AA
:101D1C004DDE49D0000E0101741902E1440E731915
:101D2C0002E1D7DE40D0790E0101956F010E966F5E
:101D3C0075C197F176C198F173C199F174C19AF19B
:101D4C00080E775D9B6F000E78599C6FF8DC00C015
:101D5C0077F101C078F10050011025E06D0E020101
:101D6C004E6F010E4F6FB50E506F190E516F060E60
:101D7C00526F000E536F40EC06F06D0E4E6F010E5D
:101D8C004F6F790E506F010E516F73C152F274C1C7
:101D9C0053F275C154F276C155F277C156F278C13F
:081DAC0057F24BEC04F01200A9
:101DB4001F0E0201686F010E696F83EC00F01F0EA5
:101DC4000201686F020E696FC1EC00F0140E01018C
:101DD400956F68C196F131DC120E0201686F010E35
:101DE400696FC1EC00F048DC120E0201686F010E4D
:101DF400696F83EC00F0160E0201686FDEEC00F0F0
:101E04006BC1E1FF6CC1E2FF00C0E6FF170E0201E7
:101E1400686FDEEC00F069C1E1FF6AC1E2FF00C057
:041E2400E6FF1200C3
:101E28006CC168F26DC169F264EC00F000C07CF12D
:101E3800FEEC05F000C07BF1FEEC05F000C07AF185
:101E4800FEEC05F000C079F10101816B866B010E93
:101E5800876F846B856B0C0E6C250201686F000E12
:101E680001016D210201696F64EC00F000C07FF18F
:101E7800000E0101806F7F337F9F7F337F9F000EAD
:101E8800806FFC0E7F17FF0E8017900E02014E6FB9
:101E9800010E4F6FC90E506F190E516F040E526F1D
:101EA800000E536F40EC06F00D0E01016C25020187
:101EB800686F000E01016D210201696F64EC00F08A
:101EC8003F0E001401017D6F7E6B000E7E17000E21
:101ED8007E6F0E0E0001BC5D0101826F000E0001D5
:101EE800BD590101836F6A51825F6B51835B7F51DA
:101EF800825F8051835B020E6C250201686F000EC1
:101F080001016D210201696F64EC00F000C06AF202
:101F18006CC168F26DC169F2A0EC00F0030E01011A
:101F28006C250201686F000E01016D210201696FC5
:101F380064EC00F000C068F24BEC00F07BC15EF28C
:101F48007CC15FF2E3EC02F0040E01016C25020192
:101F5800686F000E01016D210201696F64EC00F0E9
:101F680000C08BF1FEEC05F000C08AF1FEEC05F034
:101F780000C089F1FEEC05F000C088F1FEEC05F028
:101F880000C08FF1FEEC05F000C08EF1FEEC05F00C
:101F980000C08DF1FEEC05F000C08CF1000E0101CF
:101FA8007E1902E1020E7D193DE1010E8825006EC1
:101FB800000E8921016E000E8A21026E000E8B210F
:101FC800036E00C08CF101C08DF102C08EF103C018
:101FD8008FF1120E7D6F000E7E6F0C0E0201686F7E
:101FE800DEEC00F000C088F10D0E0201686FDEEC37
:101FF80000F000C089F10201686BDEEC00F000C05F
:102008008AF1010E0201686FDEEC00F000C08BF16E
:102018000101812B140E7F6F000E806F846B856B1E
:10202800156A6BD0000E7E1902E1180E7D192FE19A
:1020380088C16EF189C16FF18AC170F18BC171F1EC
:102048008CC188F18DC189F18EC18AF18FC18BF164
:1020580082516E25006E83516F21016E000E702132
:10206800026E000E7121036E00C08CF101C08DF16B
:1020780002C08EF103C08FF1100E7D6F000E7E6FCF
:10208800812B140E7F6F000E806F862B36D0000ECA
:102098007E1902E1110E7D1930E188C172F189C102
:1020A80073F18AC174F18BC175F18CC188F18DC14E
:1020B80089F18EC18AF18FC18BF1010E7225006EF4
:1020C800000E7321016E000E7421026E000E752140
:1020D800036E00C08CF101C08DF102C08EF103C007
:1020E8008FF1100E7D6F000E7E6F812B140E7F6FA7
:1020F800000E806F846B856B152A8153D8B4D8D1B4
:102108000101040E6C2502015E6F000E01016D21B4
:1021180002015F6F8BC160F28AC161F2F6EC00F0D8
:1021280089C168F24BEC00F088C168F24BEC00F012
:102138008FC168F24BEC00F08EC168F24BEC00F0F6
:102148008DC168F24BEC00F08CC168F24BEC00F0EA
:102158000C0E01016C250201686F000E01016D2152
:102168000201696F64EC00F00F0E001402016A6F3F
:102178007FC100F0003600900036009000506A13CE
:102188000C0E01016C250201686F000E01016D2122
:102198000201696FA0EC00F00D0E01016C2502012F
:1021A800686F000E01016D210201696F64EC00F097
:1021B800C00E001402016A6F01017D5102016A1309
:1021C8000D0E01016C250201686F000E01016D21E1
:1021D8000201696FA0EC00F001016A518425826F49
:1021E8006B518521836F7F518227805183238753C9
:1021F80004E0D8EC0AF0BDEC0CF00201BF0E5E6FF3
:10220800190E5F6F83C160F282C161F2F6EC00F0D3
:10221800C70E02015E6F190E5F6F606B616BF6ECA3
:1022280000F0BD0E02015E6F190E5F6F6AC160F2A9
:102238006BC161F25DEC02F0160E0201686FDEEC14
:1022480000F000C094F1170E0201686FDEEC00F098
:1022580000C060F2C70E02015E6F190E5F6F94C175
:1022680061F2F6EC00F0BD0E01018225776F190EC0
:102278008321786F100E6C2502015E6F000E01013C
:102288006D2102015F6F606B616BF6EC00F0010E6F
:1022980001018215766F77C168F278C169F202018F
:1022A8006A6BA0EC00F0C90E02015E6F190E5F6F39
:1022B800D10E606F190E616F010176517725020109
:1022C800626F000E010178210201636F646B01ECFB
:1022D80001F0080E0101772502015E6F000E010171
:1022E800782102015F6F0101765102015E27000E1D
:1022F8005F23606B060E616FF6EC00F00A0E0101B9
:10230800772502015E6F000E0101782102015F6FDF
:102318000101765102015E27000E5F2301018451FD
:102328007F25036E85518021046E04C000F0016A88
:1023380000C060F203C061F2F6EC00F06CC15EF21E
:102348006DC15FF2010184517F250201606F0101B7
:10235800855180210201616F0C0E6027000E6123F8
:102368000101765102016027000E61235DEC02F045
:10237800160E0201686FDEEC00F000C094F1170E33
:102388000201686FDEEC00F000C060F2100E01017F
:102398006C2502015E6F000E01016D2102015F6F65
:1023A80094C161F2F6EC00F00E0E010182250201E3
:1023B8005E6F000E0101832102015F6F88EC01F05E
:1023C8000101865351E0100E7D6F000E7E6F866B03
:1023D800876B020E02016B6F01017F516C250201B0
:1023E8006C6F010180516D2102016D6F23EC00F0CB
:1023F8000E0E01016825956F000E6921966F6A51CE
:1024080095276B5196237F5195278051962391EC00
:102418000BF0152A900E0101956F010E966F7BC186
:1024280097F17CC198F179C199F17AC19AF10E0EB0
:102438000001BC5D01019B6F000E0001BD59010147
:102448009C6F6A519B5F6B519C5B7F519B5F805176
:102458009C5B150E9D6F000E9E6FA8EC0BF000C0E4
:1024680084F101C085F14CD6155222E00101845156
:102478008825006E85518921016E000E8A21026E21
:10248800000E8B21036E00C088F101C089F102C0E3
:102498008AF103C08BF1110E7D6F000E7E6F156AF5
:1024A800876B140E7F6F000E806F846B856B28D648
:0224B800120010
:1024BA00C40E0201686F190E696F64EC00F000C067
:1024CA0068F1E8D0D50E0101956F190E966FB40E1A
:1024DA00976F000E986F040E996F48EC0BF000503E
:1024EA00000A4BE1C40E0201686F190E696F020EF1
:1024FA006A6FA0EC00F0D8EC0AF0CB0E5E6F190EF2
:10250A005F6FCF0E606F190E616FD50E626F190E75
:10251A00636F646B01EC01F0CB0E5E6F190E5F6F97
:10252A00B40E606F000E616F040E626F000E636F6F
:10253A0085EC02F0C50E5E6F190E5F6FCB0E606FF1
:10254A00190E616FCF0E626F190E636F646B01EC27
:10255A0001F0C50E5E6F190E5F6FCE0E606F000E32
:10256A00616F060E626F000E636F85EC02F03C0E1F
:10257A005E6F000E5F6F88EC01F095D0AF0E01011F
:10258A00956F190E966FCE0E976F000E986F060E06
:10259A00996F48EC0BF00050000A7BE1CB0E010169
:1025AA00956F190E966FE2C097F1E3C098F1040E89
:1025BA00996F48EC0BF00050000A6BE13EC000F046
:1025CA00000E016E0F0E046E000E056EF7EC0AF097
:1025DA00EC0E002402014E6F000E01204F6F090E0F
:1025EA004E27000E4F23C50E506F190E516F060E5F
:1025FA00526F000E536F40EC06F03EC000F0000E22
:10260A00016E0F0E046E000E056EF7EC0AF0EC0E6A
:10261A0000244E6F000E01204F6F050E4E27000E4C
:10262A004F23E2C050F2E3C051F2040E526F000E83
:10263A00536F18EC06F03EC000F0000E016E0F0E4C
:10264A00046E000E056EF7EC0AF0EC0E0024E16E43
:10265A00000E0120E26E010EE66E3EC000F0000E92
:10266A00016E0F0E046E000E056EF7EC0AF0EC0E0A
:10267A000026000E0122010E0024E16E000E012048
:10268A00E26E3AC0E6FF3BC0E6FF3CC0E6FF3DC053
:10269A00E6FF09D001016851010AD8B413D768517D
:0826AA00020AD8B46BD712003C
:1026B2001F0E0201686F010E696F83EC00F01F0E9E
:1026C2000201686F020E696FC1EC00F0140E010185
:1026D200956F68C196F11FEC0BF03EEC0BF0160EF5
:1026E200956F6AC196F11FEC0BF03EEC0BF0170EE2
:1026F200956F69C196F11FEC0BF03EEC0BF01200E6
:102702000101956B555303E00D0E006E02D0050ECC
:10271200006E00C096F11FEC0BF0020E0101956FE6
:10272200555303E0310E006E02D0300E006E00C031
:1027320096F11FEC0BF00A0E02016B6FEE0E6C6F3E
:10274200050E6D6F23EC00F0040E0101956F5553D9
:1027520003E0150E006E02D0120E006E00C096F15C
:102762001FEC0BF0060E0101956F120E966F1FEC17
:102772000BF00101555306E1070E956F0C0E966F93
:102782001FEC0BF00101555306E1090E956F3F0E48
:10279200966F1FEC0BF01F0E0201686F010E696F3E
:1027A200C1EC00F01F0E0201686F020E696FC1ECEE
:1027B20000F0040E0101956FCEC096F11FEC0BF0F4
:1027C200050E0101956FCFC096F11FEC0BF0020EC2
:1027D2000101956FD0C096F11FEC0BF0030E0101C1
:1027E200956FD1C096F11FEC0BF00101956BD2C031
:1027F20096F11FEC0BF0010E0101956FD3C096F11B
:102802001FEC0BF0150E0101956F966B1FEC0BF090
:10281200120E0201686FDEEC00F000C0ABF00101A5
:10282200686B560E696F010E6A6F570E6B6F010E61
:102832006C6FDAEC0EF00101686BFE0E5615696FD3
:10284200555303E0010E006E01D0006A0050691377
:1028520057C16AF12DDF100E686F010E696F6A6B46
:1028620027DF1F0E0201686F040E696FC1EC00F0D2
:102872003EEC0BF0EC0EA46F000EA56FA66B2D0EB6
:10288200A76F000EA86F90EC08F01F0E0201686F90
:10289200010E696F83EC00F01F0E0201686F020ED9
:0828A200696F83EC00F01200E5
:1028AA000101666B1F0E0201686F010E696F83ECEE
:1028BA0000F01F0E0201686F020E696F83EC00F0D0
:1028CA0002016B6B32C06CF233C06DF223EC00F084
:1028DA008B924EC1E1FF4FC1E2FF3A0EE66E4CC148
:1028EA0000F04DC101F017EC00F04EC1E1FF4FC1FD
:1028FA00E2FFE66A4CC100F04DC101F017EC00F0AE
:10290A0000C032F04EC1E1FF4FC1E2FFE66A4CC19E
:10291A0000F04DC101F017EC00F000C033F04EC1D9
:10292A00E1FF4FC1E2FFE66A4CC100F04DC101F080
:10293A0017EC00F000C0BCF04EC1E1FF4FC1E2FF4E
:10294A00E66A4CC100F04DC101F017EC00F000C07E
:10295A00BDF04EC1E1FF4FC1E2FFE66A4CC100F093
:10296A004DC101F017EC00F000C05CF14EC1E1FF6F
:10297A004FC1E2FFE66A4CC100F04DC101F017EC0D
:10298A0000F000C05DF18B82040E0001BC5F000EF6
:10299A00BD5B3350190802E13250AD0810E332B082
:1029AA000ED001015DBF0BD00001BD51050802E147
:1029BA00BC51EE0804E301015CAF01D003D0010E63
:1029CA00006E12000201686BDEEC00F000C05AF1E2
:1029DA00010E0201686FDEEC00F000C05BF15AC123
:1029EA005EF25BC15FF20001BC5101015A2502018E
:1029FA00606F0001BD5101015B210201616FAF0EE1
:102A0A00626F190E636F010E646F01EC01F0BB0E69
:102A1A00686F190E696F64EC00F000C05DF1FEEC9E
:102A2A0005F000C05CF101015D51080A02E1060EE1
:102A3A005C191DE1BD0E956F190E966F5E6B010E46
:102A4A005F6F080E606F616B060E626F040E636F34
:102A5A00646B656B5E0E976F010E986F070E996F28
:102A6A0048EC0BF00050000A01E122DD3BD10101E4
:102A7A005D51080A02E1000E5C19D8A430D1CD0ECE
:102A8A00956F190E966FB40E976F000E986F040E1D
:102A9A00996F48EC0BF0005214E0CD0E0101956FCE
:102AAA00190E966F340E976F000E986F040E996F79
:102ABA0048EC0BF00050000A04E0020E0101666FB8
:102ACA000DD1BD0E0201686F190E696F64EC00F03A
:102ADA00F00E0014016E0150400A04E0030E0101D9
:102AEA00666FFCD0BD0E0201686F190E696F64EC47
:102AFA0000F000C058F1000E0101596F0F0E58176F
:102B0A00000E59175837589159375837589159372D
:102B1A00C30E0201686F190E696F64EC00F0BF0EF4
:102B2A000014016E0150000AD8A4D8D0C40E0201C4
:102B3A00686F190E696F64EC00F00050000AD8A49F
:102B4A00CDD0BD0E01015825566F190E5921576F68
:102B5A00C60E0201686F190E696F64EC00F000C0BE
:102B6A0055F10050010AD8A496D056C168F257C14F
:102B7A0069F264EC00F00050080AD8A48BD0010E68
:102B8A00010156250201686F000E01015721020159
:102B9A00696F64EC00F00050000A7CE156C168F2EB
:102BAA0057C169F202016A6BA0EC00F0D8EC0AF096
:102BBA00BDEC0CF0C70E5E6F190E5F6F606B616B38
:102BCA00F6EC00F0BD0E02015E6F190E5F6F58C180
:102BDA0060F259C161F25DEC02F0160E0201686FF3
:102BEA00DEEC00F000C067F1170E0201686FDEEC40
:102BFA0000F000C060F2C70E02015E6F190E5F6F2F
:102C0A0067C161F2F6EC00F0020E010156250201DD
:102C1A005E6F000E0101572102015F6F606B616BED
:102C2A00F6EC00F056C15EF257C15FF2010158514D
:102C3A000001BC5D0201606F010159510001BD59DB
:102C4A000201616F0E0E605F000E615B5DEC02F0C7
:102C5A00160E0201686FDEEC00F000C067F1170E75
:102C6A000201686FDEEC00F000C060F2020E0101A2
:102C7A00562502015E6F000E0101572102015F6FA6
:102C8A0067C161F2F6EC00F0BCC05EF2BDC05FF253
:102C9A0088EC01F023D001015551110A0DE15AC106
:102CAA0068F15BC169F158C16AF156C16BF157C14C
:102CBA006CF136EC0EF012D001015551060A0EE104
:102CCA005AC168F15BC169F158C16AF159C16BF126
:102CDA0056C16CF157C16DF114EC0FF003D0040E1C
:102CEA000101666F1E0E0201686F400E696FC1EC2A
:102CFA0000F0010E325C016E000E3358026E025073
:102D0A00190802E10150AD080AE20C0E02016B6FCC
:102D1A00AD0E6C6F190E6D6F23EC00F00BD00C0E1C
:102D2A0002016B6F010E325C6C6F000E33586D6FCF
:0A2D3A0023EC00F066C100F0120067
:102D44001C0E01014C6F000E4D6F6E0E4E6F020E85
:102D54004F6FFF0E0001DE6FFF0EDF6FFF0EE06F9F
:102D6400FF0EE16F949A94969488C66A400EC76EDB
:042D7400C68A1200F9
:102D78000900F5CFE6FF0006FBE10106F9E11200C4
:102D88000101506B1F0E0201686F010E696FC1ECE3
:102D980000F01F0E0201686F020E696F83EC00F0ED
:102DA800190E0201686FDEEC00F00050000803E223
:102DB80078DD00C050F11F0E0201686F010E696FC7
:102DC80083EC00F01F0E0201686F020E696F83EC3E
:082DD80000F050C100F01200F0
:102DE00094908B8094928B823EEC0BF08B803EEC27
:102DF0000BF08B903EEC0BF08B803EEC0BF08B924B
:102E00004EC1E1FF4FC1E2FFFF0EE66E4CC100F084
:102E10004DC101F017EC00F08B823EEC0BF0CE0EB2
:102E200002014E6F000E4F6F50C150F251C151F26E
:102E3000060E526F000E536F18EC06F0B40E4E6F74
:102E4000000E4F6F52C150F253C151F2040E526F37
:102E5000000E536F18EC06F01F0E686F010E696FBD
:102E600083EC00F01F0E0201686F020E696F83ECA5
:102E700000F0080E02016B6F6C6B6D6B23EC00F0C1
:102E80000A0E02016B6FAD0E6C6F190E6D6F23ECA5
:102E900000F00C0E02016B6FAD0E6C6F190E6D6FB2
:102EA00023EC00F002016B6B6C6B6D6B23EC00F09C
:102EB000040E02016B6FAE0E6C6F190E6D6F23EC7A
:102EC00000F01F0E0201686F010E696F83EC00F0C5
:102ED0001F0E0201686F020E696FC1EC00F054C151
:062EE00055F10FDC1200A9
:102EE600C9EC1DF00F0EC112070EB41228DF1C0E1E
:102EF60001014C6F000E4D6F6E0E4E6F020E4F6F3E
:102F06009D0E506F000E516F990E526F000E536F4B
:102F1600010E546F62DFA70E0101A46F000EA56FAC
:102F2600A30EA66F000EA76F2C0EA86F000EA96F3A
:0A2F36002DEC09F026DFFED7FFD7CF
:103B920010EE15F0960E006E010E016E830EF66E9B
:0E3BA200390EF76E000EF86EBCEC16F0120035
:102F400047494638396119001900F70000000000B0
:102F500080000000800080800000008080008000F1
:102F60008080808080C0C0C0FF000000FF00FFFFA5
:102F7000000000FFFF00FF00FFFFFFFFFF00000059
:102F80000000000000000000000000000000000041
:102F90000000000000000000000000000000000031
:102FA0000000000000000000000000000000000021
:102FB0000000000000000000000000000000000011
:102FC0000000000000000000000033000066000068
:102FD000990000CC0000FF0033000033330033665B
:102FE0000033990033CC0033FF00660000663300E5
:102FF00066660066990066CC0066FF00990000993D
:10300000330099660099990099CC0099FF00CC0093
:1030100000CC3300CC6600CC9900CCCC00CCFF00B7
:10302000FF0000FF3300FF6600FF9900FFCC00FFA8
:10303000FF3300003300333300663300993300CC94
:103040003300FF3333003333333333663333993351
:1030500033CC3333FF33660033663333666633660F
:10306000993366CC3366FF339900339933339966CD
:103070003399993399CC3399FF33CC0033CC333324
:10308000CC6633CC9933CCCC33CCFF33FF0033FF49
:103090003333FF6633FF9933FFCC33FFFF66000005
:1030A0006600336600666600996600CC6600FF66BF
:1030B00033006633336633666633996633CC6633E2
:1030C000FF6666006666336666666666996666CC07
:1030D0006666FF6699006699336699666699996691
:1030E00099CC6699FF66CC0066CC3366CC6666CC1C
:1030F0009966CCCC66CCFF66FF0066FF3366FF6640
:1031000066FF9966FFCC66FFFF990000990033992E
:1031100000669900999900CC9900FF993300993382
:10312000339933669933999933CC9933FF99660073
:103130009966339966669966999966CC9966FF99FE
:1031400099009999339999669999999999CC9999EE
:10315000FF99CC0099CC3399CC6699CC9999CCCC79
:1031600099CCFF99FF0099FF3399FF6699FF9999D0
:10317000FFCC99FFFFCC0000CC0033CC0066CC0024
:1031800099CC00CCCC00FFCC3300CC3333CC3366AD
:10319000CC3399CC33CCCC33FFCC6600CC6633CC6B
:1031A0006666CC6699CC66CCCC66FFCC9900CC998F
:1031B00033CC9966CC9999CC99CCCC99FFCCCC00E6
:1031C000CCCC33CCCC66CCCC99CCCCCCCCCCFFCC3E
:1031D000FF00CCFF33CCFF66CCFF99CCFFCCCCFFFB
:1031E000FFFF0000FF0033FF0066FF0099FF00CCE7
:1031F000FF00FFFF3300FF3333FF3366FF3399FFD8
:1032000033CCFF33FFFF6600FF6633FF6666FF6661
:1032100099FF66CCFF66FFFF9900FF9933FF99661F
:10322000FF9999FF99CCFF99FFFFCC00FFCC33FFAA
:10323000CC66FFCC99FFCCCCFFCCFFFFFF00FFFF9B
:1032400033FFFF66FFFF99FFFFCCFFFFFF21F9046B
:1032500001000010002C00000000190019000008F7
:10326000FF00FF091C48B0A0C18308132A4448EDA1
:103270005FC38507A9A59AE2A70FAA3E7DFC401C63
:1032800028719A3F7FFDECF1B327AD4FAA851DA7AA
:1032900080F4776FA4BD7AFCA6A47A58909A1F8A0E
:1032A0001EA74C9BD68FDFC898FC969D24486DCAFC
:1032B0001454D3282A6D864A9A347BA19845B37753
:1032C0008A26B53EFDA6F4EBE7475AD2A4D250F5C4
:1032D0003B25F0A93D8D02A748CBBA56AB34A3617C
:1032E00099394541ED94BD68550576CDBA752F45A0
:1032F00054159D4E6136ED69DE7F5A63B6E597350C
:10330000E3B489CC4E499B3AF9A1DFBE6B2DF6F3AD
:1033100087AAB35C9787A78C8C3675AA3D7B9BA741
:10332000F539C56CD9E9BB87FDECE307D327EAD4AF
:103330007E9A4AE3F78F24BF3E03A744AB47DCE7FE
:10334000567FAAEF84B243CCDEB2A94207FA89467F
:10335000DBF8E6AD7D223F7559CF0F4D3FA766C321
:1033600044BCDEAFB39D50BB49761F2AF0AA7590CE
:103370007D9BA2FA594F14FB81A94EF9845F5E2D03
:10338000B3D341F9711F47A95894516E7F49235710
:1033900046344544CD83104A4491770D6E64E185EF
:0733A0001866285040003BB5
:1033A70047494638396119001900F7000000000045
:1033B7008000000080008080000000808000800086
:1033C7008080808080C0C0C0FF000000FF00FFFF3A
:1033D700000000FFFF00FF00FFFFFFFFFF000000EE
:1033E70000000000000000000000000000000000D6
:1033F70000000000000000000000000000000000C6
:1034070000000000000000000000000000000000B5
:1034170000000000000000000000000000000000A5
:1034270000000000000000000000330000660000FC
:10343700990000CC0000FF003300003333003366EF
:103447000033990033CC0033FF0066000066330079
:1034570066660066990066CC0066FF0099000099D1
:10346700330099660099990099CC0099FF00CC0028
:1034770000CC3300CC6600CC9900CCCC00CCFF004C
:10348700FF0000FF3300FF6600FF9900FFCC00FF3D
:10349700FF3300003300333300663300993300CC29
:1034A7003300FF33330033333333336633339933E6
:1034B70033CC3333FF3366003366333366663366A4
:1034C700993366CC3366FF33990033993333996662
:1034D7003399993399CC3399FF33CC0033CC3333B9
:1034E700CC6633CC9933CCCC33CCFF33FF0033FFDE
:1034F7003333FF6633FF9933FFCC33FFFF6600009A
:103507006600336600666600996600CC6600FF6653
:1035170033006633336633666633996633CC663376
:10352700FF6666006666336666666666996666CC9B
:103537006666FF6699006699336699666699996625
:1035470099CC6699FF66CC0066CC3366CC6666CCB0
:103557009966CCCC66CCFF66FF0066FF3366FF66D4
:1035670066FF9966FFCC66FFFF99000099003399C3
:1035770000669900999900CC9900FF993300993317
:10358700339933669933999933CC9933FF99660008
:103597009966339966669966999966CC9966FF9993
:1035A70099009999339999669999999999CC999983
:1035B700FF99CC0099CC3399CC6699CC9999CCCC0E
:1035C70099CCFF99FF0099FF3399FF6699FF999965
:1035D700FFCC99FFFFCC0000CC0033CC0066CC00B9
:1035E70099CC00CCCC00FFCC3300CC3333CC336642
:1035F700CC3399CC33CCCC33FFCC6600CC6633CC00
:103607006666CC6699CC66CCCC66FFCC9900CC9923
:1036170033CC9966CC9999CC99CCCC99FFCCCC007A
:10362700CCCC33CCCC66CCCC99CCCCCCCCCCFFCCD2
:10363700FF00CCFF33CCFF66CCFF99CCFFCCCCFF8F
:10364700FFFF0000FF0033FF0066FF0099FF00CC7B
:10365700FF00FFFF3300FF3333FF3366FF3399FF6C
:1036670033CCFF33FFFF6600FF6633FF6666FF66F6
:1036770099FF66CCFF66FFFF9900FF9933FF9966B4
:10368700FF9999FF99CCFF99FFFFCC00FFCC33FF3F
:10369700CC66FFCC99FFCCCCFFCCFFFFFF00FFFF30
:1036A70033FFFF66FFFF99FFFFCCFFFFFF21F90400
:1036B70001000010002C000000001900190000088C
:1036C700C300FF091C48B0A0C18308132A4C18EA9D
:1036D7004EC38509FB44DB57AFDE1D8807FBECDBD8
:1036E700582F144683A1EA51AC67E763C13B1BF728
:1036F7005D3449B08F48687D1686EAD370664D976A
:103707001B63460C156DD9B28922EB45034A32215A
:103717004A912953221DB9D2601F6514A30695BA91
:103727004F994E83777E464DCAB5DE328F071D828D
:103737000AC573EA5468D19A160CE5F354B4A5493F
:103747004546036BD04E45AA66F7412B7A90ED5D4F
:10375700AE71E73204E5F36E5E65168DCE3DB57446
:10376700E95BB54EA1E67DAB2C9A55996FCD0A154D
:103777004A57619FAC95112BABC9D2A1E9872C534E
:06378700AB3E1810003BF0
:10378D003C68746D6C3E3C626F64793E3C63656E63
:10379D007465723E3C68313E4D6963726F67656E4C
:1037AD00696F7320536F6C75E7F5657320456C6514
:1037BD007472F46E696361204C746461202D2077FE
:1037CD0077772E6D6963726F67656E696F732E63A0
:1037DD006F6D2E62723C2F68313E3C68313E4175F3
:1037ED0074656E74696361E7E36F20636F6D204DDF
:1037FD00696B726F432050524F20666F7220504993
:10380D00433C2F68313E3C68323E3C696D67207306
:10381D0072633D222F73746F702E676966223E3C72
:10382D006120687265663D222F70726976617465DC
:10383D00223E20436C697175652061717569206543
:10384D0020646967697465207375612073656E689E
:10385D00613C2F613E3C696D67207372633D222F81
:10386D0073746F702E676966223E3C2F68323E3C42
:10387D002F63656E7465723E3C2F626F64793E3CBA
:07388D002F68746D6C3E0012
:103894003C68746D6C3E3C626F64793E3C63656E5B
:1038A4007465723E3C68323E3C666F6E7420636F92
:1038B4006C6F723D7265643E3C68313E42656D20BA
:1038C40076696E646F20612061726561205072694F
:1038D400766164613C2F68313E3C696D6720737288
:1038E400633D222F676F6F642E676966223E3C61D9
:1038F40020687265663D222F707269766174652F47
:103904007265646972656374223E436C697175659E
:10391400206171756920652073656A612072656430
:1039240069726563696F6E61646F20706172612092
:103934006F2073697465204D6963726F67656E6982
:103944006F733C2F613E3C696D67207372633D2247
:103954002F676F6F642E676966223E3C2F666F6E19
:10396400743E3C2F68323E3C2F63656E7465723E34
:0F3974003C2F626F64793E3C2F68746D6C3E008F
:013983000043
:10398400417574686F72697A6174696F6E3A204226
:063994006173696320006D
:04399A00C0A80101BF
:01399E000028
:01399F000027
:0239A000000025
:0639A200FFFFFFFFFFFF25
:0439A800000000001B
:0139AC00001A
:1039AD00687474703A2F2F7777772E6D6963726F05
:0F39BD0067656E696F732E636F6D2E62722F00D8
:0A39CC002F73746F702E6769660098
:0A39D6002F676F6F642E67696600AB
:0A39E0002F7265646972656374005C
:1039EA006D696B726F653A62617369637265616C66
:0239FA006D005E
:0939FC002F707269766174650098
:023A05002F0090
:043A0700C0A8013C16
:063A0B000014A576193F2E
:043A1100C0A8010147
:043A1500FFFFFF00B0
:103A19007C2424247D72737475767778797A7B2473
:103A29002424242424243E3F40414243444546471C
:103A390048494A4B4C4D4E4F505152535455565785
:103A490024242424242458595A5B5C5D5E5F6061F8
:103A590062636465666768696A6B6C6D6E6F7071C5
:013A6900005C
:103A6A00485454502F312E3120343031204175744E
:103A7A00686F72697A6174696F6E205265717569CF
:103A8A007265640A5757572D41757468656E746973
:103A9A00636174653A204261736963207265616C7F
:043AAA006D3D22004C
:103AAE00485454502F312E3120333031204D6F7603
:103ABE006564205065726D616E656E746C790A4C2A
:0A3ACE006F636174696F6E3A2000A7
:103AD800485454502F312E3120323030204F4B0A69
:103AE800436F6E74656E742D747970653A207465D1
:0A3AF80078742F68746D6C0A0A00E0
:103B0200485454502F312E3120323030204F4B0A3E
:103B1200436F6E74656E742D747970653A20696DA9
:0A3B22006167652F6769660A0A00F3
:103B2C00485454502F312E3120343034204E6F7481
:093B3C0020466F756E640A0A0050
:103B450048545450205574696C73207072697661BD
:083B55007465207A6F6E6500B3
:103B5D00417574686F72697A6174696F6E20526510
:073B6D0071756972656400C7
:0C3B74000101060012233445000080000F
:063B80006382536335016E
:053B86003703010306F6
:043B8B00220A0A0000
:033B8F000A0A001F
:020000040030CA
:0D000100061F1EFF8181FF0FC00FE00F40A2
:00000001FF
