:0400000082EF03F098
:1000080000C015F0F2A414D081707B0ED66EE10EFC
:10001800D76EF294030E006ECECF2AF0000E2B6E30
:10002800005005E02A362A902B36FF0FFAD7CE6A01
:0600380015C000F01100EC
:0A003E00210E0D6E0D2EFED71200EC
:100048000F0E0C6E470E0D6E0D2EFED70C2EFCD724
:0600580000000000120090
:06005E000000000012008A
:0E006400026A016A006A086A036A000E12004E
:100072003FBE02D0839E01D0838E3FBC02D0839CC0
:1000820001D0838C3FBA02D0839A01D0838A3FB8D1
:1000920002D0839801D083882CB002D0848401D00E
:1000A20084948482DBDF84923FB602D0839E01D0A7
:1000B200838E3FB402D0839C01D0838C3FB202D0A6
:1000C200839A01D0838A3FB002D0839801D083887B
:1000D2002CB002D0848401D084948482BFDF8492C5
:0C00E2002CA002D0B0DF01D0A9DF12007A
:1000EE000B840BAE82EF00F0010E036E026A016A02
:0A00FE00006A0A360232FF0E1200FB
:080108000AAE029E000E120077
:100110000B820BAE92EF00F0036802680168006882
:080120000A360232FF0E120044
:100128000B6A0A6A096A00500402F4CF09F0F3CF97
:1001380008F001500502F4CF0BF0F3CF0AF000509D
:100148000502F3500926F4500A22E86A0B220150EE
:100158000402F3500926F4500A22E86A0B2208C068
:1001680000F009C001F00AC002F00BC003F0120051
:0C0178000E0E0D6E0D2EFED700001200C2
:100184000B800BAECEEF00F0026A0AAEFF0E026ED9
:0C019400016E006E0A360232FF0E1200EF
:1001A0000C6A0E6A0250D8A4E9EF00F001C002F018
:1001B00000C001F0006A0E860250D8A4E9EF00F0FA
:1001C00001C002F0016A0E960E880250D8B4FBEF0F
:1001D00000F00E50035ED8A4D8A000EF01F0D89034
:1001E00002BE05EF01F0003601360236032EF0EFB5
:1001F00000F000EF01F0010E0C6E34DF08EF01F0AB
:10020000020E0C6E74DF08EF01F0040E0C6E7CDF42
:020210001200DA
:0C0212002C903EC03FF02CDF2C8012002E
:10021E00086A096A100E0C6E01340836093604504D
:10022E00085E0550D8A0053C095ED8B007D0045032
:10023E0008260550D8B0053C0926D8900036013660
:06024E000C2EEAD712009D
:10025400CB50010F006E016A000E012237C004F07A
:10026400000E056E5FDF060E026E00C004F001C0D2
:1002740005F0025005E005320432059EFF0FFAD75F
:10028400040E016E04C000F0015004E0003600903A
:10029400FF0FFBD7300E0014036E04C000F005C03E
:1002A40001F001320032019E01320032019E00C091
:0C02B400BEFF0F0EBD160350BD1212005D
:1002C0000FD0800E376E19D0C00E376E16D0940E38
:1002D000376E13D0D40E376E10D0800E376E0DD01F
:1002E0003750010AEEE03750020AEEE03750030AB9
:1002F000EEE03750040AEEE0F0D73804006E3750D5
:10030000002600C037F000C03FF0B3DE2C903B6AFF
:100310003B503924E96E000E3A20EA6EEE520BE0B3
:100320003B503924E96E000E3A20EA6EEECF3EF0E3
:0A03300070DF3B2AEDD72C8012008D
:10033A00969296949598959A959C959E8492849473
:10034A00839E839C839A83987ADE79DE78DE838A19
:10035A00838884827FDE849272DE84827BDE84924A
:10036A006EDE848277DE84926ADE8398848272DE0D
:10037A00849265DE84826EDE8492839A838E84827E
:10038A0069DE84925CDE839E8388848263DE849243
:10039A00839884825FDE849252DE84825BDE84925A
:1003AA008388848257DE84924ADE8398848252DE6E
:1003BA008492838E838C838A838884824BDE8492A0
:0603CA003EDE2C80120053
:1003D0000050086E0150006E016A026A036A0B6ADF
:1003E0000C6A960E036E0A6A00C001F008C000F0A5
:0803F000086A026AD5DE120062
:0803F800BE6ABD98BD9A120017
:100400000B6A0C6A0A6A0350D8B44AEF02F0028EF3
:100410008E0E035E03BE12EF02F0D8B412EF02F0AC
:100420004EEF02F0036C080E035CD8A029EF02F037
:10043000036E013602C001F0026A080E035CD8A008
:1004400029EF02F00136016A0350D8A4D89033EFA7
:1004500002F00350D8B433EF02F0D89002320132E8
:10046000032E2DEF02F00BBC01A040EF02F0D8A04C
:1004700040EF02F0012AD8B4022A02BE5DEF02F07A
:100480000AAE62EF02F0021E011E012AD8B4022A4F
:1004900062EF02F0026A016A62EF02F00B800BAEBB
:1004A00066EF02F0026A0AAE66EF02F0FF0E026E1D
:1004B000016E0A36023266EF02F0010E0C6E62DE49
:1004C00068EF02F0000E0C6E68EF02F0FF0E0C6E8B
:0A04D0000150006E0250016E120090
:1004DA00086A096A000E07620364F2EF02F002502A
:1004EA0006180A6E075003267E0ED8A083EF02F084
:1004FA00035ED8B0F6EF02F087EF02F0035ED8A0F1
:10050A00FAEF02F0028E068E02C00EF001C00BF066
:10051A0000C00DF000500402F4CF0CF001500502A7
:10052A00F4CF00F0F3CF08F00402F3500C26F45095
:10053A000822000E00220D500502F3500C26F4503A
:10054A000822000E002202500402F3500826F4503A
:10055A00002202500502016A000E0122F350002611
:10056A00F45001220D500602F3500826F4500022DE
:10057A00026A000E012202220B500602F3500026E4
:10058A00F4500122000E02220E500602F3500126F8
:10059A00F450022202BEDAEF02F0083600360136C3
:1005AA0002360306D8B4FAEF02F0EDEF02F0D88073
:1005BA00800E08640030000E002201220222D8A018
:1005CA00EDEF02F0023201320032034AF6EF02F096
:1005DA000AAE029E000EFCEF02F0010E3EDDFCEFB9
:1005EA0002F0020E90DDFCEF02F0040E7BDD120039
:1005FA000900F5CFE6FF0006FBE10106F9E112006A
:10060A00C26A070EC012C08E37C000F000360090D2
:10061A00003600900050C212C280A9DDC282C2A276
:10062A0001D0FDD7C4CF01F0006AC3500012000EFA
:06063A000112C290120043
:0A0640009494CA840C0EBD1212003F
:10064A00396A39503724E96E000E3820EA6EEE52C4
:10065A000BE039503724E96E000E3820EA6EEECFEF
:0A066A003EF0D2DD392AEDD7120070
:100674003B6A050E3B5C0AE23B503924E16E000EF6
:100684003A20E26E200EE66E3B2AF3D73B50392423
:10069400E16E000E3A20E26EE66A3B063B503924D6
:1006A4003C6E000E3A203D6E0A0E046E000E056E7E
:1006B40037C000F038C001F0B0DD08C000F009C058
:1006C40001F0300E00263CC0E1FF3DC0E2FF00C057
:1006D400E6FF0A0E046E000E056E37C000F038C047
:1006E40001F09BDD00C037F001C038F0000E0118A6
:1006F40002E1000E001801E102D03B06CFD7120040
:100704001BEC04F0936A956A94809494966A816AC7
:10071400F28EF28CD08EF294F184F28A840ED56E2D
:100724007B0ED66EE10ED76EF294830ECD6ECE6A3A
:10073400CF6A9E90010EC26E0E0EC16EBE0EC06ECA
:10074400FADD010E3F6E93DC0C0E3F6E90DC010E61
:10075400376E010E386E1B0E396E000E3A6EAEDD2A
:10076400CA80CA92630ECB6E45DEFF0E376E70DD13
:1007740065DF376A48DF00C028F001C029F026DEB3
:100784008F0E046EC20E056E750E066E7C0E076E1D
:10079400A2DE34DE00C028F001C029F000C037F02A
:1007A40057DD28C000F029C001F010DE850E046E6C
:1007B400EB0E056E510E066E7D0E076E8CDE1EDE90
:1007C40000C028F001C029F000C037F001C038F0A3
:1007D4002D0E396E000E3A6E4BDF010E376E0B0E86
:1007E400386E2D0E396E000E3A6E68DD2AC037F071
:1007F4002BC038F02D0E396E000E3A6E39DF020E22
:10080400376E010E386E2D0E396E000E3A6E56DDBF
:0E081400160E376E000E386E16DFABD7FFD70C
:1008360010EE16F0140E006E010E016E220EF66E0C
:0E084600080EF76E000EF86EFDEC02F01200C8
:050822002052504D00C2
:0D08270044757479204379636C653A2000B4
:020834000000C2
:020000040030CA
:0D00010002191EFF8181FF0FC00FE00F40AC
:00000001FF
