:040000006EEF01F0AE
:100008009EA008D08170F50ECE6EFF0ECF6E9E902A
:06001800154A162A110032
:0A001E00210E0D6E0D2EFED712000C
:100028000F0E0C6E470E0D6E0D2EFED70C2EFCD744
:06003800000000001200B0
:06003E00000000001200AA
:100044003CBE02D0839E01D0838E3CBC02D0839CF4
:1000540001D0838C3CBA02D0839A01D0838A3CB805
:1000640002D0839801D0838833B002D0848401D035
:1000740084948482E2DF84923CB602D0839E01D0D1
:10008400838E3CB402D0839C01D0838C3CB202D0DA
:10009400839A01D0838A3CB002D0839801D08388AC
:1000A40033B002D0848401D084948482C6DF8492E5
:0C00B40033A002D0B7DF01D0B0DF120093
:0C00C00033903BC03CF0BEDF33801200E8
:1000CC00086A096A100E0C6E0134083609360450A1
:1000DC00085E0550D8A0053C095ED8B007D0045086
:1000EC0008260550D8B0053C0926D89000360136B4
:0600FC000C2EEAD71200F1
:100102000FD0800E346E19D0C00E346E16D0940EFD
:10011200346E13D0D40E346E10D0800E346E0DD0E7
:100122003450010AEEE03450020AEEE03450030A81
:10013200EEE03450040AEEE0F0D73504006E34509D
:10014200002600C034F000C03CF07BDF3390386AF8
:1001520038503624E96E000E3720EA6EEE520BE07C
:1001620038503624E96E000E3720EA6EEECF3BF0AF
:0A017200A6DF382AEDD73380120013
:10017C00969296949598959A959C959E8492849433
:10018C00839E839C839A839849DF48DF47DF838A69
:10019C00838884824EDF849241DF84824ADF84929A
:1001AC003DDF848246DF849239DF8398848241DF8D
:1001BC00849234DF84823DDF8492839A838E84829E
:1001CC0038DF84922BDF839E8388848232DF849293
:1001DC00839884822EDF849221DF84822ADF8492AA
:1001EC008388848226DF849219DF8398848221DFBE
:1001FC008492838E838C838A838884821ADF849290
:06020C000DDF338012003B
:10021200366A36503424E96E000E3520EA6EEE520C
:100222000BE036503424E96E000E3520EA6EEECF34
:0A0232003BF045DF362AEDD712003D
:10023C000900F5CFE6FF0006FBE10106F9E112002B
:10024C00386A050E385C0AE238503624E16E000E2E
:10025C003720E26E200EE66E382AF3D7385036245B
:10026C00E16E000E3720E26EE66A3806385036240E
:10027C00396E000E37203A6E0A0E046E000E056EB3
:10028C0034C000F035C001F01BDF08C000F009C01D
:10029C0001F0300E002639C0E1FF3AC0E2FF00C089
:1002AC00E6FF0A0E046E000E056E34C000F035C079
:1002BC0001F006DF00C034F001C035F0000E01186B
:1002CC0002E1000E001801E102D03806CFD712006F
:1002DC00B8EC01F0936A956A94809494966A816A5A
:1002EC000F0EC16E830ECD6EF50ECE6EFF0ECF6E61
:1002FC009D809E90CD809F80D08EF28EF28C38DFC8
:10030C00010E3C6E99DE0C0E3C6E96DE010E346EC8
:10031C00010E356E170E366E000E376EECDE15C004
:10032C0034F016C035F0290E366E000E376E88DFAD
:10033C00020E346E010E356E290E366E000E376EBF
:10034C00DADE240E346E000E356E5DDFE8D7FFD793
:1003700010EE15F0140E006E010E016E5C0EF66E9E
:0E038000030EF76E000EF86E1EEC01F0120078
:02035C0000009F
:0D035E0051746465204C6F7465733A200083
:05036B00205063730047
:020000040030CA
:0D00010002191EFF8181FF0FC00FE00F40AC
:00000001FF
