:100000001BEF05F00000000000EF00F00000000012
:0A0010000000000000000000F3D71C
:06001C00000000001200CC
:100022000F0E0C6E470E0D6E0D2EFED70C2EFCD74A
:06003200000000001200B6
:0A003800210E0D6E0D2EFED71200F2
:1000420071BE02D0839E01D0838E71BC02D0839C8C
:1000520001D0838C71BA02D0839A01D0838A71B89D
:1000620002D0839801D0838850B002D0848401D01A
:1000720084948482D2DF849271B602D0839E01D0AE
:10008200838E71B402D0839C01D0838C71B202D072
:10009200839A01D0838A71B002D0839801D0838879
:1000A20050B002D0848401D084948482B6DF8492DA
:0C00B20050A002D0B5DF01D0BEDF12006C
:0800BE000AAE029E000E1200C2
:1000C6000B840BAE6EEF00F0010E036E026A016A3E
:0A00D600006A0A360232FF0E120023
:1000E0000FD0800E6E6E19D0C00E6E6E16D0940EAC
:1000F0006E6E13D0D40E6E6E10D0800E6E6E0DD05C
:100100006E50010AEEE06E50020AEEE06E50030AF5
:10011000EEE06E50040AEEE0F0D76F04006E6E5011
:10012000002600C06EF0508000C071F08ADF509051
:0A01300070C071F086DF50801200ED
:0E013A00026A016A006A086A036A000E120077
:10014800C7B409D01F0EC514016E0150000A03E19F
:0A015800010E006E01D0006A1200D3
:0C01620050906EC071F06CDF50801200F5
:10016E009E9669C0C9FFC7A401D0FDD79EB601D027
:10017E00FDD7C5BC02D0006A03D0C584020E006E46
:02018E0012005D
:100190000B800BAED4EF00F0026A0AAEFF0E026EC7
:0C01A000016E006E0A360232FF0E1200E3
:1001AC000B6A0A6A096A00500402F4CF09F0F3CF13
:1001BC0008F001500502F4CF0BF0F3CF0AF0005019
:1001CC000502F3500926F4500A22E86A0B2201506A
:1001DC000402F3500926F4500A22E86A0B2208C0E4
:1001EC0000F009C001F00AC002F00BC003F01200CD
:0C01FC000E0E0D6E0D2EFED7000012003E
:100208006BC070F07032709E7032709E7032709E4B
:100218007032709E300E702669C06EF06AC06FF042
:100228005BDF0F0E6B146E6E300E6E2696DF1200BB
:0A023800C582C5A201D0FDD7120057
:100242000FD0800E696E19D0C00E696E16D0940E52
:10025200696E13D0D40E696E10D0800E696E0DD007
:100262006950010AEEE06950020AEEE06950030AA1
:10027200EEE06950040AEEE0F0D76A04006E6950BD
:10028200002600C069F000C071F0DADE50906D6A9D
:100292006D506B24E96E000E6C20EA6EEE520BE09C
:1002A2006D506B24E96E000E6C20EA6EEECF6EF09C
:0A02B20057DF6D2AEDD750801200CF
:1002BC000B820BAE68EF01F00368026801680068FE
:0802CC000A360232FF0E120097
:1002D400A6A202D00000FCD7A69C69C0A9FF6AC0F0
:1002E400A8FFA69EA684F2CF00F0F29E550EA76E3C
:1002F400AA0EA76EA68200BE02D0F29E01D0F28E94
:04030400A6941200A9
:100308009E96C5869EB601D0FDD7C9CF01F069502B
:10031800000A02E1C58A01D0C59A9E96C5889EB694
:0A03280001D0FDD701C000F0120063
:10033200086A096A100E0C6E013408360936045038
:10034200085E0550D8A0053C095ED8B007D004501D
:1003520008260550D8B0053C0926D890003601364B
:060362000C2EEAD7120088
:100368000C6A0E6A0250D8A4CDEF01F001C002F069
:1003780000C001F0006A0E860250D8A4CDEF01F04B
:1003880001C002F0016A0E960E880250D8B4DFEF61
:1003980001F00E50035ED8A4D8A0E4EF01F0D89085
:1003A80002BEE9EF01F0003601360236032ED4EF23
:1003B80001F0E4EF01F0010E0C6EBBDEECEF01F092
:1003C800020E0C6E7CDEECEF01F0040E0C6E73DE98
:0203D800120011
:1003DA00A69C69C0A9FFA69EA680A8CF00F012001D
:1003EA00949894968B988B9694889486C79EC79C6B
:0603FA00380EC66E120071
:10040000696A6A6A6A50120802E169508E0807E355
:100410009BDE005201E003D0694A6A2AF3D7120E2C
:100420006A5C02E18F0E695C03E37B0E006E05D00F
:0C043000C580C5A001D0FDD7006A1200F5
:04043C00C584120061
:100440000900F5CFE6FF0006FBE10106F9E1120025
:08045000BE6ABD98BD9A1200BE
:10045800400E716EF2DD626A6250070811E30F0EFA
:100468006224F66E0E0EF76E000EF722000EF86E7E
:10047800000EF8220900F5CF6EF06FDE622AECD785
:02048800120060
:0A048A009494CA840C0EBD121200F7
:1004940062C069F00A0E046E000E056E15C000F00D
:1004A40016C001F044DF0050300F6A6E11DF0A0EEF
:1004B400046E000E056E15C000F016C001F037DFA3
:1004C40008C000F009C001F06250010F696E0050CD
:0804D400300F6A6EFDDE12001C
:1004DC00140EC86E84DF8EDFD00E696E42DE696A40
:1004EC0040DE696A3EDE696A3CDE210E696E39DEE9
:1004FC00040E696E36DE070E696E33DE170E696EFA
:06050C0030DE96DF120054
:10051200969296949598959A959C959E8492849499
:10052200839E839C839A83987BDD7ADD79DD838A3F
:100532008388848272DD849273DD84826EDD84928C
:100542006FDD84826ADD84926BDD8398848265DD4F
:10055200849266DD848261DD8492839A838E8482B2
:100562005CDD84925DDD839E8388848256DD849285
:100572008398848252DD849253DD84824EDD84929C
:10058200838884824ADD84924BDD8398848245DDB0
:100592008492838E838C838A838884823EDD8492D4
:0605A2003FDD5080120055
:0A05A8009484CA94F00EBD161200F0
:1005B200010E696E010E6A6E42C06BF024DE3A0EC5
:1005C2006E6ECEDD010E696E040E6A6E41C06BF076
:1005D2001ADE3A0E6E6EC4DD010E696E070E6A6E89
:1005E20044C06BF010DE020E696E010E6A6E43C0EB
:1005F2006BF009DE2F0E6E6EB3DD020E696E040E15
:100602006A6E40C06BF0FFDD2F0E6E6EA9DD020E2A
:0E061200696E070E6A6E3FC06BF0F5DD1200D8
:100620000050086E0150006E016A026A036A0B6A8C
:100630000C6A960E036E0A6A00C001F008C000F052
:08064000086A026A91DE120053
:10064800DBDED00E696E8FDD696A8DDDF1DDD10EDE
:10065800696E89DD010E696E53DE00C044F0010E3B
:10066800696E4EDE00C041F0010E696E49DE00C0C1
:1006780042F0010E696E44DE00C045F0010E696E5D
:100688003FDE00C043F0010E696E3ADE00C040F064
:0C069800696A36DE00C03FF0CDDE1200C3
:1006A400666A050E665C0AE266506424E16E000E1A
:1006B4006520E26E200EE66E662AF3D76650642447
:1006C400E16E000E6520E26EE66A660666506424FA
:1006D400676E000E6520686E0A0E046E000E056ECD
:1006E40062C000F063C001F022DE08C000F009C05F
:1006F40001F0300E002667C0E1FF68C0E2FF00C0D1
:10070400E6FF0A0E046E000E056E62C000F063C0C0
:1007140001F00DDE00C062F001C063F0000E0118AC
:1007240002E1000E001801E102D06606CFD71200E4
:10073400C26A070EC012C08E62C000F0003600907C
:10074400003600900050C212C28056DDC282C2A29E
:1007540001D0FDD7C4CF01F0006AC3500012000ECF
:060764000112C290120018
:10076A00CB50010F006E016A000E012262C004F034
:10077A00000E056E16DD060E026E00C004F001C002
:10078A0005F0025005E005320432059EFF0FFAD744
:10079A00040E016E04C000F0015004E0003600901F
:1007AA00FF0FFBD7300E0014036E04C000F005C023
:1007BA0001F001320032019E01320032019E00C076
:0C07CA00BEFF0F0EBD160350BD12120042
:1007D600010E696E010E6A6E170E6B6E000E6C6E60
:1007E6002DDD626A636A800E6318006E800E005CFF
:1007F60002E10F0E625C1BE262C069F0EBDD00C035
:1008060070F0020E6E6E6250010F6F6E66DC020EA5
:100816000B6E040E0C6EBA0E0D6E0D2EFED70C2E40
:10082600FCD70B2EFAD70000624A632ADCD71200E7
:10083600086A096A000E07620364A0EF04F002501A
:1008460006180A6E075003267E0ED8A031EF04F074
:10085600035ED8B0A5EF04F035EF04F0035ED8A030
:10086600A9EF04F0028E068E02C00EF001C00BF056
:1008760000C00DF000500402F4CF0CF00150050248
:10088600F4CF00F0F3CF08F00402F3500C26F45036
:100896000822000E00220D500502F3500C26F450DB
:1008A6000822000E002202500402F3500826F450DB
:1008B600002202500502016A000E0122F3500026B2
:1008C600F45001220D500602F3500826F45000227F
:1008D600026A000E012202220B500602F350002685
:1008E600F4500122000E02220E500602F350012699
:1008F600F450022202BE88EF04F0083600360136B4
:1009060002360306D8B4A9EF04F09BEF04F0D880B2
:10091600800E08640030000E002201220222D8A0B8
:100926009BEF04F0023201320032034AA5EF04F0D5
:100936000AAE029E000EACEF04F0010E9DEC00F034
:10094600ACEF04F0020EB7DCACEF04F0040E63EC7F
:0409560000F012009B
:10095A000B6A0C6A0A6A0350D8B4F7EF04F0028EE5
:10096A008E0E035E03BEBFEF04F0D8B4BFEF04F0EF
:10097A00FBEF04F0036C080E035CD8A0D6EF04F07A
:10098A00036E013602C001F0026A080E035CD8A0A9
:10099A00D6EF04F00136016A0350D8A4D890E0EFEC
:1009AA0004F00350D8B4E0EF04F0D89002320132D8
:1009BA00032EDAEF04F00BBC01A0EDEF04F0D8A08F
:1009CA00EDEF04F0012AD8B4022A02BE0AEF05F0BC
:1009DA000AAE10EF05F0021E011E012AD8B4022A3F
:1009EA0010EF05F0026A016A10EF05F00B800BAEFA
:1009FA0014EF05F0026A0AAE14EF05F0FF0E026E5C
:100A0A00016E0A36023214EF05F0010E0C6EC8ECC4
:100A1A0000F016EF05F0000E0C6E16EF05F0FF0E53
:0C0A2A000C6E0150006E0250016E1200B4
:100A36000CEC07F03F0E516E060E526E5B0E536EB7
:100A46004F0E546E660E556E6D0E566E7D0E576EBB
:100A5600070E586E7F0E596E6F0E5A6E5B6A5C6A91
:100A6600640E5D6E5E6A5F6A938693889298929A28
:100A7600946A936A956A949A966A010EC26E0C0EEF
:100A8600C16EBE0EC06ED59AD596D584D582D59048
:100A9600D59C480ECF6EE40ECE6EF294D58E36DD22
:100AA600010E716E21EC00F00C0E716E21EC00F05F
:100AB60012DDCFDC829AF2A424D0480ECF6EE40E6B
:100AC600CE6EF294010E716E21EC00F00C0E716E7A
:100AD60021EC00F07DDE060E0B6E130E0C6EAD0ED5
:100AE6000D6E0D2EFED70C2EFCD70B2EFAD700005E
:100AF6000000010E716E21EC00F00C0E716E21ECFF
:100B060000F081B616D0020E696E0B0E6A6E300EBC
:100B16006B6E000E6C6E21EC01F06C0E5D6E828ABF
:100B2600060E0C6E300E0D6E0D2EFED70C2EFCD75B
:100B360000005D506C0A0BE1020E696E0B0E6A6EC8
:100B46002B0E6B6E000E6C6E21EC01F00DD05D501D
:100B5600640A0AE1020E696E0B0E6A6E3A0E6B6E3D
:100B6600000E6C6E21EC01F081B816D0020E696E93
:100B76000B0E6A6E350E6B6E000E6C6E21EC01F07C
:100B8600829A060E0C6E300E0D6E0D2EFED70C2EB2
:100B9600FCD70000640E5D6E020E626EC8DD00C0FA
:100BA60027F001C028F000C027F001C028F0283245
:100BB6002732289EFBDC45DD27C062F028C063F0A3
:100BC600460E646E000E656E6ADD010E696E080ED5
:100BD6006A6E460E6B6E000E6C6E21EC01F06E6A4C
:100BE600B1EC00F0430E6E6EB1EC00F027C015F0CC
:100BF60028C016F06150281802E12750601804E05A
:100C060027C060F028C061F0626A91DD00C029F05B
:100C160001C02AF002DD8F0E046EC20E056E750E3F
:100C2600066E7C0E076E04DE95DE00C029F001C05C
:100C36002AF000C062F096DD29C000F02AC001F05B
:100C4600ECDC850E046EEB0E056E510E066E7D0E07
:100C5600076EEEDD7FDE00C029F001C02AF0000E2F
:100C6600026E0150025C02E10050630804E2630E6A
:100C7600296E000E2A6E0A0E046E000E056E29C03D
:100C860000F02AC001F099EC01F008C000F009C09C
:100C960001F0510E0024E96E000E0120EA6EEECF3F
:100CA60083FF808A060E0C6E300E0D6E0D2EFED75B
:100CB6000C2EFCD70000809A0A0E046E000E056EFC
:100CC60029C000F02AC001F099EC01F000C029F01B
:100CD60001C02AF00A0E046E000E056E99EC01F0B2
:100CE60008C000F009C001F0510E0024E96E000EA4
:100CF6000120EA6EEECF83FF8088060E0C6E300E62
:100D06000D6E0D2EFED70C2EFCD7000080980A0E15
:100D1600046E000E056E29C000F02AC001F099ECA1
:100D260001F000C029F001C02AF0000E006E165036
:100D3600005C02E11550280822E2CA80CA92630EBE
:100D4600CB6E28EC02F045EC02F0626AF0DC00C0E3
:100D560027F001C028F061DC8F0E046EC20E056E0E
:100D6600750E066E7C0E076E63DDF4DD00C027F09F
:100D760001C028F000C062F0F5DC829202D08282C7
:100D860010DC16505F1802E15E5015181FE015C002
:100D96005EF016C05FF05BC062F05CC063F04AECC8
:100DA60002F0030E5B24016E000E5C20026E01C091
:100DB6005BF002C05CF0800E006E800E0218005CD4
:100DC60002E10150100802E25B6A5C6A74D6FFD742
:100E180010EE15F02A0E006E010E016ED60EF66E5B
:0E0E28000D0EF76E000EF86E20EC02F01200B8
:020DD60000001B
:100DD8004C69646F20646120454550524F4D200096
:020DE800000009
:020DEA00000007
:050DEC004C49474100E5
:050DF1004C49474100E0
:050DF6004445534C00D0
:050DFB004445534C00CB
:0A0E00003F065B4F666D7D077F6FB4
:020E0A000000E6
:010E0C006481
:020E0D000000E3
:080E0F000705070000000000C8
:020000040030CA
:0D000100021F1EFF8381FF0FC00FE00F40A4
:00000001FF
