:1000000031EF00F00000000000EF00F00000000001
:0A0010000000000000000000F3D71C
:10001C00086A096A100E0C6E013408360936045051
:10002C00085E0550D8A0053C095ED8B007D0045036
:10003C0008260550D8B0053C0926D8900036013664
:06004C000C2EEAD71200A1
:100052000900F5CFE6FF0006FBE10106F9E1120017
:100062003F0E196E060E1A6E5B0E1B6E4F0E1C6E45
:10007200660E1D6E6D0E1E6E7D0E1F6E070E206EBD
:100082007F0E216E6F0E226E0F0EC16E92949296AB
:100092009298929A956A156A166AB18EB18AB18857
:1000A200B1920B0EB36EDC0EB26EA192B180A1A220
:1000B2000FD00B0EB36EDC0EB26EA192154A162A49
:1000C2001650270802E115500F0802E2156A166A57
:1000D20015C017F016C018F00A0E046E000E056E59
:1000E20015C000F016C001F098DF08C000F009C08A
:1000F20001F0190E0024E96E000E0120EA6EEECF27
:1001020083FF808A060E0C6E300E0D6E0D2EFED70A
:100112000C2EFCD70000809A0A0E046E000E056EAB
:1001220017C000F018C001F078DF00C017F001C05E
:1001320018F00A0E046E000E056E6FDF08C000F0A4
:1001420009C001F0190E0024E96E000E0120EA6ECA
:10015200EECF83FF8088060E0C6E300E0D6E0D2ED4
:10016200FED70C2EFCD7000080980A0E046E000EFB
:10017200056E17C000F018C001F04FDF00C017F085
:1001820001C018F00A0E046E000E056E46DF08C0AC
:1001920000F009C001F0190E0024E96E000E0120E2
:1001A200EA6EEECF83FF8086060E0C6E300E0D6E69
:1001B2000D2EFED70C2EFCD7000080960A0E046E80
:1001C200000E056E17C000F018C001F026DF00C057
:1001D20017F001C018F00A0E046E000E056E1DDF46
:1001E20008C000F009C001F0190E0024E96E000EEB
:1001F2000120EA6EEECF83FF8084060E0C6E300E75
:100202000D6E0D2EFED70C2EFCD7000080944FD71A
:02021200FFD714
:020000040030CA
:0D00010002191EFF8181FF0FC00FE00F40AC
:00000001FF
