:1000000056EF00F00000000000EF00F000000000DC
:0A0010000000000000000000F3D71C
:0E001C00ACB202D00000FCD726C0ADFF12002F
:10002A001C0E1D6E000E1E6E260E1F6E000E206E1A
:10003A009A0E196E000E1A6E000E1B6E000E1C6EC2
:10004A00900E156E000E166E000E176E000E186ECC
:10005A00FF0E216EFF0E226E000E236E000E246E1E
:10006A00AC8A900EAB6E948E949C9EAA03D0AECFAF
:06007A0000F0FBD71200AC
:100080000900F5CFE6FF0006FBE10106F9E11200E9
:0A009000000E9EBA010E006E120071
:10009A00AECF25F0ABA202D0AB98AB8825C000F05A
:0200AA00120042
:1000AC00010EC26ECE0EC16EBE0EC06E956A836A14
:1000BC00330EAF6EAC84B3DFE5DF005204E0E7DF54
:1000CC0000C026F0A5DF020E0B6E040E0C6EBA0EED
:1000DC000D6E0D2EFED70C2EFCD70B2EFAD7000072
:0400EC00EBD7FFD778
:020000040030CA
:0D00010002191EFF8181FF0FC00FE00F40AC
:00000001FF
