:1000000012EF02F00000000000EF00F0000000001E
:0A0010000000000000000000F3D71C
:08001C000AAE029E000E120064
:100024000B840BAE1DEF00F0010E036E026A016A31
:0A003400006A0A360232FF0E1200C5
:0E003E00026A016A006A086A036A000E120074
:10004C000C6A0E6A0250D8A43FEF00F001C002F017
:10005C0000C001F0006A0E860250D8A43FEF00F0F9
:10006C0001C002F0016A0E960E880250D8B451EF0E
:10007C0000F00E50035ED8A4D8A056EF00F0D89034
:10008C0002BE5BEF00F0003601360236032E46EF5F
:10009C0000F056EF00F0010E0C6ECBDF5EEF00F0BF
:1000AC00020E0C6EB9DF5EEF00F0040E0C6EB0DFCA
:0200BC00120030
:0C00BE000E0E0D6E0D2EFED7000012007D
:1000CA000B6A0A6A096A00500402F4CF09F0F3CFF6
:1000DA0008F001500502F4CF0BF0F3CF0AF00050FC
:1000EA000502F3500926F4500A22E86A0B2201504D
:1000FA000402F3500926F4500A22E86A0B2208C0C7
:10010A0000F009C001F00AC002F00BC003F01200AF
:10011A000B800BAE99EF00F0026A0AAEFF0E026E78
:0C012A00016E006E0A360232FF0E120059
:100136000B820BAEA5EF00F0036802680168006849
:080146000A360232FF0E12001E
:10014E00C26A070EC012C08E15C000F000360090B5
:10015E00003600900050C212C280AADFC282C2A234
:10016E0001D0FDD7C4CF01F0006AC3500012000EBB
:06017E000112C290120004
:10018400CB50010F006E016A000E012215C004F06D
:10019400000E056E98DF060E026E00C004F001C06A
:1001A40005F0025005E005320432059EFF0FFAD730
:1001B400040E016E04C000F0015004E0003600900B
:1001C400FF0FFBD7300E0014036E04C000F005C00F
:1001D40001F001320032019E01320032019E00C062
:0C01E400BEFF0F0EBD160350BD1212002E
:0A01F0009494CA840C0EBD12120094
:1001FA00086A096A000E0762036482EF01F002507E
:10020A0006180A6E075003267E0ED8A013EF01F0D7
:10021A00035ED8B086EF01F017EF01F0035ED8A0B5
:10022A008AEF01F0028E068E02C00EF001C00BF0BA
:10023A0000C00DF000500402F4CF0CF0015005028A
:10024A00F4CF00F0F3CF08F00402F3500C26F45078
:10025A000822000E00220D500502F3500C26F4501D
:10026A000822000E002202500402F3500826F4501D
:10027A00002202500502016A000E0122F3500026F4
:10028A00F45001220D500602F3500826F4500022C1
:10029A00026A000E012202220B500602F3500026C7
:1002AA00F4500122000E02220E500602F3500126DB
:1002BA00F450022202BE6AEF01F008360036013617
:1002CA0002360306D8B48AEF01F07DEF01F0D88038
:1002DA00800E08640030000E002201220222D8A0FB
:1002EA007DEF01F0023201320032034A86EF01F05B
:1002FA000AAE029E000E8CEF01F0010E9BDE8CEF1F
:10030A0001F0020E13DF8CEF01F0040E86DE1200FC
:10031A000B6A0C6A0A6A0350D8B4D7EF01F0028E4E
:10032A008E0E035E03BE9FEF01F0D8B49FEF01F07B
:10033A00DBEF01F0036D080E035CD8A0B6EF01F005
:10034A00036E013602C001F0026A080E035CD8A0EF
:10035A00B6EF01F00136016A0350D8A4D890C0EF75
:10036A0001F00350D8B4C0EF01F0D8900232013244
:10037A00032EBAEF01F00BBC01A0CDEF01F0D8A01B
:10038A00CDEF01F0012AD8B4022A02BEEAEF01F049
:10039A000AAEEFEF01F0021E011E012AD8B4022AAA
:1003AA00EFEF01F0026A016AEFEF01F00B800BAE8A
:1003BA00F3EF01F0026A0AAEF3EF01F0FF0E026EEC
:1003CA00016E0A360232F3EF01F0010E0C6EA0DE66
:1003DA00F5EF01F0000E0C6EF5EF01F0FF0E0C6E5A
:0A03EA000150006E0250016E120077
:0803F400BE6ABD98BD9A12001B
:1003FC000050086E0150006E016A026A036A0B6AB3
:10040C000C6A960E036E0A6A00C001F008C000F078
:08041C00086A026A15DE1200F5
:10042400FF0E806EFF0E926E010EC26ECE0EC16E76
:10043400BE0EC06ECA80CA92630ECB6ED9DFD6DE02
:10044400156A83DED9DF8F0E046EC20E056E750E3B
:10045400066E7C0E076ECFDE5EDF00C015F090DE08
:04046400EFD7FFD7F8
:020000040030CA
:0D00010002191EFF8181FF0FC00FE00F40AC
:00000001FF
