:1000000031EF00F00000000000EF00F00000000001
:0A0010000000000000000000F3D71C
:10001C00086A096A100E0C6E013408360936045051
:10002C00085E0550D8A0053C095ED8B007D0045036
:10003C0008260550D8B0053C0926D8900036013664
:06004C000C2EEAD71200A1
:100052000900F5CFE6FF0006FBE10106F9E1120017
:100062003F0E196E060E1A6E5B0E1B6E4F0E1C6E45
:10007200660E1D6E6D0E1E6E7D0E1F6E070E206EBD
:100082007F0E216E6F0E226E810EC26ECE0EC16E7B
:10009200929492969298929A956AC2B208D0C4CFDC
:1000A20016F0156AC3501512000E1612C28215C040
:1000B20017F016C018F0956A0A0E046E000E056E4F
:1000C20015C000F016C001F0A8DF08C000F009C09A
:1000D20001F0190E0024E96E000E0120EA6EEECF47
:1000E20083FF808A060E0C6E300E0D6E0D2EFED72B
:1000F2000C2EFCD70000809A0A0E046E000E056ECC
:1001020017C000F018C001F088DF00C017F001C06E
:1001120018F00A0E046E000E056E7FDF08C000F0B4
:1001220009C001F0190E0024E96E000E0120EA6EEA
:10013200EECF83FF8088060E0C6E300E0D6E0D2EF4
:10014200FED70C2EFCD7000080980A0E046E000E1B
:10015200056E17C000F018C001F05FDF00C017F095
:1001620001C018F00A0E046E000E056E56DF08C0BC
:1001720000F009C001F0190E0024E96E000E012002
:10018200EA6EEECF83FF8086060E0C6E300E0D6E89
:100192000D2EFED70C2EFCD7000080960A0E046EA0
:1001A200000E056E17C000F018C001F036DF00C067
:1001B20017F001C018F00A0E046E000E056E2DDF56
:1001C20008C000F009C001F0190E0024E96E000E0B
:1001D2000120EA6EEECF83FF8084060E0C6E300E95
:1001E2000D6E0D2EFED70C2EFCD70000809455D735
:0201F200FFD735
:020000040030CA
:0D00010002191EFF8181FF0FC00FE00F40AC
:00000001FF
