:1000000031EF00F00000000000EF00F00000000001
:0A0010000000000000000000F3D71C
:10001C00086A096A100E0C6E013408360936045051
:10002C00085E0550D8A0053C095ED8B007D0045036
:10003C0008260550D8B0053C0926D8900036013664
:06004C000C2EEAD71200A1
:100052000900F5CFE6FF0006FBE10106F9E1120017
:10006200300E1B6E310E1C6E320E1D6E330E1E6E66
:10007200340E1F6E350E206E360E216E370E226E36
:10008200380E236E390E246E0F0EC16E938693883E
:1000920096929694929492969298929A956A156AEA
:1000A200166A176A186A8494380E836E84821A0E4E
:1000B2000D6E0D2EFED700008492270E0C6EF50EEB
:1000C2000D6E0D2EFED70C2EFCD78494380E836E47
:1000D20084821A0E0D6E0D2EFED700008492270E1A
:1000E2000C6EF50E0D6E0D2EFED70C2EFCD78494E1
:1000F2000C0E836E8482050E0C6E260E0D6E0D2E76
:10010200FED70C2EFCD700008492270E0C6EF50E43
:100112000D6E0D2EFED70C2EFCD78494010E836E2D
:100122008482050E0C6E260E0D6E0D2EFED70C2E41
:10013200FCD70000849281B611D01550000A0EE15E
:10014200010E156E174A182A1850270802E1175097
:100152000F0804E20F0E176E270E186E81A604D048
:100162001550010A01E1156A81B811D01650000A32
:100172000EE1010E166E010E175E000E185A18508F
:10018200270802E117500F0802E2176A186A81A8CD
:1001920004D01650010A01E1166A17C019F018C0FE
:1001A2001AF08494800E836E84821A0E0D6E0D2EC8
:1001B200FED7000084928484430E836E84821A0EDA
:1001C2000D6E0D2EFED7000084928494810E836EF4
:1001D20084821A0E0D6E0D2EFED700008492848446
:1001E2004F0E836E84821A0E0D6E0D2EFED7000006
:1001F20084928494820E836E84821A0E0D6E0D2E6A
:10020200FED70000849284844E0E836E84821A0E7E
:100212000D6E0D2EFED7000084928494830E836EA1
:1002220084821A0E0D6E0D2EFED7000084928484F5
:10023200540E836E84821A0E0D6E0D2EFED70000B0
:1002420084928494840E836E84821A0E0D6E0D2E17
:10025200FED70000849284843A0E836E84821A0E42
:100262000D6E0D2EFED7000084928494C30E836E11
:1002720084821A0E0D6E0D2EFED7000084928484A5
:100282000A0E046E000E056E19C000F01AC001F0CD
:10029200C4DE08C000F009C001F01B0E0024E96EA4
:1002A200000E0120EA6EEECF83FF0A0E046E000EEE
:1002B200056E19C000F01AC001F0AFDE00C019F0DF
:1002C20001C01AF084821A0E0D6E0D2EFED70000A8
:1002D20084928494C20E836E84821A0E0D6E0D2E49
:1002E200FED70000849284840A0E046E000E056E0E
:1002F20019C000F01AC001F090DE08C000F009C079
:1003020001F01B0E0024E96E000E0120EA6EEECF12
:1003120083FF0A0E046E000E056E19C000F01AC0AB
:1003220001F07BDE00C019F001C01AF084821A0EBF
:100332000D6E0D2EFED7000084928494C10E836E42
:1003420084821A0E0D6E0D2EFED7000084928484D4
:100352000A0E046E000E056E19C000F01AC001F0FC
:100362005CDE08C000F009C001F01B0E0024E96E3B
:10037200000E0120EA6EEECF83FF0A0E046E000E1D
:10038200056E19C000F01AC001F047DE00C019F076
:1003920001C01AF084821A0E0D6E0D2EFED70000D7
:1003A20084928494C00E836E84821A0E0D6E0D2E7A
:1003B200FED70000849284840A0E046E000E056E3D
:1003C20019C000F01AC001F028DE08C000F009C010
:1003D20001F01B0E0024E96E000E0120EA6EEECF42
:1003E20083FF84821A0E0D6E0D2EFED700008492BA
:0403F200A2D6FFD7B9
:020000040030CA
:0D00010002191EFF8181FF0FC00FE00F40AC
:00000001FF
