:1000000076EF02F00000000000EF00F000000000BA
:0A0010000000000000000000F3D71C
:06001C00000000001200CC
:100022000F0E0C6E470E0D6E0D2EFED70C2EFCD74A
:06003200000000001200B6
:0A003800210E0D6E0D2EFED71200F2
:1000420066BE02D0839E01D0838E66BC02D0839CA2
:1000520001D0838C66BA02D0839A01D0838A66B8B3
:1000620002D0839801D083885CB002D0848401D00E
:1000720084948482D2DF849266B602D0839E01D0B9
:10008200838E66B402D0839C01D0838C66B202D088
:10009200839A01D0838A66B002D0839801D0838884
:1000A2005CB002D0848401D084948482B6DF8492CE
:0C00B2005CA002D0B5DF01D0BEDF120060
:1000BE00C7B409D01F0EC514016E0150000A03E12A
:0A00CE00010E006E1200006A12001D
:0C00D8005C9063C066F0B1DF5C80120039
:1000E4000FD0800E636E19D0C00E636E16D0940EBE
:1000F400636E13D0D40E636E10D0800E636E0DD079
:100104006350010AEEE06350020AEEE06350030A12
:10011400EEE06350040AEEE0F0D76404006E63502E
:10012400002600C063F05C8000C066F088DF5C904D
:0A01340065C066F084DF5C801200F5
:10013E0060C065F06532659E6532659E6532659E6E
:10014E006532659E300E65265EC063F05FC064F05A
:10015E00C2DF0F0E6014636E300E6326B6DF120020
:10016E009E96C5869EB601D0FDD7C9CF01F05E50D2
:10017E00000A02E1C58A01D0C59A9E96C5889EB630
:0A018E0001D0FDD701C000F01200FF
:1001980023D03E0E566E000E576E31D04C0E566E62
:1001A800000E576E2CD0460E566E000E576E27D096
:1001B800370E566E000E576E22D0290E566E000E60
:1001C800576E1DD0230E566E000E576E18D0300E87
:1001D800566E000E576E13D05D50010ADAE05D507E
:1001E800020ADCE05D50030ADEE05D50040AE0E04C
:1001F8005D50050AE2E05D50060AE4E0E8D7120027
:0A020800C582C5A201D0FDD7120087
:100212005E6A5F6A5F50120802E15E508E0807E371
:100222004DDF005201E003D05E4A5F2AF3D7120E7F
:100232005F5C02E18F0E5E5C03E37B0E006E1200D8
:0C024200C580C5A001D0FDD7006A1200E5
:04024E00C584120051
:10025200949894968B988B9694889486C79EC79C04
:06026200380EC66E12000A
:100268009E965EC0C9FFC7A401D0FDD79EB601D037
:10027800FDD7C5BC02D0006A1200C584020E006E0C
:02028800120062
:10028A000FD0800E5E6E19D0C00E5E6E16D0940E20
:10029A005E6E13D0D40E5E6E10D0800E5E6E0DD0E0
:1002AA005E50010AEEE05E50020AEEE05E50030A7A
:1002BA00EEE05E50040AEEE0F0D75F04006E5E5096
:1002CA00002600C05EF000C066F0B6DE5C90626A8E
:1002DA0062506024E96E000E6120EA6EEE520BE075
:1002EA0062506024E96E000E6120EA6EEECF63F080
:0A02FA00EEDE622AEDD75C801200F0
:10030400969296949598959A959C959E84928494A9
:10031400839E839C839A839882DE81DE80DE838A37
:100324008388848279DE84927ADE848275DE849284
:1003340076DE848271DE849272DE839884826CDE3F
:1003440084926DDE848268DE8492839A838E8482B2
:1003540063DE849264DE839E838884825DDE84927D
:100364008398848259DE84925ADE848255DE849294
:100374008388848251DE849252DE839884824CDEA8
:100384008492838E838C838A8388848245DE8492DC
:0603940046DE5C80120051
:10039A00140EC86E59DF38DFD00E5E6E60DF5E6AFB
:1003AA005EDF040E5E6E5BDF120E5E6E58DF090EB4
:1003BA005E6E55DF030E5E6E52DF150E5E6E4FDF08
:1003CA00070E5E6E4CDF090E5E6E49DF3BDF1200E0
:1003DA00010E5E6E010E5F6E1C0E606E000E616E87
:1003EA004FDF010E5E6E070E5F6E59C060F0A2DE2F
:1003FA003A0E636E6CDE010E5E6E0A0E5F6E5BC0B5
:10040A0060F098DE3A0E636E62DE010E5E6E0D0ECD
:10041A005F6E5AC060F08EDE020E5E6E010E5F6E77
:10042A00150E606E000E616E2BDF020E5E6E070EF9
:10043A005F6E55C060F07EDE2F0E636E48DE020EE0
:10044A005E6E0A0E5F6E54C060F074DE2F0E636E2D
:10045A003EDE020E5E6E0D0E5F6E58C060F06ADE02
:10046A0096DE030E5E6E010E5F6E56C060F057C0D8
:06047A0061F006DF120034
:10048000C8DED00E5E6EF0DE5E6AEEDEBDDED10E40
:100490005E6EEADE010E5E6E6ADE00C05AF0010E8C
:1004A0005E6E65DE00C05BF0010E5E6E60DE00C059
:1004B00059F0010E5E6E5BDE00C05DF0010E5E6EF7
:1004C00056DE00C055F0010E5E6E51DE00C054F0E5
:0C04D0005E6A4DDE00C058F0BADE12007B
:1004DC000900F5CFE6FF0006FBE10106F9E1120089
:1004EC00B9EC02F0926A936A946A956A966A0F0E56
:1004FC00C16E070EB46E00DF010E666E9CDD0C0E35
:10050C00666E99DD44DF63DFB5DF030E0B6E080EFC
:10051C000C6E770E0D6E0D2EFED70C2EFCD70B2EFF
:06052C00FAD7F1D7FFD75A
:1005720010EE15F03F0E006E010E016E320EF66E99
:0E058200050EF76E000EF86E6EEC02F0120021
:0705320028446174612900F7
:0705390028486F72612900E0
:0605400053455854410030
:070546005155494E544100DC
:07054D0053414241444F00FD
:0705540051554152544100D2
:08055B00444F4D494E474F008B
:0605630054455243410023
:08056900534547554E44410083
:020000040030CA
:0D00010002191EFF8181FF0FC00FE00F40AC
:00000001FF
