:1000000084EF00F00000000000EF00F000000000AE
:0A0010000000000000000000F3D71C
:0C001C000E0E0D6E0D2EFED7000012001F
:100028000900F5CFE6FF0006FBE10106F9E1120041
:10003800FA0E196E000E1A6E3B0E1B6E000E1C6E29
:10004800FF0E156EFF0E166E000E176E000E186E60
:10005800FF0E216EFF0E226E000E236E000E246E20
:10006800FF0E1D6EFF0E1E6E000E1F6E000E206E20
:10007800AC8A900EAB6E948E949C9EAA03D0AECFA1
:0600880000F0FBD712009E
:10008E00086A096A100E0C6E0134083609360450DF
:10009E00085E0550D8A0053C095ED8B007D00450C4
:1000AE0008260550D8B0053C0926D89000360136F2
:0600BE000C2EEAD712002F
:1000C400C26A070EC012C08E3BC000F0003600901A
:1000D400003600900050C212C2809EDFC282C2A2CB
:1000E40001D0FDD7C4CF01F0006AC3500012000E46
:0600F4000112C29012008F
:0E00FA00ACB202D00000FCD73BC0ADFF12003C
:10010800EE0EF66E030EF76E000EF86E250EE16E1B
:10011800000EE26E100E006E010E016E81DF010E00
:10012800C26ECE0EC16EBE0EC06E956A836A330E65
:10013800AF6EAC847DDF3B6AC1DF00C039F001C01F
:100148003AF0100E046E000E056E9DDF08C000F038
:1001580009C001F0250E0024E96E000E0120EA6EA8
:10016800EECF38F039C000F03AC001F00132003269
:10017800019E01320032019E01320032019E01329D
:100188000032019E00C039F001C03AF0100E046E32
:10019800000E056E78DF08C000F009C001F0250EDA
:1001A8000024E96E000E0120EA6EEECF37F039C068
:1001B80000F03AC001F001320032019E01320032F3
:1001C800019E01320032019E01320032019E00C0C0
:1001D80039F001C03AF0100E046E000E056E53DFC0
:1001E80008C000F009C001F0250E0024E96E000ED9
:1001F8000120EA6EEECF36F039C000F03AC001F0C7
:1002080001320032019E01320032019E0132003279
:10021800019E01320032019E00C039F001C03AF05F
:10022800100E046E000E056E2EDF08C000F009C027
:1002380001F0250E0024E96E000E0120EA6EEECFD3
:1002480035F0020E3B6E55DF410E3B6E52DF4E0E0F
:100258003B6E4FDF300E3B6E4CDF3D0E3B6E49DF91
:1002680035C03BF046DF36C03BF043DF37C03BF0DC
:1002780040DF38C03BF03DDF040E3B6E3ADF010E35
:100288003B6E1CDF00C039F001C03AF0100E046E5E
:10029800000E056EF8DE08C000F009C001F0250E5A
:1002A8000024E96E000E0120EA6EEECF38F039C066
:1002B80000F03AC001F001320032019E01320032F2
:1002C800019E01320032019E01320032019E00C0BF
:1002D80039F001C03AF0100E046E000E056ED3DE40
:1002E80008C000F009C001F0250E0024E96E000ED8
:1002F8000120EA6EEECF37F039C000F03AC001F0C5
:1003080001320032019E01320032019E0132003278
:10031800019E01320032019E00C039F001C03AF05E
:10032800100E046E000E056EAEDE08C000F009C0A7
:1003380001F0250E0024E96E000E0120EA6EEECFD2
:1003480036F039C000F03AC001F001320032019EA7
:1003580001320032019E01320032019E0132003228
:10036800019E00C039F001C03AF0100E046E000E74
:10037800056E89DE08C000F009C001F0250E0024D2
:10038800E96E000E0120EA6EEECF35F0020E3B6EEC
:10039800B0DE410E3B6EADDE4E0E3B6EAADE310E78
:1003A8003B6EA7DE3D0E3B6EA4DE35C03BF0A1DE02
:1003B80036C03BF09EDE37C03BF09BDE38C03BF0DA
:1003C80098DE040E3B6E95DE020E0B6E040E0C6E6C
:1003D800BA0E0D6E0D2EFED70C2EFCD70B2EFAD7AB
:0603E8000000A9D6FFD7BA
:1003EE00303132333435363738394142434445465D
:020000040030CA
:0D00010002191EFF8181FF0FC00FE00F40AC
:00000001FF
