:10000000F0EF15F00000000000EF00F0000000002D
:0A0010000000000000000000F3D71C
:10001C0063C1C9FFC7B002D00000FCD7C9CF00F044
:02002C001200C0
:10002E00F250026EF29E0500FF6A0150FE6E005005
:08003E00FD6E02BEF28E1200FD
:100046008B92400E01016011006EE8C0E1FFE9C02D
:10005600E2FF00C0E6FFE6C000F0E7C001F0E4DF23
:10006600E8C0E1FFE9C0E2FF61C1E6FFE6C000F0DB
:10007600E7C001F0D9DFE8C0E1FFE9C0E2FF62C1F5
:10008600E6FFE6C000F0E7C001F0CEDF8B8212008B
:100096008B92E8C0E1FFE9C0E2FF7A0EE66EE6C0A9
:1000A60000F0E7C001F0C0DFE8C0E1FFE9C0E2FF11
:1000B6005DC1E6FFE6C000F0E7C001F0B5DF8B8268
:0200C600120026
:1000C8000101606B5DC161F15EC162F1B8DF8B92C5
:1000D800E8C0E1FFE9C0E2FF3A0EE66EE6C000F0D4
:1000E800E7C001F0A0DFE8C0E1FFE9C0E2FFE66A8F
:0E00F800E6C000F0E7C001F096DF8B82120038
:100106008B92A00E01015D11006EE8C0E1FFE9C00F
:10011600E2FF00C0E6FFE6C000F0E7C001F084DFC2
:10012600E8C0E1FFE9C0E2FF5EC1E6FFE6C000F01D
:0A013600E7C001F079DF8B821200B0
:10014000020E0101606F5DC161F15EC162F17BDF92
:100150008B92E8C0E1FFE9C0E2FF7A0EE66EE6C0EE
:1001600000F0E7C001F063DFE8C0E1FFE9C0E2FFB3
:100170005FC1E6FFE6C000F0E7C001F058DF8B8208
:0201800012006B
:100182008B92800E01015D11006EE8C0E1FFE9C0B3
:10019200E2FF00C0E6FFE6C000F0E7C001F046DF84
:1001A200E8C0E1FFE9C0E2FF5EC1E6FFE6C000F0A1
:0A01B200E7C001F03BDF8B82120072
:1001BC008B92E8C0E1FFE9C0E2FF5DC1E6FFE6C05B
:1001CC0000F0E7C001F02DDFE8C0E1FFE9C0E2FF7D
:1001DC00E66AE6C000F0E7C001F023DF8B82120074
:1001EC0053C15DF154C15EF155C15FF1A3DF56C13E
:0601FC005DF14BDF120073
:1002020001015C6B010E555F000E565B59530DE008
:100212005651190802E15551AD0807E25C2BAD0EAB
:10022200555D5A6F190E56595B6F5C5305E0AD0E62
:10023200016E190E026E04D055C101F056C102F0D2
:100242005451021802E1015053190DE153C15DF1FD
:1002520054C15EF138DF00C05FF157C15DF158C192
:100262005EF16DDF36D0100E0101606F53C161F196
:1002720054C162F1E7DE120E0101606F5C5305E0CA
:10028200AD0E006E190E016E04D055C100F056C1BC
:1002920001F000C061F101C062F1D4DE140E01016F
:1002A200606F57C161F158C162F1CCDE1F0E0101CE
:1002B2005D6F100E5E6F26DF1F0E01015D6F200E57
:1002C2005E6F5EDF1F0E01015D6F77DF00AA01D056
:1002D200F9D701015C531AE05351555D006E545138
:1002E2005659016E5A51005E5B51015A004A012A69
:1002F2000050572701505823010E5A5D556F000ECA
:0E0302005B59566F536B546B5C6B8FD71200B8
:10031000AE0E01015D6F190E5E6F5F6B11DFAE0EE9
:1003200001015325006E190E5421016E00C053F1D6
:1003300001C054F1060E606F00C061F101C062F1AE
:1003400082DE1F0E01015D6F800E5E6F1ADF1F0ED1
:1003500001015D6F800E5E6FD6DE6950050A04E014
:100360006950070A01E006D01C0E01015D6F0A0EFC
:100370005E6FC9DE1F0E01015D6F080E5E6F01DF4B
:100380006950050A04E06950070A01E080D00101C4
:10039000576B586B1C0E5D6F11DF0A0E0016005272
:1003A0000AE10101574B582B030E585D02E1E80E9C
:1003B000575D01E2EFD701011C0E5D6FFFDE00B259
:1003C00008D0030E0101585D02E1E80E575D01E21D
:1003D0005DD001011F0E5D6F080E5E6F94DE040E8E
:1003E000010153255D6F000E54215E6F6DDE00C06C
:1003F00056F10101556B100E555D48E21C0E5D6F04
:10040000DDDE00A23FD0010156AB3CD01F0E5D6F78
:10041000800E5E6FB6DE1F0E01015D6F800E5E6F97
:1004200072DE1C0E01015D6F0A0E5E6F6CDE1F0E28
:1004300001015D6F080E5E6FA4DE0101576B586B02
:100440001C0E5D6FBBDE0A0E001600520AE10101B0
:10045000574B582B030E585D02E1E80E575D01E241
:10046000EFD701011F0E5D6F080E5E6F4CDE040EAC
:10047000010153255D6F000E54215E6F25DE00C023
:1004800056F101D003D00101552BB5D707D001019A
:100490001F0E5D6F93DE00A601D0F9D71D0E01017E
:1004A0005D6F8CDE060E0016005202E0006A02D07C
:0604B000010E006E1200B7
:1004B600010155515325576F56515421586F010E5E
:1004C600575F000E585B100E606F53C161F154C147
:1004D60062F1B6DD120E0101606F57C161F158C1BC
:1004E60062F1AEDD1F0E01015D6F300E5E6F46DEFE
:1004F6001F0E01015D6F5FDE00AA01D0F9D7120061
:10050600020E0101606F53C161F154C162F198DDC1
:100516008B92E8C0E1FFE9C0E2FF7A0EE66EE6C024
:1005260000F0E7C001F080DD01015751581117E0D6
:10053600E8C0E1FFE9C0E2FF55C1E9FF56C1EAFFA5
:10054600EECFE6FFE6C000F0E7C001F06DDD010189
:10055600554B562B010E575F000E585BE5D78B8225
:02056600120081
:100568008B92E8C0E1FFE9C0E2FF7A0EE66EE6C0D2
:1005780000F0E7C001F057DD55C100F056C101F0A9
:10058800010E0101555F000E565B0050011013E08B
:10059800E8C0E1FFE9C0E2FF53C1E9FF54C1EAFF47
:1005A800EECFE6FFE6C000F0E7C001F03CDD010158
:0A05B800534B542BE1D78B82120045
:1005C2008B92E8C0E1FFE9C0E2FF7A0EE66EE6C078
:1005D20000F0E7C001F02ADDE8C0E1FFE9C0E2FF78
:1005E20054C1E6FFE6C000F0E7C001F01FDDE8C03D
:1005F200E1FFE9C0E2FF53C1E6FFE6C000F0E7C059
:0806020001F014DD8B821200EF
:10060A00AF0E0101536F190E546F45C155F146C122
:10061A0056F1060E576F000E586F70DF4B0E536F70
:10062A00000E546F060E556F000E566F98DF000EBF
:10063A00536F080E546FC0DF1C0E01014D25506F19
:10064A00000E4E21516F000E536F450E546FB4DFEA
:10065A0050C153F151C154F1AFDF7CC053F17DC099
:10066A0054F1AADF7C4A7D2A0101536B546BA4DF43
:10067A00110E0101536F800E546F9EDF0101536BFF
:10068A00546B9ADF6C0E0101536F000E546F040E07
:10069A00556F000E566F63DF47C153F148C154F1DD
:1006AA00040E556F000E566F5ADF080E4D25506F17
:1006BA00000E4E21516F49C153F14AC154F17CDFFA
:1006CA004BC153F14CC154F177DF50C153F151C1C1
:1006DA0054F172DF0101536B546B6EDFBD0E0101E1
:1006EA00536F190E546F140E556F000E566FDEDEDF
:1006FA00160E01015D6F5DDD00C052F1170E01019A
:10070A005D6F57DD00C055F1C70E0101536F190E19
:10071A00546F52C156F165DD010E010150154F6F3C
:10072A00D90E4D255D6F190E4E215E6F5F6B03DD8D
:10073A00C90E0101536F190E546FD10E556F190E60
:10074A00566FD90E4D25576F190E4E21586F4F51BE
:10075A005727000E5823596B4FDDD90E4D25536F7D
:10076A00190E4E21546F4F515327000E5423080E71
:10077A005327000E5423556B110E566F32DD51C1AB
:10078A005DF184DC50C15DF181DCD10E0101536F52
:10079A00190E546F0C0E5025556F000E5121566FCD
:1007AA004F515527000E562381DE160E01015D6F4B
:1007BA0000DD00C052F1170E01015D6FFADC00C0C6
:1007CA0055F1D70E0101536F190E546F52C156F1EC
:1007DA0008DD2A0E01014D25536F000E4E21546F7C
:0407EA0092DD12008A
:1007EE008B92E8C0E1FFE9C0E2FF7A0EE66EE6C04A
:1007FE0000F0E7C001F014DC48C100F049C101F07F
:10080E00010E0101485F000E495B005001101CE013
:10081E00E8C0E1FFE9C0E2FF45C1F6FF46C1F7FFC0
:10082E0047C1F8FF0900F5CF00F000C0E6FFE6C0B3
:10083E0000F0E7C001F017EC00F0010E01014527B2
:0C084E00000E46234723D8D78B821200EF
:10085A00086A096A100E0C6E01340836093604500B
:10086A00085E0550D8A0053C095ED8B007D00450F0
:10087A0008260550D8B0053C0926D890003601361E
:06088A000C2EEAD712005B
:0C0890000E0E0D6E0D2EFED700001200A3
:10089C00086A080E0C6E003408360450085ED8B096
:0E08AC0002D00826D89000360C2EF5D7120088
:1008BA0047C104F048C105F045C102F046C103F042
:1008CA0049C100F04AC101F0010E0101495F000E61
:1008DA004A5B005001100FE004C0E9FF05C0EAFFBF
:1008EA0002C0E1FF03C0E2FFEECFE6FF024A032A9D
:1008FA00044A052AE5D745C100F046C101F01200B5
:10090A008B92E8C0E1FFE9C0E2FF3A0EE66EE6C06C
:10091A0000F0E7C001F017EC00F0E8C0E1FFE9C021
:10092A00E2FFE66AE6C000F0E7C001F017EC00F06B
:04093A008B8212009A
:10093E0001014851FF0A02E1FF0E471907E0606B03
:10094E0047C161F148C162F123EC00F08B92E8C01F
:10095E00E1FFE9C0E2FF3A0EE66EE6C000F0E7C046
:10096E0001F017EC00F049C100F04AC101F0010E90
:10097E000101495F000E4A5B0050011015E0E8C00E
:10098E00E1FFE9C0E2FFE66AE6C000F0E7C001F071
:10099E0017EC00F045C1E1FF46C1E2FF00C0E6FFE3
:0C09AE000101454B462BDFD78B82120065
:1009BA0049C101F04AC102F0010E0101495F000E6E
:1009CA004A5B000E021802E1000E01181FE045C141
:1009DA00E9FF46C1EAFF47C1D9FF48C1DAFFEE5035
:1009EA00DE180FE045C1E9FF46C1EAFF47C1D9FF5A
:1009FA0048C1DAFFDE50EE5C006E016A000E015A51
:100A0A001200454B462B474B482BD2D7006A016A46
:020A1A001200C8
:100A1C000101406B416B8B92E8C0E1FFE9C0E2FF42
:100A2C007A0EE66EE6C000F0E7C001F017EC00F0BD
:100A3C003DC100F03EC101F001013D4B3E2B00C019
:100A4C00E9FF01C0EAFFEECF00F000C03FF1005219
:100A5C0010E0E8C0E1FFE9C0E2FF3FC1E6FFE6C0FD
:100A6C0000F0E7C001F017EC00F00101404B412B06
:0E0A7C00DFD78B8240C100F041C101F01200B3
:100A8A00C26A070EC012C08E3DC100F00036009047
:100A9A00003600900050C212C280F5DEC282C2A2A5
:100AAA0001D0FDD7C4CF01F0006AC3500012000E76
:060ABA000112C2901200BF
:100AC00001013F6B3C0E556E000E566E576E586E10
:100AD0001CDF00C03DF10050020AD8A418D101016A
:100AE0003E6B0F0E3E5D04E210DF01013E2BF9D795
:100AF000510E456F000E466FFF0E476FFF0E486F99
:100B0000040E496F000E4A6F1ADF3E6B080E3E5D01
:100B100004E2FBDE01013E2BF9D73E6B060E3E5D83
:100B200012E2F3DE00C03DF14B0ED96E000EDA6E1C
:100B300001013E51D926D8B0DA2A0050DE1801E072
:100B40000FD13E2BEBD73E6BCE0E3E5D04E2DDDED9
:100B500001013E2BF9D7406BD8DE00C03DF1B8D083
:100B6000D4DE00C03DF10050010A04E1CEDE00C039
:100B70003FF101D0F5D0C7D0C8DE00C03DF1005034
:100B8000040A0FE1590E0101456F000E466FFF0E7A
:100B9000476FFF0E486F040E496F000E4A6FCFDE9D
:100BA00001D0DED0B0D0B1DE00C03DF1040E005C5B
:100BB0000FE3650E0101456F000E466FFF0E476F94
:100BC000FF0E486F040E496F000E4A6FB8DE01D069
:100BD000C7D00101040E3D5F01013DC100F03D079A
:100BE000005202E092DEF8D78ED08FDE00C03DF1D9
:100BF000040E005C0FE3610E0101456F000E466FAD
:100C0000FF0E476FFF0E486F040E496F000E4A6FCC
:100C100096DE01D0A5D00101040E3D5F01013DC16A
:100C200000F03D07005202E070DEF8D76CD06DDEB8
:100C300000C03DF10050040A0FE1410E0101456F73
:100C4000010E466FFF0E476FFF0E486F040E496F8F
:100C5000000E4A6F74DE01D083D055D00101010E21
:100C6000406F51D052DE00C03DF10050040A22E135
:100C7000550E0101456F000E466FFF0E476FFF0EC8
:100C8000486F040E496F000E4A6F59DE5850000835
:100C900008E15750000805E15650070802E1555099
:100CA000080807E2080E555E070E565A000E575AFE
:100CB000585A01D055D027D028DE00C03DF13DC1A3
:100CC00000F001013D07005202E01FDEF8D71BD003
:100CD00001013D51350AD8B443D73D51010AD8B47A
:100CE0004BD73D51030AD8B45ED73D51060AD8B45C
:100CF0007CD73D51360A9BE03D51FF0AAFE03D51A4
:100D0000330AB0E0D9D701014053D8B425D7010147
:100D10003F51020A0EE15D0E456F000E466F410E17
:100D2000476F010E486F040E496F000E4A6FC5DD14
:100D300014D05D0E456F000E466F410E476F010ED9
:100D4000486F040E496F000E4A6F37DE000E01181F
:100D500002E1000E001801E03F6B3FC100F01200FD
:040D6000006A120013
:100D640001013D517A0804E3610E3D5D01E33D9BC1
:060D74003DC100F0120079
:100D7A00700E0101456F000E466F3DC147F13EC13D
:100D8A0048F1040E496F000E4A6F92DD890E456FD5
:100D9A00000E466F3FC147F140C148F1040E496F4A
:100DAA00000E4A6F85DD850E456F000E466F41C104
:100DBA0047F142C148F1040E496F000E4A6F78DDCF
:020DCA00120015
:100DCC00020E0C6E490E0D6E0D2EFED70C2EFCD79E
:060DDC00000000001200FF
:100DE2000101416B050E415D0AE241513F25E16E71
:100DF200000E4021E26E200EE66E412BF3D74151E8
:100E02003F25E16E000E4021E26EE66A4107415144
:100E12003F25426F000E4021436F0A0E046E000E02
:100E2200056E3DC100F03EC101F016DD08C000F0C4
:100E320009C001F0300E002642C1E1FF43C1E2FFCA
:100E420000C0E6FF0A0E046E000E056E3DC100F002
:100E52003EC101F001DD00C03DF101C03EF1000ED6
:100E6200011802E1000E001801E102D04107CFD7BC
:020E720012006C
:100E74003DC102F03EC103F040C100F041C101F0A8
:100E8400010E0101405F000E415B0050011009E0BA
:100E940002C0E1FF03C0E2FF3FC1E6FF024A032AAA
:0C0EA400EBD73DC100F03EC101F0120090
:100EB00001013D51390806E3300E3D5D03E3010EAB
:080EC000006E01D0006A12006F
:100EC8000101416B426B8B92E8C0E1FFE9C0E2FF90
:100ED8007A0EE66EE6C000F0E7C001F017EC00F00D
:100EE8003DC100F03EC101F03FC102F0010E010119
:100EF8003D27000E3E233F2300C0F6FF01C0F7FF49
:100F080002C0F8FF0900F5CF00F000C040F1005220
:100F180010E0E8C0E1FFE9C0E2FF40C1E6FFE6C03B
:100F280000F0E7C001F017EC00F00101414B422B43
:0E0F3800D7D78B8241C100F042C101F01200F8
:100F4600F90E0101406F000E416F020E606FD90E5F
:100F5600616F190E626F23EC00F0740E0101456F8C
:100F6600310E466F000E476F0C0E486F000E496F2C
:100F76003BDC3D51030A0DE13E530BE0510E536F2E
:100F8600000E546F040E556F000E566FB4EC02F04F
:100F96000AD03F6B040E3F5D06E25D6B4BEC00F042
:100FA60001013F2BF7D73F6B0C0E3F5D06E25D6BF1
:100FB6004BEC00F001013F2BF7D74B0E536F000EA1
:100FC600546F060E556F000E566FB4EC02F03F6B71
:100FD600CA0E3F5D06E25D6B4BEC00F001013F2B54
:100FE600F7D7BD0E456F310E466F000E476F060EE2
:100FF600486F000E496FF7EC03F03DC15DF14BEC15
:1010060000F001013D51030A1AE13E5318E1360E84
:101016005D6F4BEC00F0040E01015D6F4BEC00F0D0
:101026005D0E0101536F000E546F040E556F000ED6
:10103600566FB4EC02F0060E4027000E4123C30E95
:10104600456F310E466F000E476F050E486F000E56
:10105600496FF7EC03F03D51030A23E13E5321E1CA
:10106600320E5D6F4BEC00F0040E01015D6F4BEC30
:1010760000F001013F6B040E3F5D0FE2510EE96E79
:10108600000EEA6E3F51E926D8B0EA2AEECF5DF1AE
:101096004BEC00F001013F2BEED7060E4027000E69
:1010A6004123FF0E5D6F4BEC00F0260E0101456FEC
:1010B600000E466F260E476F000E486F440E496FAE
:1010C600000E4A6F430E4B6F000E4C6F40C14DF140
:0A10D60041C14EF105EC03F01200D9
:1010E0000101406B030E405D0AE240513E25E16E76
:1010F000000E3F21E26E200EE66E402BF3D74051EA
:101100003E25E16E000E3F21E26EE66A4007405147
:101110003E25416F000E3F21426F0A0E046E3DC115
:1011200000F04EEC04F008C000F0300E002641C183
:10113000E1FF42C1E2FF00C0E6FF0A0E046E3DC1BE
:1011400000F04EEC04F000C03DF10050000A01E157
:0811500002D04007DCD71200B9
:10115800B50E0101536F190E546FBB0E556F190E62
:10116800566FAF0E576F190E586F596B01EC01F09F
:10117800B50E536F190E546F4B0E556F000E566F08
:0E118800060E576F000E586F83EC02F0120037
:101196000B6A0A6A096A00500402F4CF09F0F3CF19
:1011A60008F001500502F4CF0BF0F3CF0AF000501F
:1011B6000502F3500926F4500A22E86A0B22015070
:1011C6000402F3500926F4500A22E86A0B2208C0EA
:1011D60000F009C001F00AC002F00BC003F01200D3
:1011E60001012F6BC80E2F5D04E2EDDDECDD2F2B28
:0411F600F9D7120013
:1011FA008B92400E01012F11006EE8C0E1FFE9C099
:10120A00E2FF00C0E6FFE6C000F0E7C001F017EC1D
:10121A0000F0E8C0E1FFE9C0E2FF30C1E6FFE6C046
:0E122A0000F0E7C001F017EC00F08B8212001C
:1012380001015D6BDEEC00F000C034F1010E01012C
:101248005D6FDEEC00F000C035F10101606B2FC16D
:1012580061F130C162F123EC00F08B92E8C0E1FF4C
:10126800E9C0E2FF3A0EE66EE6C000F0E7C001F022
:1012780017EC00F00101335318E0E8C0E1FFE9C0C2
:10128800E2FFE66AE6C000F0E7C001F017EC00F004
:1012980031C1D9FF32C1DAFF0050DE1801E005D0B4
:1012A8000101314B322B3307E5D701018B82606B8B
:1012B80034C161F135C162F123EC00F033C100F0B3
:0212C800120012
:1012CA0001013051190802E12F51AD0804E2AE0EB6
:1012DA002F5F190E305B606B2FC161F130C162F173
:0612EA0023EC00F01200ED
:1012F000C90E0101536F190E546FCD0E556F190EA3
:10130000566FCD0E576F190E586F596B01EC01F0E7
:10131000C90E536F190E546F6C0E556F000E566F39
:0E132000040E576F000E586F83EC02F012009F
:10132E00000E0101341902E1500E331903E0006A78
:10133E00016A1200396B3A6B000E3A5D02E10A0E39
:10134E00395D12E2D70E39253B6F000E3A213C6F04
:10135E0085EC04F03BC1E1FF3CC1E2FF00C0E6FFBB
:10136E000101394B3A2BE8D7D70E3925E16E000E25
:10137E003A21E26EE66A396B3A6BD70E456F000E74
:10138E00466F3F0E476F000E486F050E496F000EF9
:10139E004A6FDDEC04F00050011003E0006A016AB0
:1013AE0012000001010E3526000E36223722382299
:1013BE00DC51730AD8A4EFD0480E01013D6F310EF7
:1013CE003E6F000E3F6F79DD00C039F101C03AF17A
:1013DE00670E3D6F310E3E6F000E3F6F6EDD00509B
:1013EE00392701503A23020E3D6F45EC05F000C03F
:1013FE003DF101C03EF1BA0E01013F6F000E406F8C
:10140E00E9DCB40E3D6F310E3E6F000E3F6F55DDC1
:10141E000050392701503A23BA0E3D6F000E3E6F31
:10142E000EEC05F00050392701503A23CA0E3D6FDD
:10143E00310E3E6F000E3F6F40DD005039270150D8
:10144E003A23030E3D6F45EC05F000C03DF101C09F
:10145E003EF1BA0E01013F6F000E406FBBDCAB0ECA
:10146E003D6F310E3E6F000E3F6F27DD0050392766
:10147E0001503A23BA0E3D6F000E3E6F0EEC05F092
:10148E000050392701503A23C80E3D6F310E3E6F82
:10149E00000E3F6F12DD0050392701503A23970E90
:1014AE003D6F310E3E6F000E3F6F07DD0050392746
:1014BE0001503A2381CF3DF1000E3E6FBA0E3F6FC1
:1014CE00000E406F87DCBA0E3D6F000E3E6F0EECC5
:1014DE0005F00050392701503A23CC0E3D6F310EE6
:1014EE003E6F000E3F6FE9DC0050392701503A2362
:1014FE008C0E3D6F310E3E6F000E3F6FDEDC0050E6
:10150E00392701503A2383CF3DF1000E3E6FBA0EBC
:10151E003F6F000E406F5EDCBA0E3D6F000E3E6FE9
:10152E000EEC05F00050392701503A23D00E3D6FD6
:10153E00310E3E6F000E3F6FC0DC00503927015058
:10154E003A2335C03DF136C03EF1BA0E3F6F000E64
:10155E00406F40DCA20E3D6F310E3E6F000E3F6FAE
:10156E00ACDC0050392701503A23BA0E3D6F000E05
:10157E003E6F0EEC05F00050392701503A23CE0E87
:10158E003D6F310E3E6F000E3F6F97DC00503927D6
:10159E0001503A2319D00001DC51740A15E1DDC067
:1015AE003DF17FDC005210E0300E0001DD5D006E7B
:1015BE0000C001F0010E006E015004E000360090F4
:1015CE00FF0FFBD70050831A000E01013A1902E1FA
:1015DE00000E39192CE1480E3D6F310E3E6F000E94
:1015EE003F6F6BDC00C039F101C03AF1800E3D6FE8
:1015FE00310E3E6F000E3F6F60DC005039270150F8
:10160E003A2339C03DF13AC03EF13BC03FF155DCC3
:10161E000050392701503A233CC03DF13DC03EF108
:10162E003EC03FF14ADC0050392701503A2339C100
:08163E0000F03AC101F01200B6
:101646002FC1E9FF30C1EAFFEECF3DF1BA0E01012D
:101656003E6F000E3F6F41DD2E0E0001BD6F010E85
:1016660001012F25E96E000E3021EA6EEECF3DF125
:10167600BE0E3E6F000E3F6F30DD2E0E0001C16FB5
:10168600020E01012F25E96E000E3021EA6EEECF23
:101696003DF1C20E3E6F000E3F6F1FDD2E0E0001A4
:1016A600C56F030E01012F25E96E000E3021EA6E8B
:1016B600EECF3DF1C60E3E6F000E3F6F0EDD3A0EC9
:1016C6000001C96F31C13DF132C13EF1CA0E0101BF
:1016D6003F6F000E406FF1EC06F05B0E0001CF6F1E
:1016E60033C13DF134C13EF1D00E01013F6F000E12
:1016F600406FF1EC06F05D0E0001D56FD66B1C0E47
:1017060001013525376F000E3621386FBA0E536F3B
:10171600000E546F1C0E556F000E566FB4EC02F09F
:10172600010135C100F036C101F0010E355F000E32
:10173600365B005001100BE085EC04F000C03DF173
:10174600B2EC06F000C05DF14BEC00F0E9D737C112
:0817560000F038C101F012009F
:10175E0085EC04F085EC04F085EC04F000C030F16B
:10176E0085EC04F000C02FF185EC04F000C032F1DE
:10177E0085EC04F000C031F185EC04F000C034F1CA
:10178E0085EC04F000C033F185EC04F085EC04F038
:10179E0085EC04F085EC04F031C100F032C101F0AB
:1017AE00010E0101315F000E325B005001100EE0A0
:1017BE0085EC04F0005201E0FBD785EC04F085ECDB
:1017CE0004F085EC04F085EC04F0E6D733C100F0AC
:1017DE0034C101F0010E0101335F000E345B005085
:1017EE00011048E085EC04F085EC04F085EC04F083
:1017FE0000C038F185EC04F000C037F185EC04F040
:10180E0085EC04F085EC04F085EC04F085EC04F036
:10181E0085EC04F085EC04F000C036F185EC04F0A4
:10182E0000C035F1000E0101381902E1010E371921
:10183E0011E185EC04F000C078F085EC04F000C0F6
:10184E0079F085EC04F000C07AF085EC04F000C06D
:10185E007BF010D035C100F036C101F0010E010150
:10186E00355F000E365B0050011003E085EC04F08E
:06187E00F1D7ACD7120007
:10188400AFD06C0E01013D6F000E3E6F3F6B040E36
:10189400406F000E416F3AEC07F0010E3D6F3E6B56
:1018A400A3EC07F02CC074F02DC075F02EC076F0B8
:1018B4002FC077F0030E226EA4D0050E7424016E9F
:1018C400000E7520026E000E7620036E000E772047
:1018D400046E2F50045C08E12E50035C05E12D508A
:1018E400025C02E12C50015C02E2020E226E60EC0A
:1018F40005F00050020A03E1040E226E01D081D0EB
:10190400030E01013D6F23C03EF1A3EC07F02CC090
:1019140074F02DC075F02EC076F02FC077F0050E50
:10192400226E6FD060EC05F000C02FF10050060A63
:1019340003E1040E226E2CD001012F51050A28E187
:101944002CC074F02DC075F02EC076F02FC077F047
:10195400060E226E6C0E456F000E466F510E476FD9
:10196400000E486F040E496F000E4A6F5DEC04F0E0
:10197400590E3D6F000E3E6F650E3F6F000E406FB7
:10198400610E416F000E426FBDEC06F0236A120037
:1019940038D0010E7424016E000E7520026E000E04
:1019A4007620036E000E7720046E04502F5C08E14D
:1019B40003502E5C05E102502D5C02E101502C5CC9
:1019C4000EE3010E555E000E565A575A585A2CC053
:1019D40074F02DC075F02EC076F02FC077F011D0C2
:1019E4002250020AD8B44DD72250030AD8B465D77E
:1019F4002250040A85E02250050A94E02250060A87
:041A0400C8E0120024
:101A08001F0E01015D6F010E5E6F83EC00F01F0E6B
:101A180001015D6F020E5E6FC1EC00F0140E010152
:101A28002F6F02C130F1FDEC08F0120E01015D6F5D
:101A3800010E5E6FC1EC00F0F3EC08F0120E5D6F62
:101A4800010E5E6F83EC00F0160E01015D6FDEEC97
:101A580000F005C1E1FF06C1E2FF00C0E6FF170E76
:101A680001015D6FDEEC00F003C1E1FF04C1E2FF9C
:061A780000C0E6FF1200B1
:101A7E0005C15DF106C15EF164EC00F000C010F12D
:101A8E0085EC04F000C00FF185EC04F000C00EF1FF
:101A9E0085EC04F000C00DF1000E01010E1902E1FB
:101AAE00000E0D1901E1120085EC04F000C012F1D8
:101ABE0085EC04F000C011F1130E0101456F010E0B
:101ACE00466FC90E476F190E486F040E496F000E10
:101ADE004A6F9FEC04F0020E606F080E0525616FD1
:101AEE00000E0621626F23EC00F00E0E010102259E
:101AFE002F6F000E0321306F04512F27000E30235D
:101B0E00080E2F27000E302365EC09F0000E0101A0
:101B1E00101902E1350E0F1902E11ADE49D0000E3E
:101B2E0001010E1902E1440E0D1902E1A4DE40D0AE
:101B3E00130E01012F6F010E306F0FC131F110C165
:101B4E0032F10DC133F10EC134F1080E115D356F56
:101B5E00000E1259366F70DD00C011F101C012F186
:101B6E000050011025E0070E0101456F010E466F72
:101B7E00B50E476F190E486F060E496F000E4A6F6D
:101B8E009FEC04F0070E456F010E466F130E476F64
:101B9E00010E486F0DC149F10EC14AF10FC14BF153
:101BAE0010C14CF111C14DF112C14EF105EC03F013
:021BBE00120013
:101BC0001F0E01015D6F010E5E6F83EC00F01F0EB2
:101BD00001015D6F020E5E6FC1EC00F0140E010199
:101BE0002F6F02C130F1FDEC08F0F3EC08F0160E97
:101BF0002F6F04C130F1FDEC08F0F3EC08F0170E84
:101C00002F6F03C130F1FDEC08F0F3EC08F0120087
:101C1000C40E01015D6F190E5E6F64EC00F000C030
:101C200002F1E8D0D50E01012F6F190E306F6C0E46
:101C3000316F000E326F040E336F1CEC09F0005050
:101C4000000A4BE1C40E01015D6F190E5E6F020EBA
:101C50005F6FA0EC00F0ACEC08F0CB0E536F190EE8
:101C6000546FCF0E556F190E566FD50E576F190E54
:101C7000586F596B01EC01F0CB0E536F190E546F76
:101C80006C0E556F000E566F040E576F000E586F96
:101C900083EC02F0C50E536F190E546FCB0E556FC7
:101CA000190E566FCF0E576F190E586F596B01EC06
:101CB00001F0C50E536F190E546F4B0E556F000E89
:101CC000566F060E576F000E586F83EC02F03C0EF5
:101CD000536F000E546F88EC01F095D0AF0E0101E8
:101CE0002F6F190E306F4B0E316F000E326F060ED4
:101CF000336F1CEC09F00050000A7BE1CB0E0101B0
:101D00002F6F190E306F7EC031F17FC032F1040E9B
:101D1000336F1CEC09F00050000A6BE130C000F09A
:101D2000000E016E0F0E046E000E056ECBEC08F077
:101D30008D0E00240101456F000E0120466F090E33
:101D40004527000E4623C50E476F190E486F060E35
:101D5000496F000E4A6F9FEC04F030C000F0000E97
:101D6000016E0F0E046E000E056ECBEC08F08D0EAA
:101D70000024456F000E0120466F050E4527000E1A
:101D800046237EC047F17FC048F1040E496F000E24
:101D90004A6F5DEC04F030C000F0000E016E0F0ED3
:101DA000046E000E056ECBEC08F08D0E0024E16E83
:101DB000000E0120E26E010EE66E30C000F0000E53
:101DC000016E0F0E046E000E056ECBEC08F08D0E4A
:101DD0000026000E0122010E0024E16E000E0120FB
:101DE000E26E2CC0E6FF2DC0E6FF2EC0E6FF2FC03E
:101DF000E6FF09D001010251010AD8B413D70251FC
:081E0000020AD8B46BD71200EE
:101E080006C15DF107C15EF164EC00F000C016F197
:101E180085EC04F000C015F185EC04F000C014F165
:101E280085EC04F000C013F101011B6B206B010E5F
:101E3800216F1E6B1F6B0C0E06255D6F000E0721B0
:101E48005E6F64EC00F000C019F1000E01011A6F1A
:101E58001933199F1933199F000E1A6FFC0E1917A1
:101E6800FF0E1A172A0E456F010E466FC90E476FEF
:101E7800190E486F040E496F000E4A6F9FEC04F06C
:101E88000D0E06255D6F000E07215E6F64EC00F0F5
:101E98003F0E00140101176F186B000E1817000E83
:101EA800186F0E0E6A5C1C6F000E6B581D6F045184
:101EB8001C5F05511D5B19511C5F1A511D5B020EF9
:101EC80006255D6F000E07215E6F64EC00F000C010
:101ED8005FF106C15DF107C15EF1A0EC00F0030EF1
:101EE800010106255D6F000E07215E6F64EC00F0AE
:101EF80000C05DF14BEC00F015C153F116C154F16F
:101F0800E1EC02F0040E010106255D6F000E0721C9
:101F18005E6F64EC00F000C025F185EC04F000C0B1
:101F280024F185EC04F000C023F185EC04F000C036
:101F380022F185EC04F000C029F185EC04F000C022
:101F480028F185EC04F000C027F185EC04F000C00E
:101F580026F1000E0101181902E1020E17193CE1E1
:101F6800010E2225006E000E2321016E000E242191
:101F7800026E000E2521036E00C026F101C027F174
:101F880002C028F103C029F1120E176F000E186F56
:101F98000C0E5D6FDEEC00F000C022F10D0E0101A9
:101FA8005D6FDEEC00F000C023F101015D6BDEEC3B
:101FB80000F000C024F1010E01015D6FDEEC00F0BD
:101FC80000C025F101011B2B140E196F000E1A6FAA
:101FD8001E6B1F6B216A6BD0000E181902E1180ED8
:101FE80017192FE122C108F123C109F124C10AF10F
:101FF80025C10BF126C122F127C123F128C124F103
:1020080029C125F11C510825006E1D510921016EB9
:10201800000E0A21026E000E0B21036E00C026F18D
:1020280001C027F102C028F103C029F1100E176F73
:10203800000E186F1B2B140E196F000E1A6F202B31
:1020480036D0000E181902E1110E171930E122C11D
:102058000CF123C10DF124C10EF125C10FF126C1E8
:1020680022F127C123F128C124F129C125F1010E4C
:102078000C25006E000E0D21016E000E0E21026E61
:10208800000E0F21036E00C026F101C027F102C027
:1020980028F103C029F1100E176F000E186F1B2BC3
:1020A800140E196F000E1A6F1E6B1F6B212A1B531B
:1020B800D8B49AD1040E0625536F000E0721546F29
:1020C80025C155F124C156F1F6EC00F023C15DF1AC
:1020D8004BEC00F022C15DF14BEC00F029C15DF141
:1020E8004BEC00F028C15DF14BEC00F027C15DF12D
:1020F8004BEC00F026C15DF14BEC00F00C0E010139
:1021080006255D6F000E07215E6F64EC00F00F0E70
:10211800001401015F6F19C100F00036009000360D
:10212800009000505F130C0E06255D6F000E07210E
:102138005E6FA0EC00F00D0E010106255D6F000E2C
:1021480007215E6F64EC00F0C00E001401015F6FA0
:1021580017515F130D0E06255D6F000E07215E6F88
:10216800A0EC00F0010104511E251C6F05511F2130
:102178001D6F19511C271A511D23215304E0ACEC83
:1021880008F078EC09F0BF0E536F190E546F1DC19B
:1021980055F11CC156F1F6EC00F0C70E0101536F62
:1021A800190E546F556B566BF6EC00F0BD0E01011D
:1021B800536F190E546F04C155F105C156F15BEC0C
:1021C80002F0160E01015D6FDEEC00F000C02EF18A
:1021D800170E01015D6FDEEC00F000C055F1C70E6F
:1021E8000101536F190E546F2EC156F1F6EC00F031
:1021F800BD0E01011C25116F190E1D21126F100E45
:102208000625536F000E0721546F556B566BF6EC7D
:1022180000F0010E01011C15106F11C15DF112C112
:102228005EF15F6BA0EC00F0C90E0101536F190E4F
:10223800546FD10E556F190E566F10511125576FE7
:10224800000E1221586F596B01EC01F0080E112590
:10225800536F000E1221546F10515327000E542350
:10226800556B060E566FF6EC00F00A0E01011125AB
:10227800536F000E1221546F10515327000E542330
:102288001E511925036E1F511A21046E04C000F057
:10229800016A00C055F103C056F1F6EC00F006C122
:1022A80053F107C154F101011E511925556F1F51F2
:1022B8001A21566F0C0E5527000E5623105155271C
:1022C800000E56235BEC02F0160E01015D6FDEEC8A
:1022D80000F000C02EF1170E01015D6FDEEC00F07A
:1022E80000C055F1100E01010625536F000E07219D
:1022F800546F2EC156F1F6EC00F00E0E01011C25AC
:10230800536F000E1D21546F88EC01F0010120531A
:1023180048E0100E176F000E186F206B216B020E2D
:10232800606F19510625616F1A510721626F23ECFE
:1023380000F00E0E010102252F6F000E0321306FF1
:1023480004512F270551302319512F271A513023B3
:1023580065EC09F0212A2A0E01012F6F010E306F5A
:1023680015C131F116C132F113C133F114C134F181
:102378000E0E6A5C356F000E6B58366F0451355F70
:102388000551365B1951355F1A51365B210E376F8F
:10239800000E386F97EC09F000C01EF101C01FF164
:1023A80089D6215221E01E512225006E1F5123217A
:1023B800016E000E2421026E000E2521036E00C05E
:1023C80022F101C023F102C024F103C025F1110E4E
:1023D800176F000E186F216A216B140E196F000E0B
:0A23E8001A6F1E6B1F6B66D6120001
:1023F20001012F6B0001EF5303E00D0E006E02D0BE
:10240200050E006E00C030F1FDEC08F0020E010175
:102412002F6F0001EF5303E0310E006E02D0300E39
:10242200006E00C030F1FDEC08F00A0E0101606F91
:10243200EE0E616F050E626F23EC00F0040E0101D7
:102442002F6F0001EF5303E0150E006E02D0120E43
:10245200006E00C030F1FDEC08F0060E01012F6F96
:10246200120E306FFDEC08F00001EF5307E1070E8A
:1024720001012F6F0C0E306FFDEC08F00001EF53DD
:1024820007E1090E01012F6F3F0E306FFDEC08F0DE
:102492001F0E01015D6F010E5E6FC1EC00F01F0E99
:1024A20001015D6F020E5E6FC1EC00F0040E0101CE
:1024B2002F6F4BC030F1FDEC08F0050E01012F6FBC
:1024C2004CC030F1FDEC08F0020E01012F6F4DC03F
:1024D20030F1FDEC08F0030E01012F6F4EC030F118
:1024E200FDEC08F001012F6B4FC030F1FDEC08F05C
:1024F200010E01012F6F50C030F1FDEC08F0150EF6
:1025020001012F6F306BFDEC08F0120E01015D6FBF
:10251200DEEC00F000C069F00101026BF00E036F07
:10252200000E046FF10E056F000E066F04EC0DF045
:102532000101026BFE0E0001F0150101036F0001A3
:10254200EF5303E0010E006E01D0006A005001015A
:102552000313F1C004F1E0EC0DF0100E026F010E56
:10256200036F046BE0EC0DF01F0E5D6F040E5E6FE7
:10257200C1EC00F0F3EC08F08D0E3D6F000E3E6FE3
:102582003F6B2D0E406F000E416F3AEC07F01F0EAD
:102592005D6F010E5E6F83EC00F01F0E01015D6F37
:0A25A200020E5E6F83EC00F01200E1
:1025AC000101006B1F0E5D6F010E5E6F83EC00F07E
:1025BC001F0E01015D6F020E5E6F83EC00F00101D6
:1025CC00606B24C061F125C062F123EC00F08B92AA
:1025DC00E8C0E1FFE9C0E2FF3A0EE66EE6C000F0AB
:1025EC00E7C001F017EC00F0E8C0E1FFE9C0E2FF42
:1025FC00E66AE6C000F0E7C001F017EC00F000C09E
:10260C0024F0E8C0E1FFE9C0E2FFE66AE6C000F0B2
:10261C00E7C001F017EC00F000C025F0E8C0E1FFC6
:10262C00E9C0E2FFE66AE6C000F0E7C001F017EC93
:10263C0000F000C06AF0E8C0E1FFE9C0E2FFE66A22
:10264C00E6C000F0E7C001F017EC00F000C06BF042
:10265C00E8C0E1FFE9C0E2FFE66AE6C000F0E7C0CF
:10266C0001F017EC00F000C0F6F0E8C0E1FFE9C0A3
:10267C00E2FFE66AE6C000F0E7C001F017EC00F0FC
:10268C0000C0F7F08B82040E6A5E000E6B5A255068
:10269C00190802E12450AD080FE324B00DD000015D
:1026AC00F7BF0AD06B50050802E16A50EE0804E34C
:1026BC000001F6AF01D003D0010E006E1200010133
:1026CC005D6BDEEC00F000C0F4F0010E01015D6FFB
:1026DC00DEEC00F000C0F5F0F4C053F1F5C054F19D
:1026EC006A500001F4250101556F6B500001F52172
:1026FC000101566FAF0E576F190E586F010E596FBF
:10270C0001EC01F0BB0E5D6F190E5E6F64EC00F016
:10271C0000C0F7F085EC04F000C0F6F00001F751B2
:10272C00080A02E1060EF61921E1BD0E01012F6F18
:10273C00190E306F0001F86B010EF96F080EFA6F6D
:10274C00FB6B060EFC6F040EFD6FFE6BFF6BF80E41
:10275C000101316F000E326F070E336F1CEC09F064
:10276C000050000A02E108EC0EF03AD10001F751DA
:10277C00080A02E1000EF619D8A42FD1CD0E0101E2
:10278C002F6F190E306F6C0E316F000E326F040EFE
:10279C00336F1CEC09F0005214E0CD0E01012F6FC9
:1027AC00190E306F260E316F000E326F040E336F20
:1027BC001CEC09F00050000A04E0020E0101006F4D
:1027CC000BD10101BD0E5D6F190E5E6F64EC00F054
:1027DC00F00E0014016E0150400A04E0030E0101DA
:1027EC00006FFAD00101BD0E5D6F190E5E6F64ECC7
:1027FC0000F000C0F2F0000E0001F36F0F0EF217A4
:10280C00000EF317F237F291F337F237F291F337F8
:10281C00C30E01015D6F190E5E6F64EC00F0BF0E0C
:10282C000014016E0150000AD8A4D6D0C40E0101C8
:10283C005D6F190E5E6F64EC00F00050000AD8A4B6
:10284C00CBD0BD0E0001F225F06F190EF321F16F04
:10285C00C60E01015D6F190E5E6F64EC00F000C0D6
:10286C00EFF00050010AD8A494D0F0C05DF1F1C093
:10287C005EF164EC00F00050080AD8A489D0010E77
:10288C000001F02501015D6F000E0001F121010135
:10289C005E6F64EC00F00050000A7AE1F0C05DF16C
:1028AC00F1C05EF101015F6BA0EC00F0ACEC08F044
:1028BC0078EC09F0C70E536F190E546F556B566BAD
:1028CC00F6EC00F0BD0E0101536F190E546FF2C0FF
:1028DC0055F1F3C056F15BEC02F0160E01015D6F81
:1028EC00DEEC00F000C001F1170E01015D6FDEECB3
:1028FC0000F000C055F1C70E0101536F190E546F53
:10290C0001C156F1F6EC00F0020E0001F0250101B8
:10291C00536F000E0001F1210101546F556B566B82
:10292C00F6EC00F0F0C053F1F1C054F10001F2519B
:10293C006A5C0101556F0001F3516B580101566F30
:10294C000E0E555F000E565B5BEC02F0160E01018D
:10295C005D6FDEEC00F000C001F1170E01015D6F40
:10296C00DEEC00F000C055F1020E0001F025010173
:10297C00536F000E0001F1210101546F01C156F19A
:10298C00F6EC00F06AC053F16BC054F188EC01F026
:10299C0023D00001EF51110A0DE1F4C002F1F5C092
:1029AC0003F1F2C004F1F0C005F1F1C006F13FEC07
:1029BC000DF012D00001EF51060A0EE1F4C002F145
:1029CC00F5C003F1F2C004F1F3C005F1F0C006F15B
:1029DC00F1C007F104EC0FF003D00101040E006FFD
:1029EC0001011E0E5D6F400E5E6FC1EC00F0010E1A
:1029FC00245C016E000E2558026E0250190802E18B
:102A0C000150AD080AE20C0E0101606FAD0E616F52
:102A1C00190E626F23EC00F00BD00C0E0101606FED
:102A2C00010E245C616F000E2558626F23EC00F0E0
:062A3C0000C100F01200D1
:102A42001C0E0001E66F000EE76F630EE86F010EC9
:102A5200E96FFF0E816FFF0E826FFF0E836FFF0E15
:102A6200846F949A94969488C66A400EC76EC68AFA
:022A7200120050
:102A74000900F5CFE6FF0006FBE10106F9E11200CB
:102A84000001806B1F0E01015D6F010E5E6FC1ECD2
:102A940000F01F0E01015D6F020E5E6F83EC00F00B
:102AA400190E01015D6FDEEC00F00050000803E236
:102AB4007BDD00C080F01F0E01015D6F010E5E6FB3
:102AC40083EC00F01F0E01015D6F020E5E6F83EC5C
:082AD40000F080C000F01200C8
:102ADC0094908B8094928B82F3EC08F08B80F3ECC7
:102AEC0008F08B90F3EC08F08B80F3EC08F08B92F1
:102AFC00E8C0E1FFE9C0E2FFFF0EE66EE6C000F0C1
:102B0C00E7C001F017EC00F08B82F3EC08F04B0EF1
:102B1C00456F000E466FEAC047F1EBC048F1060E58
:102B2C00496F000E4A6F5DEC04F06C0E456F000EA1
:102B3C00466FECC047F1EDC048F1040E496F000E32
:102B4C004A6F5DEC04F01F0E5D6F010E5E6F83EC3F
:102B5C0000F01F0E01015D6F020E5E6F83EC00F042
:102B6C00080E0101606F616B626B23EC00F00A0EC2
:102B7C000101606FAD0E616F190E626F23EC00F0F6
:102B8C000C0E0101606FAD0E616F190E626F23ECBC
:102B9C0000F00101606B616B626B23EC00F0040EC2
:102BAC000101606FAE0E616F190E626F23EC00F0C5
:102BBC001F0E01015D6F010E5E6F83EC00F01F0EA6
:102BCC0001015D6F020E5E6FC1EC00F0EEC0EFF024
:042BDC000ADC1200FD
:102BE000E9EC18F00F0EC16E070EB46E806AFF0E8E
:102BF000926E816AFF0E936E836A956A22DF1C0EC5
:102C0000E66F000EE76F630EE86F010EE96F450E89
:102C1000EA6F000EEB6F310EEC6F000EED6F010EE0
:102C2000EE6F5CDF1D0E01013D6F000E3E6F190E51
:102C30003F6F000E406F150E416F000E426FBDECEE
:082C400006F020DFFED7FFD7EC
:1031D20010EE15F0360E006E010E016E120EF66E36
:0E31E200310EF76E000EF86E3AEC15F012008A
:102C48003C6D65746120687474702D657175697662
:102C58003D22726566726573682220636F6E7465C3
:102C68006E743D22333B75726C3D687474703A2FF4
:102C78002F3139322E3136382E312E3630223E3C25
:102C880048544D4C3E3C484541443E3C2F48454104
:102C9800443E3C424F44593E3C68313E50494320F3
:102CA8002B20454E4332384A3630204D696E692014
:102CB800576562205365727665723C2F68313E3CD9
:102CC8006120687265663D2F3E52656C6F61643C99
:102CD8002F613E3C736372697074207372633D2F79
:102CE800733E3C2F7363726970743E3C7461626C0E
:102CF800653E3C74723E3C74642076616C69676E14
:102D08003D746F703E3C7461626C6520626F7264E2
:102D180065723D31207374796C653D22666F6E74FF
:102D28002D73697A653A32307078203B666F6E741D
:102D38002D66616D696C793A207465726D696E6192
:102D48006C203B223E3C74723E3C746820636F6C7E
:102D58007370616E3D323E4144433C2F74683E3C83
:102D68002F74723E3C74723E3C74643E414E323C59
:102D78002F74643E3C74643E3C7363726970743EA5
:102D8800646F63756D656E742E777269746528411A
:102D98004E32293C2F7363726970743E3C2F746401
:102DA8003E3C2F74723E3C74723E3C74643E414E0D
:102DB800333C2F74643E3C74643E3C7363726970A8
:102DC800743E646F63756D656E742E777269746591
:102DD80028414E33293C2F7363726970743E3C2F2F
:102DE80074643E3C2F74723E3C2F7461626C653E85
:102DF8003C2F74643E3C74643E3C7461626C652094
:102E0800626F726465723D31207374796C653D221E
:102E1800666F6E742D73697A653A32307078203B2C
:102E2800666F6E742D66616D696C793A207465728F
:102E38006D696E616C203B223E3C74723E3C746846
:102E480020636F6C7370616E3D323E504F52544236
:102E58003C2F74683E3C2F74723E3C7363726970F9
:102E6800743E766172207374722C693B7374723D80
:102E780022223B666F7228693D303B693C383B69CA
:102E88002B2B297B7374722B3D223C74723E3C744D
:102E980064206267636F6C6F723D70696E6B3E424F
:102EA8005554544F4E2023222B692B223C2F7464F7
:102EB8003E223B696628504F5254422628313C3CFA
:102EC8006929297B7374722B3D223C7464206267E4
:102ED800636F6C6F723D7265643E4F4E223B7D6539
:102EE8006C7365207B7374722B3D223C7464206282
:102EF80067636F6C6F723D236363636363633E4F05
:102F08004646223B7D7374722B3D223C2F74643EEF
:102F18003C2F74723E223B7D646F63756D656E74E1
:102F28002E77726974652873747229203B3C2F735D
:072F380063726970743E0032
:102F3F003C2F7461626C653E3C2F74643E3C74643C
:102F4F003E3C7461626C6520626F726465723D31E4
:102F5F00207374796C653D22666F6E742D73697A78
:102F6F00653A32307078203B666F6E742D66616DF6
:102F7F00696C793A207465726D696E616C203B22C1
:102F8F003E3C74723E3C746820636F6C7370616E6C
:102F9F003D333E504F5254443C2F74683E3C2F7487
:102FAF00723E3C7363726970743E76617220737403
:102FBF00722C693B7374723D22223B666F722869D3
:102FCF003D303B693C383B692B2B297B7374722B4B
:102FDF003D223C74723E3C7464206267636F6C6F79
:102FEF00723D79656C6C6F773E4C45442023222BE4
:102FFF00692B223C2F74643E223B696628504F5246
:10300F0054442628313C3C6929297B7374722B3D2B
:10301F00223C7464206267636F6C6F723D726564EB
:10302F003E4F4E223B7D656C7365207B7374722B14
:10303F003D223C7464206267636F6C6F723D236343
:10304F0063636363633E4F4646223B7D7374722B0B
:10305F003D223C2F74643E3C74643E3C6120687298
:10306F0065663D2F74222B692B223E546F67676C68
:10307F00653C2F613E3C2F74643E3C2F74723E22A0
:10308F003B7D646F63756D656E742E7772697465C1
:10309F002873747229203B3C2F7363726970743EDE
:1030AF003C2F7461626C653E3C2F74643E3C2F7400
:1030BF00723E3C2F7461626C653E5468697320697F
:1030CF0073204854545020726571756573742023B2
:1030DF003C7363726970743E646F63756D656E7473
:1030EF002E777269746528524551293C2F7363728C
:1030FF006970743E3C2F424F44593E3C2F48544D0B
:03310F004C3E0033
:04311200C0A801014F
:04311600C0A8010646
:04311A00FFFFFF00B4
:01311E0000B0
:01311F0000AF
:0131200000AE
:023121000000AC
:06312300FFFFFFFFFFFFAC
:0431290000000000A2
:01312D0000A1
:04312E00C0A8013CF8
:043132000000000099
:03313600482C0022
:033139003F2F0025
:06313C00474554202F005E
:063142000014A576193F00
:10314800485454502F312E3120323030204F4B0A02
:0F315800436F6E74656E742D747970653A200044
:0D316700746578742F706C61696E0A0A003F
:0C31740001010600122334450000800019
:0C318000746578742F68746D6C0A0A0086
:0B318C0076617220504F5254443D0009
:0B31970076617220504F5254423D0000
:0931A200766172205245513D0096
:0931AB0076617220414E333D00B3
:0931B40076617220414E323D00AB
:0631BD006382536335013B
:0531C3003703010306C3
:0231C8003B00CA
:0231CA003B00C8
:0231CC003B00C6
:0231CE003B00C4
:0231D0003B00C2
:020000040030CA
:0D000100021F1EFF8381FF0FC00FE00F40A4
:00000001FF
