:1000000016EF00F00000000000EF00F0000000001C
:0A0010000000000000000000F3D71C
:10001C000900F5CFE6FF0006FBE10106F9E112004D
:10002C003F0E156E060E166E5B0E176E4F0E186E8B
:10003C00660E196E6D0E1A6E7D0E1B6E070E1C6E03
:10004C007F0E1D6E6F0E1E6E210E1F6E030E206E28
:10005C00400E216E0C0E226E0A0E236E070E246EBD
:10006C00040E256E010E266E276A080E286E050EEC
:10007C00296E020E2A6E0B0E2B6E090E2C6E060EBE
:10008C002D6E030E2E6E0F0EC16E93909392939461
:10009C00929492969298929A956A0F0E956E819080
:1000AC00030E0C6E970E0D6E0D2EFED70C2EFCD77C
:1000BC0000000000831C046E0F0E0414046E056A0D
:1000CC00000E051681800F0E0414046E056A000ED6
:1000DC000516000E056E8192030E0C6E970E0D6EBA
:1000EC000D2EFED70C2EFCD700000000831C006EDA
:1000FC000F0E001681820F0E0014036E040E026E9A
:10010C0003C000F0000E016E025005E000360090B6
:10011C000136FF0FFAD700500412015005128194DA
:10012C00030E0C6E970E0D6E0D2EFED70C2EFCD7FB
:10013C0000000000831C006E0F0E001681840F0E51
:10014C000014036E03C001F0006A00500412015049
:10015C000512066A076A086A08500C081BE308C0F7
:10016C0000F0010E016E000E026E005005E001362B
:10017C0001900236FF0FFAD70250051802E1045025
:10018C00011806E108C006F0000E076E064A072AA1
:10019C00082AE2D7956A220E0624D96E000E072093
:1001AC00DA6E150EE96E000EEA6EDE50E926D8B056
:1001BC00EA2AEECF83FF808A060E0C6E300E0D6E8F
:1001CC000D2EFED70C2EFCD70000809A66D7FFD7D9
:0D01DC003F065B4F666D7D077F6F2103407E
:0D01E9000C0A070401000805020B090603BB
:020000040030CA
:0D00010002191EFF8181FF0FC00FE00F40AC
:00000001FF
