:1000000044EF01F00000000000EF00F000000000ED
:0A0010000000000000000000F3D71C
:0A001C00210E0D6E0D2EFED712000E
:100026000F0E0C6E470E0D6E0D2EFED70C2EFCD746
:06003600000000001200B2
:06003C00000000001200AC
:100042003DBE02D0839E01D0838E3DBC02D0839CF4
:1000520001D0838C3DBA02D0839A01D0838A3DB805
:1000620002D0839801D0838835B002D0848401D035
:1000720084948482E2DF84923DB602D0839E01D0D2
:10008200838E3DB402D0839C01D0838C3DB202D0DA
:10009200839A01D0838A3DB002D0839801D08388AD
:1000A20035B002D0848401D084948482C6DF8492E5
:0C00B20035A002D0B7DF01D0B0DF120093
:0C00BE0035903CC03DF0BEDF35801200E4
:1000CA00A69C37C0A9FFA69EA680A8CF00F0120062
:1000DA000FD0800E376E19D0C00E376E16D0940E20
:1000EA00376E13D0D40E376E10D0800E376E0DD007
:1000FA003750010AEEE03750020AEEE03750030AA1
:10010A00EEE03750040AEEE0F0D73804006E3750BC
:10011A00002600C037F000C03DF08EDF35903B6A04
:10012A003B503924E96E000E3A20EA6EEE520BE09B
:10013A003B503924E96E000E3A20EA6EEECF3CF0CD
:0A014A00B9DF3B2AEDD73580120023
:10015400969296949598959A959C959E849284945B
:10016400839E839C839A83985CDF5BDF5ADF838A58
:100174008388848261DF849254DF84825DDF849289
:1001840050DF848259DF84924CDF8398848254DF69
:10019400849247DF848250DF8492839A838E8482A0
:1001A4004BDF84923EDF839E8388848245DF849282
:1001B4008398848241DF849234DF84823DDF849299
:1001C4008388848239DF84922CDF8398848234DFAD
:1001D4008492838E838C838A838884822DDF8492A5
:0601E40020DF358012004F
:1001EA000FD0800E376E19D0C00E376E16D0940E0F
:1001FA00376E13D0D40E376E10D0800E376E0DD0F6
:10020A003750010AEEE03750020AEEE03750030A8F
:10021A00EEE03750040AEEE0F0D73804006E3750AB
:10022A00002600C037F0358000C03DF005DF35906C
:0A023A0039C03DF001DF35801200ED
:100244000900F5CFE6FF0006FBE10106F9E1120023
:10025400A6A202D00000FCD7A69C37C0A9FF38C0D4
:10026400A8FFA69EA684F2CF00F0F29E550EA76EBC
:10027400AA0EA76EA68200BE02D0F29E01D0F28E14
:04028400A69412002A
:10028800ADEC01F0936A956A966A0F0EC16E5EDF57
:10029800010E3D6ED2DE0C0E3D6ECFDE010E376EC6
:1002A800010E386E250E396E000E3A6E12DF366A70
:1002B800100E365C15E236C037F03650300F386E07
:1002C800C5DF020E0B6E040E0C6EBA0E0D6E0D2EEF
:1002D800FED70C2EFCD70B2EFAD70000362AE8D70B
:1002E800010E376E010E386E150E396E000E3A6E1D
:1002F800F0DE366A100E365C1AE236C037F0E1DE00
:1003080000C039F0020E376E3650010F386E69DFC3
:10031800020E0B6E040E0C6EBA0E0D6E0D2EFED76D
:100328000C2EFCD70B2EFAD70000362AE3D7FFD7BE
:02033800FFD7ED
:10035A0010EE15F0200E006E010E016E3A0EF66ECA
:0E036A00030EF76E000EF86E22EC01F012008A
:10033A004C69646F20646120454550524F4D20003E
:10034A00457363722E206E6120454550524F4D0011
:020000040030CA
:0D00010002191EFF8181FF0FC00FE00F40AC
:00000001FF
