:10000000A7EF01F00000000000EF00F0000000008A
:0A0010000000000000000000F3D71C
:10001C000F0E0C6E470E0D6E0D2EFED70C2EFCD750
:06002C00000000001200BC
:0A003200210E0D6E0D2EFED71200F8
:06003C00000000001200AC
:10004200C7B409D01F0EC514016E0150000A03E1A6
:0A005200010E006E1200006A120099
:10005C003EBE02D0839E01D0838E3EBC02D0839CD8
:10006C0001D0838C3EBA02D0839A01D0838A3EB8E9
:10007C0002D0839801D0838833B002D0848401D01D
:10008C0084948482D5DF84923EB602D0839E01D0C4
:10009C00838E3EB402D0839C01D0838C3EB202D0BE
:1000AC00839A01D0838A3EB002D0839801D0838892
:1000BC0033B002D0848401D084948482B9DF8492DA
:0C00CC0033A002D0A5DF01D0AEDF12008F
:0400D800C5841200C9
:0A00DC00C582C5A201D0FDD71200B5
:1000E6009E96C5869EB601D0FDD7C9CF01F03A507F
:1000F600000A02E1C58A01D0C59A9E96C5889EB6B9
:0A01060001D0FDD701C000F0120087
:10011000949894968B988B9694889486C79EC79C47
:06012000380EC66E12004D
:100126003A6A3B6A3B50120802E13A508E0807E3EE
:1001360085DF005201E003D03A4A3B2AF3D7120E7C
:100146003B5C02E18F0E3A5C03E37B0E006E12000D
:0C015600C580C5A001D0FDD7006A1200D2
:100162009E963AC0C9FFC7A401D0FDD79EB601D062
:10017200FDD7C5BC02D0006A1200C584020E006E13
:02018200120069
:0C01840033903AC03EF068DF3380120078
:100190000900F5CFE6FF0006FBE10106F9E11200D8
:1001A0000FD0800E356E19D0C00E356E16D0940E5D
:1001B000356E13D0D40E356E10D0800E356E0DD046
:1001C0003550010AEEE03550020AEEE03550030AE0
:1001D000EEE03550040AEEE0F0D73604006E3550FC
:1001E000002600C035F000C03EF038DF3390396A99
:1001F00039503724E96E000E3820EA6EEE520BE0DB
:1002000039503724E96E000E3820EA6EEECF3AF00E
:0A021000B9DF392AEDD73380120060
:10021A00969296949598959A959C959E8492849494
:10022A00839E839C839A8398F4DEF3DEF2DE838ACC
:10023A0083888482FEDE8492ECDE8482FADE8492F3
:10024A00E8DE8482F6DE8492E4DE83988482F1DE3C
:10025A008492DFDE8482EDDE8492839A838E8482A6
:10026A00E8DE8492D6DE839E83888482E2DE8492EC
:10027A0083988482DEDE8492CCDE8482DADE849203
:10028A0083888482D6DE8492C4DE83988482D1DE17
:10029A008492838E838C838A83888482CADE849242
:0602AA00B8DE33801200F3
:1002B0003ADFA00E3A6E55DF35C03AF052DF0EDF5E
:1002C000A10E3A6E4EDF3A6A0EDF00C036F004DF50
:0602D00036C000F0120030
:1002D6000FD0800E356E19D0C00E356E16D0940E26
:1002E600356E13D0D40E356E10D0800E356E0DD00F
:1002F6003550010AEEE03550020AEEE03550030AA9
:10030600EEE03550040AEEE0F0D73604006E3550C4
:10031600002600C035F0338000C03EF09CDE3390EE
:0A03260037C03EF098DE338012006D
:10033000140EC86EEDDEF7DEA00E3A6E12DF35C089
:0E0340003AF00FDF36C03AF00CDFC6DE1200D6
:10034E000FEC02F0936A956A966A0F0EC16E5EDF2D
:10035E00010E3E6E7CDE0C0E3E6E79DE010E356EAB
:10036E00010E366E150E376E000E386E12DF346AC1
:10037E00100E345C15E234C035F03450300F366E4A
:10038E00D0DF020E0B6E040E0C6EBA0E0D6E0D2E1D
:10039E00FED70C2EFCD70B2EFAD70000342AE8D746
:1003AE00010E356E010E366E240E376E000E386E4F
:1003BE00F0DE346A100E345C1AE234C035F071DFB0
:1003CE0000C037F0020E356E3450010F366E7CDFF2
:1003DE00020E0B6E040E0C6EBA0E0D6E0D2EFED7A7
:1003EE000C2EFCD70B2EFAD70000342AE3D7FFD7FA
:0203FE00FFD727
:10041E0010EE15F01E0E006E010E016E000EF66E41
:0E042E00040EF76E000EF86EC8EC00F012001F
:0F040000457363722E206E612032344330340016
:0F040F004C69646F206461203234433034200024
:020000040030CA
:0D00010002191EFF8181FF0FC00FE00F40AC
:00000001FF
