:1000000092EF01F00000000000EF00F0000000009F
:0A0010000000000000000000F3D71C
:0A001C00210E0D6E0D2EFED712000E
:100026000F0E0C6E470E0D6E0D2EFED70C2EFCD746
:06003600000000001200B2
:06003C00000000001200AC
:1000420031BE02D0839E01D0838E31BC02D0839C0C
:1000520001D0838C31BA02D0839A01D0838A31B81D
:1000620002D0839801D0838828B002D0848401D042
:1000720084948482E2DF849231B602D0839E01D0DE
:10008200838E31B402D0839C01D0838C31B202D0F2
:10009200839A01D0838A31B002D0839801D08388B9
:1000A20028B002D0848401D084948482C6DF8492F2
:0C00B20028A002D0B7DF01D0B0DF1200A0
:0C00BE00289030C031F0BEDF2880120016
:1000CA00086A096A100E0C6E0134083609360450A3
:1000DA00085E0550D8A0053C095ED8B007D0045088
:1000EA0008260550D8B0053C0926D89000360136B6
:0600FA000C2EEAD71200F3
:0C0100000E0E0D6E0D2EFED7000012003A
:10010C00969296949598959A959C959E84928494A3
:10011C00839E839C839A839880DF7FDF7EDF838A34
:10012C008388848285DF849278DF848281DF849265
:10013C0074DF84827DDF849270DF8398848278DF21
:10014C0084926BDF848274DF8492839A838E8482A0
:10015C006FDF849262DF839E8388848269DF84925E
:10016C008398848265DF849258DF848261DF849275
:10017C00838884825DDF849250DF8398848258DF89
:10018C008492838E838C838A8388848251DF8492C9
:06019C0044DF2880120080
:1001A2000FD0800E296E19D0C00E296E16D0940E73
:1001B200296E13D0D40E296E10D0800E296E0DD068
:1001C2002950010AEEE02950020AEEE02950030A02
:1001D200EEE02950040AEEE0F0D72A04006E29501E
:1001E200002600C029F000C031F02ADF28902D6AD5
:1001F2002D502B24E96E000E2C20EA6EEE520BE0FD
:100202002D502B24E96E000E2C20EA6EEECF30F03A
:0A02120055DF2D2AEDD728801200D9
:10021C00400E316E10DF296A2950070811E3F00EE9
:10022C002924F66E030EF76E000EF722000EF86E00
:10023C00000EF8220900F5CF30F03BDF292AECD76D
:02024C0012009E
:10024E00C26A070EC012C08E29C000F000360090A0
:10025E00003600900050C212C2804BDFC282C2A292
:10026E0001D0FDD7C4CF01F0006AC3500012000EBA
:06027E000112C290120003
:100284000900F5CFE6FF0006FBE10106F9E11200E3
:100294002D6A050E2D5C0AE22D502B24E16E000E12
:1002A4002C20E26E200EE66E2D2AF3D72D502B243F
:1002B400E16E000E2C20E26EE66A2D062D502B24F2
:1002C4002E6E000E2C202F6E0A0E046E000E056E8C
:1002D40029C000F02AC001F0F6DE08C000F009C011
:1002E40001F0300E00262EC0E1FF2FC0E2FF00C057
:1002F400E6FF0A0E046E000E056E29C000F02AC047
:1003040001F0E1DE00C029F001C02AF0000E01185E
:1003140002E1000E001801E102D02D06CFD7120031
:10032400156A166A540E176E450E186E4D0E196E28
:10033400500E1A6E3A0E1B6E200E1C6E1D6A936AC6
:10034400956A949A9492966A816A010EC26E0C0E12
:10035400C16EBE0EC06ED8DE010E316E70DE0C0EA4
:10036400316E6DDE010E296E010E2A6E170E2B6E94
:10037400000E2C6E14DF828A4FDF020E296E65DFB9
:1003840000C015F001C016F000C002F001C003F077
:1003940003320232039E02C015F003C016F002C0FD
:1003A40029F003C02AF01E0E2B6E000E2C6E70DF97
:1003B400010E296E080E2A6E1E0E2B6E000E2C6E78
:1003C400EEDE306A7ADE430E306E77DE020E0B6E9E
:1003D400040E0C6EBA0E0D6E0D2EFED70C2EFCD72D
:0C03E4000B2EFAD700008272C8D7FFD79A
:0803F0000705070000000000F2
:020000040030CA
:0D00010002191EFF8181FF0FC00FE00F40AC
:00000001FF
