:10000000FBEF00F00000000000EF00F00000000037
:0A0010000000000000000000F3D71C
:0A001C00210E0D6E0D2EFED712000E
:100026000F0E0C6E470E0D6E0D2EFED70C2EFCD746
:06003600000000001200B2
:06003C00000000001200AC
:100042003ABE02D0839E01D0838E3ABC02D0839CFA
:1000520001D0838C3ABA02D0839A01D0838A3AB80B
:1000620002D0839801D083882EB002D0848401D03C
:1000720084948482E2DF84923AB602D0839E01D0D5
:10008200838E3AB402D0839C01D0838C3AB202D0E0
:10009200839A01D0838A3AB002D0839801D08388B0
:1000A2002EB002D0848401D084948482C6DF8492EC
:0C00B2002EA002D0B7DF01D0B0DF12009A
:0C00BE002E9039C03AF0BEDF2E801200F8
:1000CA000FD0800E346E19D0C00E346E16D0940E36
:1000DA00346E13D0D40E346E10D0800E346E0DD020
:1000EA003450010AEEE03450020AEEE03450030ABA
:1000FA00EEE03450040AEEE0F0D73504006E3450D6
:10010A00002600C034F000C03AF096DF2E90386A1C
:10011A0038503624E96E000E3720EA6EEE520BE0B4
:10012A0038503624E96E000E3720EA6EEECF39F0E9
:0A013A00C1DF382AEDD72E80120035
:10014400969296949598959A959C959E849284946B
:10015400839E839C839A839864DF63DF62DF838A50
:100164008388848269DF84925CDF848265DF849281
:1001740058DF848261DF849254DF839884825CDF59
:1001840084924FDF848258DF8492839A838E8482A0
:1001940053DF849246DF839E838884824DDF84927A
:1001A4008398848249DF84923CDF848245DF849291
:1001B4008388848241DF849234DF839884823CDFA5
:1001C4008492838E838C838A8388848235DF8492AD
:0601D40028DF2E8012005E
:0C01DA003450000A02E03406FBD712008B
:1001E6000900F5CFE6FF0006FBE10106F9E1120082
:1001F6008AEC01F0956A936A946A0F0EC16E966A4C
:10020600816A836A9CDF010E3A6E18DF0C0E3A6E25
:1002160015DF010E346E010E356E220E366E000E9F
:10022600376E50DF020E346E010E356E150E366EC9
:10023600000E376E47DF0B0E0B6E260E0C6E5D0E34
:100246000D6E0D2EFED70C2EFCD70B2EFAD7000006
:1002560000008284010E2F6E080E306E316A326AFB
:100266002FC083FF3150000A0CE12FC001F0013688
:10027600019001C02FF00150800A02E1010E316E9B
:100286000AD02FC001F00132019E01C02FF00150AB
:10029600010A01E1316A336A33501E0A05E0FA0E9B
:1002A600346E98DF332AF8D730C081FF3250000A07
:1002B6000CE130C001F00136019001C030F0015070
:1002C600800A02E1010E326E0AD030C001F001321E
:1002D600019E01C030F00150010A01E1326A336A21
:1002E60033501E0A05E0FA0E346E74DF332AF8D74F
:0402F600B7D7FFD7A0
:1003140010EE15F0190E006E010E016EFA0EF66E57
:0E032400020EF76E000EF86EF3EC00F0120001
:0D02FA00202050696347656E696F73200016
:0C0307004D6963726F67656E696F73006B
:020000040030CA
:0D000100021F1EFF8381FF0FC00FE00F40A4
:00000001FF
