:100000005BEF00F00000000016EF00F000000000C1
:0C001000000000000000000033EF00F0D2
:10001C000900F5CFE6FF0006FBE10106F9E112004D
:10002C0000C01BF001C01AF0A1A212D00B0EB36ECF
:10003C00DC0EB26EA1921CC001F00136019001C021
:10004C001CF00150000A02E1010E1C6E1CC083FF63
:0A005C001BC000F01AC001F01100F3
:1000660000C019F001C018F0156ED8CF16F0E0CF19
:1000760017F09EA012D00B0ECF6EDC0ECE6E9E90A9
:100086001DC001F00132019E01C01DF00150000AA1
:1000960002E1800E1D6E1DC081FF1750E06E1650E6
:1000A600D86E153A153819C000F018C001F01000C6
:1000B600010E1C6E800E1D6E936A956A816A836AB4
:1000C600CD8ECD8ACD88CD920B0ECF6EDC0ECE6E48
:1000D6009D809E909F90CD80B18EB18AB198B1924D
:1000E6000B0ECF6EDC0ECE6EA082A192B180A282E4
:0A00F600D08EF28EF28CFFD7FFD7F8
:020000040030CA
:0D00010002191EFF8181FF0FC00FE00F40AC
:00000001FF
