:0400000015EF0EF0FA
:020006001200E6
:1000080000C016F001C015F09EAA09D0D2EC0CF081
:1000180000C017F000C07CF1CBEC0CF09E9A16C023
:0800280000F015C001F0110009
:100030008386FF0E936E8392030E8114016E01502E
:0A004000030A01E0F9D783821200E1
:06004A000000000012009E
:100050008396936A7BC181FF8390F7DFF6DFF5DF3C
:040060008380120087
:10006400E5DF936A7BC181FF8390EDDFECDFEBDF9B
:040074008380120073
:10007800086A096A100E0C6E0134083609360450F5
:10008800085E0550D8A0053C095ED8B007D00450DA
:1000980008260550D8B0053C0926D8900036013608
:0600A8000C2EEAD7120045
:1000AE000B6A0A6A096A00500402F4CF09F0F3CF12
:1000BE0008F001500502F4CF0BF0F3CF0AF0005018
:1000CE000502F3500926F4500A22E86A0B22015069
:1000DE000402F3500926F4500A22E86A0B2208C0E3
:1000EE0000F009C001F00AC002F00BC003F01200CC
:1000FE002A500101755D02E12950745DD8B01200DD
:10010E002850775D02E12750765DD8B01200800E40
:10011E007519006E800E005C02E1000E745DD8A0B1
:10012E001200800E7719006E800E005C02E1000E48
:10013E00765DD8A0120025C004F026C005F074C16B
:10014E0000F075C101F091DF00C079F176C100F0C9
:10015E0077C101F02BC004F02CC005F0A1DF79515E
:10016E000026000E01225D500024036E5E50012019
:10017E00046E04C000F0016A00C07AF103C07BF186
:10018E0060DF7AC17BF15DDF240E7B6F64DFF00EE2
:10019E00010178117B6F25C004F026C005F074C1F3
:1001AE0000F075C101F061DF08C000F009C001F078
:1001BE000050255C006E000600507B134CDF1200D1
:1001CE0001016151655D016E62516659026E01C099
:1001DE006CF102C06DF15F51635D6E6F60516459D9
:1001EE006F6F800E0218006E800E005C02E1000E32
:1001FE00015C0BE26C5100086C6F6D51000E6D5777
:10020E00FF0E726FFF0E736F04D0010E726F000E31
:10021E00736F800E6F19006E800E005C02E1000E8F
:10022E006E5D0BE26E5100086E6F6F51000E6F57D0
:10023E00FF0E706FFF0E716F04D0010E706F000E07
:10024E00716F6C376C916D376E376E916F375FC112
:10025E0074F160C175F161C176F162C177F167C168
:10026E0078F146DF800E01016D19006E800E6F1958
:10027E00005C02E16E516C5D42E26EC100F06FC136
:10028E0001F001320032019E01BC018E00506C5D06
:10029E00686F01506D59696F01016051641902E177
:1002AE0063515F192BE0800E6919006E800E005CA1
:1002BE0002E1000E685D08E37251612773516223FB
:1002CE006E51685F6F51695B70515F25006E7151A1
:1002DE006021016E00C05FF101C060F16C516827B2
:1002EE006D51692300C074F101C075F161C176F1E1
:1002FE0062C177F167C178F1FBDECED742D06CC117
:10030E0000F06DC101F001320032019E01BC018E80
:10031E00005001016E5D6A6F01506F596B6F0101E4
:10032E006251661902E1655161192BE0800E6B195D
:10033E00006E800E005C02E1000E6A5D08E37051F3
:10034E005F27715160236C516A5F6D516B5B725107
:10035E006125006E73516221016E00C061F101C012
:10036E0062F16E516A276F516B235FC174F160C1E8
:10037E0075F100C076F101C077F167C178F1B8DE92
:04038E00CED71200B4
:10039200800E01015B19006E800E5719005C02E1AC
:1003A20056515A5D17E356C15FF157C160F158C10A
:1003B20061F159C162F156C163F157C164F15CC187
:1003C20065F15DC166F15EC167F100DF0101564B67
:0603D200572BDED71200DC
:1003D80057C100F0016A00C059F156C17BF134DE03
:0E03E80059C17BF131DE58C17BF138DE1200C5
:1003F60040C17BF134DE3FC100F0000E016E2BC020
:1004060004F02CC005F050DE01013E510024566F69
:10041600000E0120576F1C5156271D515723240EDD
:10042600586FD7DF3CC1E9FF3DC1EAFFEE520FE04E
:100436003CC1E9FF3DC1EAFF200EEE5C01017B6F86
:1004460004DE3C4B3D2BC00E7B6F09DEEBD7120062
:100456003CC15FF13DC160F13EC161F13FC162F156
:1004660040C163F141C164F13EC165F13FC166F12E
:1004760044C167F1A9DE40C15FF141C160F13EC1EF
:1004860061F13FC162F140C163F141C164F142C112
:1004960065F143C166F144C167F196DE40C15FF183
:1004A60041C160F142C161F143C162F13CC163F1F6
:1004B6003DC164F142C165F143C166F144C167F1D2
:1004C60083DE3CC15FF13DC160F142C161F143C1D0
:1004D60062F13CC163F13DC164F13EC165F13FC1CA
:0A04E60066F144C167F170DE1200F8
:1004F000010140513C5D016E01C055F1800E0118B3
:10050000006E800E000A005C17E255510008036E71
:10051000046A000E55BFFF0E045A44C101F045C1E4
:1005200002F00136019002360250045C02E10150F3
:10053000035CD8A0120012D044C101F045C102F002
:10054000013601900236000E55BFFF0E006E0250BC
:10055000005C02E10150555DD8A0120042513E5DA1
:10056000016E01C055F1800E0118006E800E000A68
:10057000005C17E255510008036E046A000E55BF77
:10058000FF0E045A44C101F045C102F0013601904A
:1005900002360250045C02E10150035CD8A0120054
:1005A00012D044C101F045C102F00136019002367B
:1005B000000E55BFFF0E006E0250005C02E10150BC
:1005C000555DD8A012003CC156F13DC157F14451D0
:1005D0003E25586F45513F21596F40C15AF141C1E5
:1005E0005BF14451425D5C6F455143595D6F46C1BB
:1005F0005EF1CFDE4B6B4C6B44513E25006E455196
:100600003F21016E4451405D046E45514159056ED4
:100610000450005C4D6F055001584E6F44513C250D
:10062000026E45513D21036E0250005C4F6F035036
:100630000158506F4451425D006E45514359016E5F
:100640000250005C516F03500158526F0450005C1F
:10065000536F05500158546F44C149F145C14AF1E7
:1006600044C100F045C101F000360090013600C0E1
:1006700047F101C048F100500308476F01C048F13D
:10068000000E4857010E4925016E000E4A21026EE8
:10069000800E4C19006E800E0218005C02E10150C1
:1006A0004B5DD8B0E7D044513C255F6F45513D21AB
:1006B000606F4B515F5F4C51605B4451425D006E17
:1006C00045514359016E495100264A51012200C04B
:1006D00061F101C062F14451405D636F4551415980
:1006E000646F4B5163274C51642300C065F101C016
:1006F00066F146C167F16BDD010144513C255F6F36
:1007000045513D21606F4B515F5F4C51605B4451DF
:100710003E25006E45513F21016E4951005E4A5110
:10072000015A00C061F101C062F14451405D636F44
:1007300045514159646F4B5163274C51642300C0AC
:1007400065F101C066F146C167F141DD0101445127
:10075000425D026E45514359036E495102245F6F59
:100760004A510320606F53515F5F5451605B4B519E
:100770000224006E4C510320016E00C061F101C0E3
:1007800062F14951025C636F4A510358646F5151E1
:10079000635F5251645B00C065F101C066F146C100
:1007A00067F115DD010144513E25026E45513F219F
:1007B000036E4951025C5F6F4A510358606F4F519D
:1007C0005F5F5051605B4B51025C006E4C510358AF
:1007D000016E00C061F101C062F149510224636FF2
:1007E0004A510320646F4D51635F4E51645B00C0FA
:1007F00065F101C066F146C167F1E9DC800E0101D7
:100800004819006E800E005C02E1000E475D13E2A5
:100810004BC100F04CC101F00036009001360036AB
:1008200000900136060E0026000E012200504727D8
:10083000015048231CD049514B5D036E4A514C591D
:10084000046E03C000F004C001F0003600900136D1
:100850000036009001360A0E0026000E01220050DC
:10086000472701504823010E495F000E4A5B4B4B5E
:060870004C2B08D712001A
:10087600010140513C5D016E01C055F1800E011829
:10088600006E800E000A005C17E255510008036EE8
:10089600046A000E55BFFF0E045A44C101F045C15B
:1008A60002F00136019002360250045C02E101506A
:1008B600035CD8A0120012D044C101F045C102F079
:1008C600013601900236000E55BFFF0E006E025033
:1008D600005C02E10150555DD8A0120042513E5D18
:1008E600016E01C055F1800E0118006E800E000ADF
:1008F600005C17E255510008036E046A000E55BFEE
:10090600FF0E045A44C101F045C102F001360190C0
:1009160002360250045C02E10150035CD8A01200CA
:1009260012D044C101F045C102F0013601900236F1
:10093600000E55BFFF0E006E0250005C02E1015032
:10094600555DD8A0120044513C255F6F45513D21AD
:10095600606F3EC161F13FC162F14451405D636F1A
:1009660045514159646F3EC165F13FC166F146C1CB
:1009760067F12ADC010144513C255F6F45513D2159
:10098600606F42C161F143C162F14451405D636FE2
:1009960045514159646F42C165F143C166F146C193
:1009A60067F112DC3CC15FF13DC160F101014451C8
:1009B6003E25616F45513F21626F3CC163F13DC1E8
:1009C60064F14451425D656F45514359666F46C1B6
:1009D60067F1E7EC00F040C15FF141C160F1010150
:1009E60044513E25616F45513F21626F40C163F11D
:1009F60041C164F14451425D656F45514359666F8B
:100A060046C167F1E7EC00F001014B6B4C6B4451BA
:100A16003E25006E45513F21016E4451405D046EF6
:100A260045514159056E0450005C4D6F0550015803
:100A36004E6F44513C25026E45513D21036E0250D6
:100A4600005C4F6F03500158506F4451425D006E79
:100A560045514359016E0250005C516F03500158D5
:100A6600526F0450005C536F05500158546F44C1D7
:100A760049F145C14AF144C100F045C101F00036D3
:100A86000090013600C047F101C048F1005003084C
:100A9600476F01C048F1000E4857010E4925016E07
:100AA600000E4A21026E800E4C19006E800E02184E
:100AB600005C02E101504B5DD8B00BD144513C259E
:100AC600746F45513D21756F4B51745F4C51755B89
:100AD6004451425D766F45514359776F49517627A8
:100AE6004A51772346C178F17FEC00F00101445169
:100AF600405D746F45514159756F4B5174274C5188
:100B060075234451425D766F45514359776F49517C
:100B160076274A51772346C178F17FEC00F0010130
:100B260044513C25746F45513D21756F4B51745F9F
:100B36004C51755B44513E25766F45513F21776F89
:100B46004951765F4A51775B46C178F17FEC00F0F8
:100B560001014451405D746F45514159756F4B51C8
:100B660074274C51752344513E25766F45513F21DC
:100B7600776F4951765F4A51775B46C178F17FECD2
:100B860000F001014451425D006E45514359016E2A
:100B960049510024746F4A510120756F5351745F97
:100BA6005451755B4B510024766F4C510120776F81
:100BB60046C178F17FEC00F001014451425D006EC0
:100BC60045514359016E4951005C746F4A510158B1
:100BD600756F5151745F5251755B4B510024766F9E
:100BE6004C510120776F46C178F17FEC00F001018E
:100BF60044513E25006E45513F21016E4951005C2E
:100C0600746F4A510158756F4F51745F5051755B3F
:100C16004B51005C766F4C510158776F46C178F1A5
:100C26007FEC00F0010144513E25006E45513F2105
:100C3600016E49510024746F4A510120756F4D5160
:100C4600745F4E51755B4B51005C766F4C51015889
:100C5600776F46C178F17FEC00F0800E01014819EC
:100C6600006E800E005C02E1000E475D13E24BC190
:100C760000F04CC101F000360090013600360090BD
:100C86000136060E0026000E0122005047270150AD
:100C960048231CD049514B5D036E4A514C59046E92
:100CA60003C000F004C001F00036009001360036A3
:100CB600009001360A0E0026000E0122005047273A
:100CC60001504823010E495F000E4A5B4B4B4C2BEB
:040CD600E4D612004E
:100CDA00020E0B6E040E0C6EBA0E0D6E0D2EFED7A2
:0C0CEA000C2EFCD70B2EFAD700001200D5
:100CF600020E01013525E96E000E3621EA6EEECFB1
:100D060001F001C03CF1000E3D6F030E3525E96E82
:100D1600000E3621EA6EEECF00F000C03EF1000E66
:100D26003F6F040E3525D96E000E3621DA6EDE5081
:100D36000124406F416B000E4123010E405F000EFF
:100D4600415B050E3525D96E000E3621DA6EDE5072
:100D56000024426F436B000E4323010E425F000ED8
:100D6600435B060E3525E96E000E3621EA6EEECFA0
:100D760044F1000E456F000E456F080E466F78EC85
:100D860002F0040E3525E96E000E3621EA6E050ED8
:100D9600EE5C53E3050E3525E96E000E3621EA6E4C
:100DA600050EEE5C4AE3020E3525E96E000E36218D
:100DB600EA6EEECF01F00150010F3C6F3D6B000E65
:100DC6003D23030E3525E96E000E3621EA6EEECF81
:100DD60000F00050010F3E6F3F6B000E3F23040EE4
:100DE6003525D96E000E3621DA6EDE500124406FAD
:100DF600416B000E4123020E405F000E415B050E63
:100E06003525D96E000E3621DA6EDE500024426F8B
:100E1600436B000E4323020E425F000E435B060E39
:100E26003525E96E000E3621EA6EEECF44F1000E4E
:0C0E3600456F000E456F466B1BDD12007F
:100E4200020E01013525E96E000E3621EA6EEECF63
:100E520001F001C056F1000E576F030E3525E96E01
:100E6200000E3621EA6EEECF00F000C058F1000EFF
:100E7200596F040E3525D96E000E3621DA6EDE501A
:100E820001245A6F5B6B000E5B23010E5A5F000E4A
:100E92005B5B050E3525D96E000E3621DA6EDE500B
:100EA20000245C6F5D6B000E5D23010E5C5F000E23
:100EB2005D5B080E5E6FC9EC01F0040E3525E96E2C
:100EC200000E3621EA6E050EEE5C48E3050E35256E
:100ED200E96E000E3621EA6E050EEE5C3FE3020E6D
:100EE2003525E96E000E3621EA6EEECF01F0015093
:100EF200010F3C6F3D6B000E3D23030E3525E96E5D
:100F0200000E3621EA6EEECF00F00050010F3E6F68
:100F12003F6B000E3F23040E3525D96E000E36219D
:100F2200DA6EDE500124406F416B000E4123020E47
:100F3200405F000E415B050E3525D96E000E36214D
:100F4200DA6EDE500024426F436B000E4323020E22
:0E0F5200425F000E435B446B2BEC02F012007A
:100F600001013A6B3B6B18EC00F0010136515D2436
:100F7000566F37515E20576F240E586FECEC01F01E
:100F8000B00E01017B6F32EC00F08396936A010191
:100F900039513B5D02E138513A5D0DE235C181FFC7
:100FA000839025EC00F025EC00F025EC00F0838028
:100FB0003A4B3B2BECD7B20E7B6F32EC00F01200B9
:100FC000020E01013525E96E000E3621EA6EEECFE4
:100FD00001F001C03CF1000E3D6F030E3525E96EB6
:100FE000000E3621EA6EEECF00F000C03EF1000E9A
:100FF0003F6F040E3525D96E000E3621DA6EDE50B5
:101000000124406F416B000E4123010E405F000E32
:10101000415B050E3525D96E000E3621DA6EDE50A5
:101020000024426F436B000E4323010E425F000E0B
:10103000435B070E3525E96E000E3621EA6EEECFD2
:1010400044F1000E456F000E456F080E466F78ECB8
:1010500002F0040E3525E96E000E3621EA6E050E0B
:10106000EE5C54E3050E3525E96E000E3621EA6E7E
:10107000050EEE5C4BE3020E3525E96E000E3621BF
:10108000EA6EEECF01F00150010F3C6F3D6B000E98
:101090003D23030E3525E96E000E3621EA6EEECFB4
:1010A00000F00050010F3E6F3F6B000E3F23040E17
:1010B0003525D96E000E3621DA6EDE500124406FE0
:1010C000416B000E4123020E405F000E415B050E96
:1010D0003525D96E000E3621DA6EDE500024426FBF
:1010E000436B000E4323020E425F000E435B070E6C
:1010F0003525E96E000E3621EA6EEECF44F1000E82
:10110000456F000E456F466B3BEC04F0080E35252D
:10111000E96E000E3621EA6EEECF3CF1EECF3DF1E6
:10112000020E3525E96E000E3621EA6E060E3525D3
:10113000D96E000E3621DA6EDECF05F00550EE24B2
:10114000006E016A000E0122020E0024036E000EE2
:101150000120046E030E026E03C000F004C001F013
:10116000025007E001320032019E01BC018EFF0FE8
:10117000F8D700C03EF1030E3525E96E000E36218A
:10118000EA6E0550EE24006E016A000E0122020E86
:101190000024036E000E0120046E030E026E03C0D5
:1011A00000F004C001F0025007E001320032019E5D
:1011B00001BC018EFF0FF8D700C03FF1810E406FD8
:0611C000FBEC01F012003F
:1011C6000101316B326B77C0E9FF78C0EAFFEECFE1
:1011D60001F0EECF02F00250325D02E10150315DC6
:1011E60031E2020E7724E96E000E7820EA6EEECF29
:1011F60003F0EECF04F031C100F032C101F0003649
:101206000090013600500324E96E01500420EA6E76
:10121600EECF00F0EECF01F000C033F101C034F1A3
:10122600060E0024E96E000E0120EA6EEE50010A59
:1012360005E133C135F134C136F100DE0101314B30
:06124600322BC1D712009B
:10124C0031C129F032C12AF033C127F0000E286ECB
:10125C0034C125F0000E266E25C004F026C005F022
:10126C0031C100F032C101F03CEC00F000C02BF0B9
:10127C0001C02CF027C004F028C005F057EC00F09A
:10128C0000C079F001C07AF027C000F028C001F04E
:10129C0001320032019E01320032019E01320032D5
:1012AC00019E2BC004F02CC005F057EC00F000C0E0
:1012BC007BF001C07CF095909592959695988380E3
:1012CC00838283868388FF0E936E839800DD8388E8
:1012DC00FEDC810E01017B6F32EC00F034C104F0B6
:1012EC00000E056E29C000F02AC001F03CEC00F0A5
:1012FC0000C056F101C057F1430E0101586FECECE0
:10130C0001F02BC056F12CC057F1410E0101586F62
:10131C00ECEC01F07B5079240101386F7C507A2081
:10132C00396F5D6A5E6A79C01CF17AC01DF1356B4C
:10133C00366B376B0FDE900E0001F06F0101566BB0
:10134C00576B420E586FECEC01F079C056F17AC035
:0E135C0057F1400E0101586FECEC01F0120049
:10136A000101316B326B080E7724D96E000E78209A
:10137A00DA6EDECF01F0DECF02F00250325D02E11A
:10138A000150315D31E20A0E7724E96E000E7820B1
:10139A00EA6EEECF03F0EECF04F031C100F032C1B5
:1013AA0001F000360090013600500324E96E015026
:1013BA000420EA6EEECF00F0EECF01F000C033F168
:1013CA0001C034F1110E0024E96E000E0120EA6E0C
:1013DA00EE50010A05E133C135F134C136F1EBDDD6
:0A13EA000101314B322BBFD7120076
:1013F4000B840BAE05EF0AF0010E036E026A016A5C
:0A140400006A0A360232FF0E1200E1
:0E140E00026A016A006A086A036A000E120090
:08141C000AAE029E000E120050
:101424000101316B326B040E7724D96E000E7820E3
:10143400DA6EDECF01F0DECF02F00250325D02E15F
:101444000150315D30E2060E7724E96E000E7820FB
:10145400EA6EEECF03F0EECF04F031C100F032C1FA
:1014640001F000360090013600500324E96E01506B
:101474000420EA6EEECF00F0EECF01F000C033F1AD
:1014840001C034F1070E0024E96E000E0120EA6E5B
:10149400EE50010A05E133C135F134C136F129DCDE
:0814A400314B322BC0D71200BE
:1014AC000C6A0E6A0250D8A46FEF0AF001C002F069
:1014BC0000C001F0006A0E860250D8A46FEF0AF04B
:1014CC0001C002F0016A0E960E880250D8B481EF6A
:1014DC000AF00E50035ED8A4D8A086EF0AF0D8907C
:1014EC0002BE8BEF0AF0003601360236032E76EF81
:1014FC000AF086EF0AF0010E0C6E83DF8EEF0AF015
:10150C00020E0C6E71DF8EEF0AF0040E0C6E80DF93
:02151C001200BB
:10151E007D6A7E6A040E0001816F000E826FAD0E31
:10152E00836F000E846F010E856F000E866FAB0EFB
:10153E00876F000E886F890EAB6F000EAC6F5F0E5B
:10154E00AD6F000EAE6F450EAF6F000EB06F2D0E6D
:10155E00B16F000EB26FB50EB36F000EB46F020E08
:10156E0001010C6F000E0D6F180E0E6F010E0F6F36
:10157E00106B116B146B156BF50E186F000E196F47
:10158E00D10E1A6F000E1B6F7D0E0001896F000EBB
:10159E008A6F0B0E8B6F030E8C6F6A0E8D6F120E91
:1015AE008E6F030E8F6F040E906F180E916F000EDC
:1015BE00926F936B946B956B070E966F070E976FEA
:1015CE00200E986F020E996F010E9A6F9B6B9C6B9B
:1015DE009D6B9E6B9F6BA06BA16BA26BA36BA46BA1
:1015EE00A56BA66BA76BA86BA96BAA6B7D0E5F6E26
:1015FE00000E606E0C0E616E230E626E140E636E24
:10160E000C0E646E040E656E010E666E676A686A75
:10161E00696A6A6A6B6A6C6A6D6A6E6A6F6A706A08
:10162E00716A726A736A746A756A766A7D0E456E3D
:10163E00000E466E280E476E230E486E140E496E2F
:10164E000C0E4A6E040E4B6E010E4C6E4D6A4E6AB7
:10165E004F6A506A516A526A536A546A556A566A98
:10166E00576A586A596A5A6A5B6A5C6A7D0E2D6EB1
:10167E00000E2E6E450E2F6E230E306E140E316E32
:10168E000C0E326E040E336E010E346E356A366AEF
:10169E00376A386A396A3A6A3B6A3C6A3D6A3E6A18
:1016AE003F6A406A416A426A436A446A7D0EB56F78
:1016BE00000EB66F610EB76F230EB86F140EB96FB2
:1016CE000C0EBA6F040EBB6F010EBC6FBD6BBE6B02
:1016DE00BF6BC06BC16BC26BC36BC46BC56BC66B90
:1016EE00C76BC86BC96BCA6BCB6BCC6B0C0EF56F33
:1016FE00010EF66F0C0EF76F0C0EF86F140EF96FDD
:10170E000C0EFA6F010EFB6FFC6BFD6BFE6BFF6B2D
:10171E000101006B016B026B036B046B056B066BB7
:10172E00076B086B096B0A6B0B6B0C0E0001D16F0C
:10173E00010ED26F240ED36F0C0ED46F140ED56F14
:10174E000C0ED66F010ED76FD86BD96BDA6BDB6BC5
:10175E00DC6BDD6BDE6BDF6BE06BE16BE26BE36B27
:0A176E00E46BE56BE66BE76B12001D
:10177800800E0101316F000E326F400E336F080E7C
:10178800346F60DD0001F087F0C07BF132EC00F0CF
:101798000001F085F0C07BF132EC00F00001F0931D
:0A17A800F0C07BF132EC00F01200FB
:1017B2000B820BAEE3EF0BF003680268016800686E
:0817C2000A360232FF0E12008C
:1017CA000B800BAEF1EF0BF0026A0AAEFF0E026E4F
:0C17DA00016E006E0A360232FF0E120093
:0C17E6000E0E0D6E0D2EFED7000012003E
:1017F2000101356B366B376B79C038F17AC039F13C
:10180200B0EC07F00101356B79C036F17AC037F1DF
:101812007BC038F17CC039F1B0EC07F02FC177F012
:0C18220030C178F0CFDCFDDD9FDD12004E
:10182E00086A096A000E076203649CEF0CF002500E
:10183E0006180A6E075003267E0ED8A02DEF0CF068
:10184E00035ED8B0A0EF0CF031EF0CF0035ED8A021
:10185E00A4EF0CF0028E068E02C00EF001C00BF04B
:10186E0000C00DF000500402F4CF0CF00150050240
:10187E00F4CF00F0F3CF08F00402F3500C26F4502E
:10188E000822000E00220D500502F3500C26F450D3
:10189E000822000E002202500402F3500826F450D3
:1018AE00002202500502016A000E0122F3500026AA
:1018BE00F45001220D500602F3500826F450002277
:1018CE00026A000E012202220B500602F35000267D
:1018DE00F4500122000E02220E500602F350012691
:1018EE00F450022202BE84EF0CF0083600360136A8
:1018FE0002360306D8B4A4EF0CF097EF0CF0D880A4
:10190E00800E08640030000E002201220222D8A0B0
:10191E0097EF0CF0023201320032034AA0EF0CF0C6
:10192E000AAE029E000EA6EF0CF0010E69DDA6EFC8
:10193E000CF0020E37DFA6EF0CF0040E54DD120091
:10194E00C26A070EC012C08E28C100F00036009089
:10195E00003600900050C212C2803EDFC282C2A288
:10196E0001D0FDD7C4CF01F0006AC3500012000EA3
:06197E000112C2901200EC
:10198400F9DECBDD0C0E01012F6F010E306F2FDF5E
:0219940012003F
:0E199600ACB202D00000FCD77CC1ADFF120045
:1019A400AECF01F0ABA202D0AB98AB8801C000F07F
:0219B40012001F
:1019B600960E0001F16F190EF26F7C0EF36F010E99
:1019C600F46FA40EE86F190EE96F000EEA6F000EB1
:1019D600EB6FFF0ECD6FFF0ECE6F000ECF6F000EBA
:1019E600D06FFF0EEC6FFF0EED6F000EEE6F000E68
:1019F600EF6FAC8A900EAB6E948E949C9EAA03D029
:081A0600AECF00F0FBD7120087
:101A0E0001012C6B050E2C5D0AE22C512A25E16E8C
:101A1E00000E2B21E26E200EE66E2C2BF3D72C51EE
:101A2E002A25E16E000E2B21E26EE66A2C072C5160
:101A3E002A252D6F000E2B212E6F0A0E046E000E1E
:101A4E00056E28C100F029C101F03CEC00F008C081
:101A5E0000F009C001F0300E00262DC1E1FF2EC1AD
:101A6E00E2FF00C0E6FF0A0E046E000E056E28C1EE
:101A7E0000F029C101F03CEC00F000C028F101C0DB
:101A8E0029F1000E011802E1000E001801E102D04A
:061A9E002C07CDD7120059
:101AA4000050086E0150006E016A026A036A0B6AF4
:101AB4000C6A960E036E0A6A00C001F008C000F0BA
:081AC400086A026AF1DC12005D
:101ACC000B6A0C6A0A6A0350D8B4B0EF0DF0028EA0
:101ADC008E0E035E03BE78EF0DF0D8B478EF0DF0E8
:101AEC00B4EF0DF0036C080E035CD8A08FEF0DF073
:101AFC00036E013602C001F0026A080E035CD8A026
:101B0C008FEF0DF00136016A0350D8A4D89099EFED
:101B1C000DF00350D8B499EF0DF0D8900232013289
:101B2C00032E93EF0DF00BBC01A0A6EF0DF0D8A087
:101B3C00A6EF0DF0012AD8B4022A02BEC3EF0DF0B5
:101B4C000AAEC8EF0DF0021E011E012AD8B4022AFB
:101B5C00C8EF0DF0026A016AC8EF0DF00B800BAEF6
:101B6C00CCEF0DF0026A0AAECCEF0DF0FF0E026E58
:101B7C00016E0A360232CCEF0DF0010E0C6E1FDE38
:101B8C00CEEF0DF0000E0C6ECEEF0DF0FF0E0C6EC6
:0A1B9C000150006E0250016E1200AD
:101BA60001012B6B2C6B18EC00F05DC056F15EC08A
:101BB60057F1240E0101586FECEC01F0B00E010153
:101BC6007B6F32EC00F08396936A7A5001012C5DAC
:101BD60002E179502B5D19E228C1F6FF29C1F7FF12
:101BE6002AC1F8FF0900F5CF81FF010E2827000E54
:101BF60029232A23839025EC00F025EC00F025EC20
:101C060000F083802B4B2C2BE0D7B20E7B6F32EC8F
:041C160000F01200C8
:101C1A000900F5CFE6FF0006FBE10106F9E1120033
:101C2A007EEC10F00F0EC16E956A836A936A816A20
:101C3A00A4DEF28EF28CD08E9E9A9F8A9D8A330EF3
:101C4A00AF6EAC84B3DE43D07D0E01012F6F000E60
:101C5A00306FCADD176A0101286B74DE1EDF080EB9
:101C6A00046E200E056E000E066E7C0E076EDADD1F
:101C7A0028DF00C028F101C029F11E0E01012A6FD8
:101C8A00010E2B6FBFDE250E236F246B1E0E3C6FD9
:101C9A00010E3D6F3E6B070E3F6F810E406FFBECEE
:101CAA0001F01750000AD7E01BD00C0E01012F6F6C
:101CBA00010E306F99DD176A13D00101EE0E286FFD
:101CCA001C0E296F000E2A6F69DF176A09D0175098
:101CDA00410ABAE01750420AE8E01750430AEDE019
:041CEA00B2D7FFD797
:1020FC0010EE17F00E0E006E010E016EEE0EF66E67
:0E210C00200EF76E000EF86E0DEC0EF01200B5
:101CEE007FFFFFFFFFFFFFFFFFFFFFFFFFFFFFFC79
:101CFE007FFFFFFFFFFFFFFFFFFFFFFFFFFFFFFC69
:101D0E007FFFFFFFFFFFFFFFFFFFFFFFFFFFFFFC58
:101D1E007FFFFFFFFFFFFFFFFFFFFFFFFFFFFFFC48
:101D2E007FFFFFFFFFFFFFFFFFFFFFFFFFFFFFFC38
:101D3E007C00000000000007E00000000000007CB6
:101D4E007C00000000000007E00000000000007CA6
:101D5E007C00000000000007F00000000000007C86
:101D6E007C0000000000000FF00000000000007C6E
:101D7E007C0000000000000FF00000000000007C5E
:101D8E007C0000000000001FF80000000000007C36
:101D9E007C0000000000001FF80000000000007C26
:101DAE007C0000000000003FFC0000000000007CF2
:101DBE007C0000000000003FFC0000000000007CE2
:101DCE007C0000000000003FFC0000000000007CD2
:101DDE007C0000000000007FFE0000000000007C80
:101DEE007C0000000000007FFE0000000000007C70
:101DFE007C000000000000FFFF0000000000007CDF
:101E0E007C000000000000FFFF0000000000007CCE
:101E1E007C000000000000FFFF0000000000007CBE
:101E2E007C000000000001FFFF8000000000007C2D
:101E3E007C000000000001FFFF8000000000007C1D
:101E4E007C000000000003FFFFC000000000007CCB
:101E5E007C000003FFFFFFFFFFFFFFFFC000007CC1
:101E6E007C000007FFFFFFFFFFFFFFFFE000007C8D
:101E7E007C00000FFFFFFFFFFFFFFFFFF000007C65
:101E8E007C00000FFFFFFFFFFFFFFFFFF000007C55
:101E9E007C000007FFFFFFFFFFFFFFFFE000007C5D
:101EAE007C000003FFFFFFFFFFFFFFFFC000007C71
:101EBE007C000000FFFFFFFFFFFFFFFF0000007C24
:101ECE007C0000003FFFFFFFFFFFFFFE0000007CD5
:101EDE007C0000001FFFFFFFFFFFFFF80000007CEB
:101EEE007C00000007FFFFFFFFFFFFE00000007C0B
:101EFE007C00000001FFFFFFFFFFFF800000007C61
:101F0E007C00000000FFFFFFFFFFFF000000007CD1
:101F1E007C000000003FFFFFFFFFFC000000007C84
:101F2E007C000000000FFFFFFFFFF0000000007CB0
:101F3E007C0000000007FFFFFFFFE0000000007CB8
:101F4E007C0000000001FFFFFFFF80000000007C0E
:101F5E007C0000000001FFFFFFFF80000000007CFE
:101F6E007C0000000001FFFFFFFF80000000007CEE
:101F7E007C0000000001FFFFFFFF80000000007CDE
:101F8E007C0000000003FFFFFFFFC0000000007C8C
:101F9E007C0000000003FFFFFFFFC0000000007C7C
:101FAE007C0000000007FFFFFFFFE0000000007C48
:101FBE007C0000000007FFFFFFFFE0000000007C38
:101FCE007C0000000007FFFFFFFFE0000000007C28
:101FDE007C000000000FFFFFFFFFF0000000007C00
:101FEE007C000000000FFFFFFFFFF0000000007CF0
:101FFE007C000000000FFFFE7FFFF0000000007C61
:10200E007C000000001FFFF81FFFF8000000007C9E
:10201E007C000000001F7FE007FEF8000000007C3F
:10202E007C000000003FFFC003FFFC000000007CAE
:10203E007C000000003FFF0000FFFC000000007C61
:10204E007C000000003FFC00003FFC000000007C14
:10205E007C000000007FF000000FFE000000007CFE
:10206E007C000000007FC0000003FE000000007C2A
:10207E007C000000007F80000000FE000000007C5D
:10208E007C000000007E000000007E000000007C4E
:10209E007FFFFFFFFFFFFFFFFFFFFFFFFFFFFFFCC5
:1020AE007FFFFFFFFFFFFFFFFFFFFFFFFFFFFFFCB5
:1020BE007FFFFFFFFFFFFFFFFFFFFFFFFFFFFFFCA5
:1020CE007FFFFFFFFFFFFFFFFFFFFFFFFFFFFFFC95
:1020DE007FFFFFFFFFFFFFFFFFFFFFFFFFFFFFFC85
:0120EE0000F1
:0D20EF0056495355414C20474C43442000B6
:020000040030CA
:0D000100021F1EFF8181FF0FC00FE00F40A6
:00000001FF
