:1000000023EF17F00000000000EF00F000000000F8
:0A0010000000000000000000F3D71C
:10001C007CC1C9FFC7B002D00000FCD7C9CF00F02B
:02002C001200C0
:10002E007CC1C9FFC7B002D00000FCD7C9CF00F019
:02003E001200AE
:10004000F250026EF29E0500FF6A0150FE6E0050F3
:08005000FD6E02BEF28E1200EB
:100058008292400E01017911006E78C0E1FF79C0EB
:10006800E2FF00C0E6FF76C000F077C001F0E4DFF1
:1000780078C0E1FF79C0E2FF7AC1E6FF76C000F000
:1000880077C001F0D9DF78C0E1FF79C0E2FF7BC11A
:10009800E6FF76C000F077C001F0CEDF8282120062
:1000A800829278C0E1FF79C0E2FF7A0EE66E76C0F0
:1000B80000F077C001F0C0DF78C0E1FF79C0E2FF4F
:1000C80076C1E6FF76C000F077C001F0B5DF828226
:0200D800120014
:0600DA000000000012000E
:1000E0008292A00E01017611006E78C0E1FF79C006
:1000F000E2FF00C0E6FF76C000F077C001F0A0DFAD
:1001000078C0E1FF79C0E2FF77C1E6FF76C000F07A
:0A01100077C001F095DF8282120033
:10011A000101796B76C17AF177C17BF198DF82921E
:10012A0078C0E1FF79C0E2FF3A0EE66E76C000F0D1
:10013A0077C001F080DF78C0E1FF79C0E2FFE66AAC
:0E014A0076C000F077C001F076DF82821200EE
:0A015800210E0D6E0D2EFED71200D1
:10016200829278C0E1FF79C0E2FF76C1E6FF76C0F5
:1001720000F077C001F063DF78C0E1FF79C0E2FFF1
:10018200E66A76C000F077C001F059DF8282120081
:100192008292800E01017611006E78C0E1FF79C073
:1001A200E2FF00C0E6FF76C000F077C001F047DF53
:1001B20078C0E1FF79C0E2FF77C1E6FF76C000F0C8
:0A01C20077C001F03CDF82821200DA
:1001CC000F0E0C6E470E0D6E0D2EFED70C2EFCD79F
:0601DC000000000012000B
:1001E200020E0101796F76C17AF177C17BF133DFBB
:1001F200829278C0E1FF79C0E2FF7A0EE66E76C0A5
:1002020000F077C001F01BDF78C0E1FF79C0E2FFA8
:1002120078C1E6FF76C000F077C001F010DF82827D
:020222001200C8
:100224006CC176F16DC177F16EC178F1D8DF6FC121
:0602340076F138DF120034
:10023A0001016CBF02D0839E01D0838E6CBD02D0B7
:10024A00839C01D0838C6CBB02D0839A01D0838AB1
:10025A006CB902D0839801D0838800018CB102D096
:10026A00848401D08494848233DF849201016CB740
:10027A0002D0839E01D0838E6CB502D0839C01D0BC
:10028A00838C6CB302D0839A01D0838A6CB102D07A
:10029A00839801D0838800018CB102D0848401D074
:1002AA008494848215DF84928CA102D08ADF01D0E3
:0402BA004EDF120001
:1002BE00AE0E0101766F190E776F786B8BDFAE0E77
:1002CE0001016C25006E190E6D21016E00C06CF1DE
:1002DE0001C06DF1060E796F00C07AF101C07BF19D
:1002EE00B4DE1F0E0101766F800E776F4BDF1F0E8F
:1002FE000101766F800E776FECDE5D50050A04E02B
:10030E005D50070A01E006D01C0E0101766F0A0E41
:10031E00776FDFDE1F0E0101766F080E776F32DF0B
:10032E005D50050A04E05D50070A01E080D001012E
:10033E00706B716B1C0E766F0DDF0A0E001600527D
:10034E000AE10101704B712B030E715D02E1E80EA3
:10035E00705D01E2EFD701011C0E766FFBDE00B27D
:10036E0008D0030E0101715D02E1E80E705D01E23D
:10037E005DD001011F0E766F080E776FAADE040E98
:10038E0001016C25766F000E6D21776FBFDE00C008
:10039E006FF101016E6B100E6E5D48E21C0E766FF2
:1003AE00D9DE00A23FD001016FAB3CD01F0E766F9D
:1003BE00800E776FE7DE1F0E0101766F800E776F6E
:1003CE0088DE1C0E0101766F0A0E776F82DE1F0E1D
:1003DE000101766F080E776FD5DE0101706B716BC0
:1003EE001C0E766FB7DE0A0E001600520AE10101EE
:1003FE00704B712B030E715D02E1E80E705D01E230
:10040E00EFD701011F0E766F080E776F62DE040EB6
:10041E0001016C25766F000E6D21776F77DE00C0BF
:10042E006FF101D003D001016E2BB5D707D00101BA
:10043E001F0E766F8FDE00A601D0F9D71D0E0101BB
:10044E00766F88DE060E0016005202E0006A02D0B9
:06045E00010E006E120009
:100464000101756B010E6E5F000E6F5B72530DE040
:100474006F51190802E16E51AD0807E2752BAD0EFC
:100484006E5D736F190E6F59746F755305E0AD0E81
:10049400016E190E026E04D06EC101F06FC102F03C
:1004A4006D51021802E101506C190DE16CC176F135
:1004B4006DC177F130DE00C078F170C176F171C1A1
:1004C40077F18DDE36D0100E0101796F6CC17AF1AF
:1004D4006DC17BF1BFDD120E0101796F755305E02B
:1004E400AD0E006E190E016E04D06EC100F06FC126
:1004F40001F000C07AF101C07BF1ACDD140E010102
:10050400796F70C17AF171C17BF1A4DD1F0E010115
:10051400766F100E776FE2DD1F0E0101766F200EED
:10052400776F35DE1F0E0101766F19DE00AA01D048
:10053400F9D7010175531AE06C516E5D006E6D516F
:100544006F59016E7351005E7451015A004A012AB9
:100554000050702701507123010E735D6E6F000E01
:0E05640074596F6F6C6B6D6B756B8FD71200D7
:10057200829278C0E1FF79C0E2FF7A0EE66E76C021
:1005820000F077C001F05BDD6EC100F001016E0783
:10059200005213E078C0E1FF79C0E2FF6CC1E9FFCD
:1005A2006DC1EAFFEECFE6FF76C000F077C001F042
:0E05B20046DD01016C4B6D2BE7D782821200F3
:1005C000020E0101796F6CC17AF16DC17BF144DDDE
:1005D000829278C0E1FF79C0E2FF7A0EE66E76C0C3
:1005E00000F077C001F02CDD0101705314E078C0F9
:1005F000E1FF79C0E2FF6EC1E9FF6FC1EAFFEECF14
:10060000E6FF76C000F077C001F01ADD01016E4B05
:0A0610006F2B7007E9D782821200F9
:10061A0001016E516C25706F6F516D21716F010E62
:10062A00705F000E715B100E796F6CC17AF16DC14B
:10063A007BF10DDD120E0101796F70C17AF171C182
:10064A007BF105DD1F0E0101766F300E776F9CDDA1
:10065A001F0E0101766F80DD00AA01D0F9D71200C2
:10066A00829278C0E1FF79C0E2FF7A0EE66E76C028
:10067A0000F077C001F0DFDC78C0E1FF79C0E2FF6B
:10068A006DC1E6FF76C000F077C001F0D4DC78C017
:10069A00E1FF79C0E2FF6CC1E6FF76C000F077C0E7
:0806AA0001F0C9DC828212009C
:0E06B20000018C915EC16CF1BFDD8C811200E5
:1006C000086A080E0C6E003408360450085ED8B074
:0E06D00002D00826D89000360C2EF5D7120066
:0C06DE000E0E0D6E0D2EFED70000120057
:1006EA00829278C0E1FF79C0E2FF7A0EE66E76C0A8
:1006FA0000F077C001F09FDC61C100F001016107E1
:10070A0000521BE078C0E1FF79C0E2FF5EC1F6FF4C
:10071A005FC1F7FF60C1F8FF0900F5CF00F000C024
:10072A00E6FF76C000F077C001F085DC010E01011A
:0E073A005E27000E5F236023DFD7828212004D
:10074800AF0E01016C6F190E6D6F5EC16EF15FC166
:100758006FF1060E706F30DF600E6C6F000E6D6FFC
:10076800060E6E6F02DF000E6C6F080E6D6F79DF7C
:100778001C0E01016625696F000E67216A6F000E65
:100788006C6F450E6D6F6DDF69C16CF16AC16DF1FB
:1007980068DF8AC06CF18BC06DF163DF00018A4BA2
:1007A8008B2B01016C6B6D6B5CDF110E01016C6FA3
:1007B800800E6D6F56DF01016C6B6D6B52DF590E49
:1007C80001016C6F000E6D6F040E6E6FCEDE60C19E
:1007D8006CF161C16DF1040E6E6FC7DE080E6625FF
:1007E800696F000E67216A6F62C16CF163C16DF1B8
:1007F80038DF64C16CF165C16DF133DF69C16CF13B
:100808006AC16DF12EDF01016C6B6D6B2ADFBD0EC5
:1008180001016C6F190E6D6F140E6E6F000E6F6F05
:10082800F8DE160E0101766F98DC00C06BF1170E2A
:100838000101766F92DC00C06EF1C70E01016C6F8A
:10084800190E6D6F6BC16FF1E9DC010E01016915BD
:10085800686FD90E6625766F190E6721776F786BEA
:10086800BCDCC90E01016C6F190E6D6FD10E6E6F75
:10087800190E6F6FD90E6625706F190E6721716F8B
:1008880068517027000E7123726BE8DDD90E66255A
:100898006C6F190E67216D6F68516C27000E6D2300
:1008A800080E6C27000E6D236E6B110E6F6FB6DC91
:1008B8006AC176F154EC00F069C176F154EC00F0AD
:1008C800D10E01016C6F190E6D6F0C0E69256E6FDC
:1008D800000E6A216F6F68516E27000E6F2399DE34
:1008E800160E0101766F39DC00C06BF1170E01019D
:1008F800766F33DC00C06EF1D70E01016C6F190EF4
:100908006D6F6BC16FF18ADC2A0E010166256C6F71
:0A091800000E67216D6FCFDC1200A6
:10092200086A096A100E0C6E013408360936045042
:10093200085E0550D8A0053C095ED8B007D0045027
:1009420008260550D8B0053C0926D8900036013655
:060952000C2EEAD7120092
:1009580062C101F063C102F0010E0101625F000E85
:10096800635B000E021802E1000E01181FE05EC171
:10097800E9FF5FC1EAFF60C1D9FF61C1DAFFEE504C
:10098800DE180FE05EC1E9FF5FC1EAFF60C1D9FF71
:1009980061C1DAFFDE50EE5C006E016A000E015A9A
:1009A80012005E4B5F2B604B612BD2D7006A016A45
:0209B80012002B
:1009BA0060C104F061C105F05EC102F05FC103F0DD
:1009CA0062C100F063C101F0010E0101625F000E15
:1009DA00635B005001100FE004C0E9FF05C0EAFFA5
:1009EA0002C0E1FF03C0E2FFEECFE6FF024A032A9C
:1009FA00044A052AE5D75EC100F05FC101F0120082
:100A0A00829278C0E1FF79C0E2FF3A0EE66E76C0C4
:100A1A0000F077C001F020EC00F078C0E1FF79C067
:100A2A00E2FFE66A76C000F077C001F020EC00F041
:040A3A0082821200A2
:100A3E0001016151FF0A02E1FF0E601907E0796BB7
:100A4E0060C17AF161C17BF12CEC00F0829278C02A
:100A5E00E1FF79C0E2FF3A0EE66E76C000F077C095
:100A6E0001F020EC00F062C100F0010162070052BB
:100A7E0015E078C0E1FF79C0E2FFE66A76C000F0CB
:100A8E0077C001F020EC00F05EC1E1FF5FC1E2FF34
:100A9E0000C0E6FF01015E4B5F2BE5D7828212009C
:100AAE000101596B030E595D0AE259515725E16E4A
:100ABE00000E5821E26E200EE66E592BF3D75951D7
:100ACE005725E16E000E5821E26EE66A590759511C
:100ADE0057255A6F000E58215B6F0A0E046E56C1D1
:100AEE0000F0E7DD08C000F0300E00265AC1E1FF2D
:100AFE005BC1E2FF00C0E6FF0A0E046E56C100F0B5
:100B0E00D8DD00C056F10050000A01E102D05907AD
:040B1E00DED712000C
:100B2200C26A070EC012C08E56C100F00036009095
:100B3200003600900050C212C280D0DDC282C2A232
:100B420001D0FDD7C4CF01F0006AC3500012000EDD
:060B52000112C290120026
:100B58000101586B596B56C1E9FF57C1EAFFEE52C4
:100B68000EE056C1E9FF57C1EAFFEECF76F154EC2B
:100B780000F00101564B572B584B592BECD758C155
:080B880000F059C101F0120058
:100B900001015A6B050E5A5D0AE25A515825E16E61
:100BA000000E5921E26E200EE66E5A2BF3D75A51F1
:100BB0005825E16E000E5921E26EE66A5A075A5135
:100BC00058255B6F000E59215C6F0A0E046E000EF3
:100BD000056E56C100F057C101F0A3DE08C000F059
:100BE00009C001F0300E00265BC1E1FF5CC1E2FFED
:100BF00000C0E6FF0A0E046E000E056E56C100F03E
:100C000057C101F08EDE00C056F101C057F1000E51
:100C1000011802E1000E001801E102D05A07CFD7F7
:020C20001200C0
:100C2200010156517A0804E3610E565D01E3569BB9
:060C320056C100F01200A3
:100C3800F90E0101596F000E5A6F020E796FD90E25
:100C48007A6F190E7B6F2CEC00F0B40E01015E6F09
:100C5800340E5F6F000E606F0C0E616F42DD5651EF
:100C6800030A0AE1575308E06E0E6C6F000E6D6FB1
:100C7800040E6E6F7ADC0AD0586B040E585D06E2DB
:100C8800766B54EC00F00101582BF7D7586B0C0E1B
:100C9800585D06E2766B54EC00F00101582BF7D74B
:100CA800600E6C6F000E6D6F060E6E6F5EDC586B1B
:100CB800CA0E585D06E2766B54EC00F00101582B21
:100CC800F7D7FD0E5E6F340E5F6F000E606F060E75
:100CD800616F07DD56C176F154EC00F00101565101
:100CE800030A17E1575315E1360E766F54EC00F0FE
:100CF800040E0101766F54EC00F0910E01016C6F47
:100D0800000E6D6F040E6E6F30DC060E5927000E54
:100D18005A23030E5E6F350E5F6F000E606F050E6F
:100D2800616FDFDC5651030A23E1575321E1320E8C
:100D3800766F54EC00F0040E0101766F54EC00F06D
:100D48000101586B040E585D0FE26E0EE96E000E3D
:100D5800EA6E5851E926D8B0EA2AEECF76F154EC7B
:100D680000F00101582BEED7060E5927000E5A2322
:100D7800FF0E766F54EC00F0300E01015E6F000E2E
:100D88005F6F300E606F000E616F440E626F000E71
:100D9800636F430E646F000E656F59C166F15AC1E7
:060DA80067F1CEDC120031
:100DAE00020E0C6E490E0D6E0D2EFED70C2EFCD7BC
:060DBE000000000012001D
:100DC4007A0E01015E6F000E5F6F56C160F157C16C
:100DD40061F1040E626F000E636FEDDD7E0E5E6FD7
:100DE400000E5F6F58C160F159C161F1040E626F6A
:100DF400000E636FE0DD720E5E6F000E5F6F5AC10E
:100E040060F15BC161F1040E626F000E636FD3DDAC
:020E14001200CA
:100E160001015651390806E3300E565D03E3010E13
:080E2600006E01D0006A120009
:100E2E000101596B5A6B56C1F6FF57C1F7FF58C1F6
:100E3E00F8FF0900F5CF00F0005214E056C1F6FF9E
:100E4E0057C1F7FF58C1F8FF0900F5CF76F154EC02
:100E5E0000F0010E01015627000E57235823594B5F
:0E0E6E005A2BE1D759C100F05AC101F0120011
:100E7C0010D0800E0101566F1AD0C00E566F17D0CD
:100E8C00940E566F14D0D40E566F11D0800E566F30
:100E9C000ED001015651010AECE05651020AEDE068
:100EAC005651030AEDE05651040AEDE0EFD7570511
:100EBC00006E5651002600C056F100C06CF11DECBE
:100ECC0001F08C9101015A6B5A515825E96E000EB4
:100EDC005921EA6EEE520DE05A515825E96E000E7A
:100EEC005921EA6EEECF5EF159EC03F001015A2B59
:080EFC00EBD700018C8112000C
:100F040056C102F057C103F059C100F05AC101F0B3
:100F1400010E0101595F000E5A5B0050011009E0F7
:100F240002C0E1FF03C0E2FF58C1E6FF024A032A00
:0C0F3400EBD756C100F057C101F01200CD
:100F40000101586B3C0E6A6E000E6B6E6C6E6D6E1E
:100F50005CDD00C056F10050020AD8A40CD101019A
:100F6000576B0F0E575D04E250DD0101572BF9D787
:100F70006E0E5E6F000E5F6FFF0E606FFF0E616F93
:100F8000040E626F5CDD576B080E575D04E23DDDB9
:100F90000101572BF9D7576B060E575D12E235DD6D
:100FA00000C056F1600ED96E000EDA6E0101575185
:100FB000D926D8B0DA2A0050DE1801E006D1572B26
:100FC000EBD7576BCE0E575D04E21FDD0101572BA7
:100FD000F9D7596B1ADD00C056F1AED016DD00C04E
:100FE00056F10050010A04E110DD00C058F101D0B3
:100FF000ECD0BDD00ADD00C056F10050040A0DE16E
:10100000660E01015E6F000E5F6FFF0E606FFF0ED8
:10101000616F040E626F13DD01D0D7D0A8D0F5DC6C
:1010200000C056F1040E005C0DE3970E01015E6FE7
:10103000000E5F6FFF0E606FFF0E616F040E626F38
:10104000FEDC01D0C2D00101040E565F010156C181
:1010500000F05607005202E0D8DCF8D788D0D5DC83
:1010600000C056F1040E005C0DE39B0E01015E6FA3
:10107000000E5F6FFF0E606FFF0E616F040E626FF8
:10108000DEDC01D0A2D00101040E565F010156C181
:1010900000F05607005202E0B8DCF8D768D0B5DCA3
:1010A00000C056F10050040A0DE15A0E01015E6FB6
:1010B000010E5F6FFF0E606FFF0E616F040E626FB7
:1010C000BEDC01D082D053D00101010E596F4FD048
:1010D0009CDC00C056F10050040A20E16A0E0101B8
:1010E0005E6F000E5F6FFF0E606FFF0E616F040E8C
:1010F000626FA5DC6D50000808E16C50000805E146
:101100006B50070802E16A50080807E2080E6A5EA1
:10111000070E6B5A000E6C5A6D5A01D056D027D06C
:1011200074DC00C056F156C100F0010156070052B0
:1011300002E06BDCF8D71BD001015651350AD8B458
:101140004DD75651010AD8B455D75651030AD8B4D1
:1011500066D75651060AD8B482D75651360A9FE050
:101160005651FF0AB1E05651330AB2E0D9D7010116
:101170005953D8B42FD701015851020A0EE1910EEC
:101180005E6F000E5F6F5A0E606F010E616F040E8E
:10119000626F000E636F11DC15D0910E5E6F000E52
:1011A0005F6F5A0E606F010E616F040E626F000E6A
:1011B000636FACEC04F0000E011802E1000E0018A1
:0E11C00001E0586B58C100F01200006A1200E6
:1011CE000B6A0A6A096A00500402F4CF09F0F3CFE1
:1011DE0008F001500502F4CF0BF0F3CF0AF00050E7
:1011EE000502F3500926F4500A22E86A0B22015038
:1011FE000402F3500926F4500A22E86A0B2208C0B2
:10120E0000F009C001F00AC002F00BC003F012009A
:10121E00B50E01016C6F190E6D6FBB0E6E6F190E50
:10122E006F6FAF0E706F190E716F726B32EC02F042
:10123E00B50E6C6F190E6D6F600E6E6F000E6F6FC8
:0A124E00060E706FE0EC02F01200D3
:101258000101766BB1EC00F000C04BF1010E010109
:10126800766FB1EC00F000C04CF10101796B46C11A
:101278007AF147C17BF12CEC00F0829278C0E1FF53
:1012880079C0E2FF3A0EE66E76C000F077C001F052
:1012980020EC00F001014A5318E078C0E1FF79C062
:1012A800E2FFE66A76C000F077C001F020EC00F0BB
:1012B80048C1D9FF49C1DAFF0050DE1801E005D066
:1012C8000101484B492B4A07E5D701018282796B16
:1012D8004BC17AF14CC17BF12CEC00F04AC100F013
:0212E8001200F2
:1012EA008292400E01014611006E78C0E1FF79C07A
:1012FA00E2FF00C0E6FF76C000F077C001F020EC04
:10130A0000F078C0E1FF79C0E2FF47C1E6FF76C08E
:0E131A0000F077C001F020EC00F0828212009B
:101328000101466BC80E465D04E23DDD3CDD462BFF
:04133800F9D71200CF
:10133C0046C1E9FF47C1EAFFEECF56F1CC0E0101E1
:10134C00576F000E586F57EC05F02E0E0001CF6F43
:10135C00010E01014625E96E000E4721EA6EEECF23
:10136C0056F1D00E576F000E586F57EC05F02E0E3D
:10137C000001D36F020E01014625E96E000E4721D4
:10138C00EA6EEECF56F1D40E576F000E586F57EC35
:10139C0005F02E0E0001D76F030E01014625E96EF4
:1013AC00000E4721EA6EEECF56F1D80E576F000EA5
:1013BC00586F57EC05F03A0E0001DB6F48C156F13F
:1013CC0049C157F1DC0E0101586F000E596FC8EC82
:1013DC0005F05B0E0001E16F4AC156F14BC157F1AC
:1013EC00E20E0101586F000E596FC8EC05F05D0E4E
:1013FC000001E76FE86B1C0E01014C254E6F000ECF
:10140C004D214F6FCC0E6C6F000E6D6F1C0E6E6FFE
:10141C00B9EC02F001014CC100F04DC101F0010E1C
:10142C004C5F000E4D5B005001100BE005EC05F01D
:10143C0000C056F111EC06F000C076F154EC00F04F
:0C144C00E9D74EC100F04FC101F01200C2
:1014580001014751190802E14651AD0804E2AE0EF8
:10146800465F190E475B796B46C17AF147C17BF13C
:061478002CEC00F0120054
:10147E00000E01014B1902E1500E4A1903E0006AF9
:10148E00016A12004E6B4F6B506B516B000E515D2B
:10149E0008E1000E505D05E1000E4F5D02E1200EE9
:1014AE004E5D16E2E90E4E25546F000E4F21556F1C
:1014BE0005EC05F054C1E1FF55C1E2FF00C0E6FFA7
:1014CE00010E01014E27000E4F2350235123DED76C
:1014DE00E90E4E25E16E000E4F21E26EE66A4E6B6E
:1014EE004F6B506B516BE90E5E6F000E5F6F4C0EC3
:1014FE00606F000E616F050E626F000E636FACECD5
:10150E0004F00050011003E0006A016A12000001AD
:10151E00010E5226000E532254225522EE51730A0A
:10152E00D8A42DD1880E0101566F340E576F000EC0
:10153E00586F76DC00C04EF101C04FF1000E506FB7
:10154E00516FA70E566F340E576F000E586F68DC32
:10155E0000504E2701504F23000E50235123566B3F
:10156E0091EC05F000C056F101C057F1CC0E01010F
:10157E00586F000E596FC8EC05F0F40E566F340E0E
:10158E00576F000E586F4CDC00504E2701504F2302
:10159E00000E50235123CC0E566F000E576FACEC3D
:1015AE0005F000504E2701504F23000E50235123BB
:1015BE000A0E566F350E576F000E586F31DC005005
:1015CE004E2701504F23000E50235123010E566F0C
:1015DE0091EC05F000C056F101C057F1CC0E01019F
:1015EE00586F000E596FC8EC05F0EB0E566F340EA7
:1015FE00576F000E586F14DC00504E2701504F23CA
:10160E00000E50235123CC0E566F000E576FACECCC
:10161E0005F000504E2701504F23000E502351234A
:10162E00080E566F350E576F000E586F17EC07F0F9
:10163E0000504E2701504F23000E50235123D70E3A
:10164E00566F340E576F000E586F17EC07F00050A0
:10165E004E2701504F23000E5023512381CF56F1B8
:10166E00000E576FCC0E586F000E596FC8EC05F078
:10167E00CC0E566F000E576FACEC05F000504E2797
:10168E0001504F23000E502351230C0E566F350E72
:10169E00576F000E586F17EC07F000504E27015091
:1016AE004F23000E50235123CC0E566F340E576F1E
:1016BE00000E586F17EC07F000504E2701504F23C5
:1016CE00000E5023512383CF56F1000E576FCC0ED0
:1016DE00586F000E596FC8EC05F0CC0E566F000E09
:1016EE00576FACEC05F000504E2701504F23000E03
:1016FE0050235123100E566F350E576F000E586F34
:10170E0017EC07F000504E2701504F23000E5023C8
:10171E00512352C056F153C057F1CC0E586F000EE4
:10172E00596FC8EC05F0E20E566F340E576F000E6F
:10173E00586F17EC07F000504E2701504F23000E44
:10174E0050235123CC0E566F000E576FACEC05F0A4
:10175E0000504E2701504F23000E502351230E0EE2
:10176E00566F350E576F000E586F17EC07F000507E
:10177E004E2701504F23000E502351238AD00001D3
:10178E00EE51740A17E1EFC056F10BEC07F0005260
:10179E0010E0300E0001EF5D006E00C001F0010E92
:1017AE00006E015004E000360090FF0FFBD7005092
:1017BE00831A6FD00001EE51430A34E1EF513D0A16
:1017CE0031E1010E0101566F010E576F460E586F33
:1017DE00000E596F3EEC07F0070E0101526F000E1E
:1017EE00536F000E006E5351005C02E152512008FF
:1017FE0018E3E90E5225E96E000E5321EA6EEE5003
:10180E003B0A01E10ED0E90E5225E96E000E53217E
:10181E00EA6EEECF5EF159EC03F00101524B532B01
:10182E00E0D737D00001EE514C0A33E1EF513D0ABB
:10183E0030E1020E0101566F010E576F490E586FBF
:10184E00000E596F3EEC07F0070E0101526F000EAD
:10185E00536F000E006E5351005C02E1525120088E
:10186E0018E3E90E5225E96E000E5321EA6EEE5092
:10187E003B0A01E10ED0E90E5225E96E000E53210E
:10188E00EA6EEECF5EF159EC03F00101524B532B91
:10189E00E0D70101000E006E511908E100505019F9
:1018AE0005E100504F1902E14E51000A3CE1880E4D
:1018BE00566F340E576F000E586F17EC07F000C0BE
:1018CE004EF101C04FF1000E506F516FC00E566FAA
:1018DE00340E576F000E586F17EC07F000504E275E
:1018EE0001504F23000E5023512356C056F157C0BE
:1018FE0057F158C058F117EC07F000504E27015021
:10190E004F23000E5023512343C056F144C057F1CC
:10191E0045C058F117EC07F000504E2701504F23E9
:10192E00000E502351234EC100F04FC101F01200A2
:10193E00C90E01016C6F190E6D6FCD0E6E6F190E03
:10194E006F6FCD0E706F190E716F726B32EC02F0FD
:10195E00C90E6C6F190E6D6F590E6E6F000E6F6F94
:0A196E00040E706FE0EC02F01200AE
:10197800B1D0590E0101566F000E576F586B040E07
:10198800596F000E5A6F82EC07F0010E566F576BB5
:101998001CEC06F036C086F037C087F038C088F0F7
:1019A80039C089F0030E2D6EA6D0050E00018625DC
:1019B800016E000E8721026E000E8821036E000E54
:1019C8008921046E3950045C08E13850035C05E154
:1019D8003750025C02E13650015C02E2020E2D6EC5
:1019E800A0EC07F00050020A03E1040E2D6E01D0AE
:1019F80082D0030E0101566F2CC057F11CEC06F083
:101A080036C086F037C087F038C088F039C089F012
:101A1800050E2D6E70D0A0EC07F000C046F1005006
:101A2800060A03E1040E2D6E2CD001014651050A69
:101A380028E136C086F037C087F038C088F039C052
:101A480089F0060E2D6E590E5E6F000E5F6F6E0EDA
:101A5800606F000E616F040E626F000E636FDDEC45
:101A680004F0660E566F000E576F970E586F000EF3
:101A7800596F9B0E5A6F000E5B6FE2EC06F02C6AF2
:101A8800120039D0010E00018625016E000E872153
:101A9800026E000E8821036E000E8921046E045028
:101AA800395C08E10350385C05E10250375C02E11B
:101AB8000150365C0EE3010E6A5E000E6B5A6C5ADA
:101AC8006D5A36C086F037C087F038C088F039C004
:101AD80089F011D02D50020AD8B44BD72D50030AE3
:101AE800D8B463D72D50040A84E02D50050A93E03A
:081AF8002D50060AC7E01200A0
:101B000005EC05F005EC05F005EC05F000C047F12B
:101B100005EC05F000C046F105EC05F000C049F108
:101B200005EC05F000C048F105EC05F000C04BF1F4
:101B300005EC05F000C04AF105EC05F005EC05F0F8
:101B400005EC05F005EC05F048C100F049C101F0D5
:101B5000010E0101485F000E495B005001100EE0CC
:101B600005EC05F0005201E0FBD705EC05F005ECB3
:101B700005F005EC05F005EC05F0E6D74AC100F0EC
:101B80004BC101F0010E01014A5F000E4B5B00509A
:101B9000011048E005EC05F005EC05F005EC05F05A
:101BA00000C04FF105EC05F000C04EF105EC05F06A
:101BB00005EC05F005EC05F005EC05F005EC05F08D
:101BC00005EC05F005EC05F000C04DF105EC05F065
:101BD00000C04CF1000E01014F1902E1010E4E1937
:101BE00011E105EC05F000C082F005EC05F000C045
:101BF00083F005EC05F000C084F005EC05F000C0B2
:101C000085F010D04CC100F04DC101F0010E010172
:101C10004C5F000E4D5B0050011003E005EC05F039
:061C2000F1D7ACD7120061
:101C26001CC176F11DC177F18DEC00F000C027F1E3
:101C360005EC05F000C026F105EC05F000C025F125
:101C460005EC05F000C024F1000E0101251902E1A2
:101C5600000E241901E1120005EC05F000C029F17F
:101C660005EC05F000C028F12A0E01015E6F010E99
:101C76005F6FC90E606F190E616F040E626F1FEC05
:101C860005F0020E796F080E1C257A6F000E1D21D5
:101C96007B6F2CEC00F00E0E01011925466F000E2D
:101CA6001A21476F1B514627000E4723080E462769
:101CB600000E47232CEC0AF0000E0101271902E161
:101CC600350E261902E119DF48D0000E010125194B
:101CD60002E1440E241902E14CDE3FD02A0E010136
:101CE600466F010E476F26C148F127C149F124C14D
:101CF6004AF125C14BF1080E285D4C6F000E29599B
:101D06004D6F9EEC09F000C028F101C029F100508A
:101D1600011023E01E0E01015E6F010E5F6FB50E0E
:101D2600606F190E616F060E626F1FEC05F01E0ED6
:101D36005E6F010E5F6F2A0E606F010E616F24C128
:101D460062F125C163F126C164F127C165F128C19D
:0C1D560066F129C167F1A4EC03F0120053
:101D62001DC176F11EC177F18DEC00F000C02DF19E
:101D720005EC05F000C02CF105EC05F000C02BF1DC
:101D820005EC05F000C02AF10101326B376B010E40
:101D9200386F356B366B0C0E1D25766F000E1E21CB
:101DA200776F8DEC00F000C030F1000E0101316F51
:101DB2003033309F3033309F000E316FFC0E3017BE
:101DC200FF0E3117410E5E6F010E5F6FC90E606F1D
:101DD200190E616F040E626F1FEC05F00D0E1D25CA
:101DE200766F000E1E21776F8DEC00F03F0E00140F
:101DF20001012E6F2F6B000E2F17000E2F6F0E0E8C
:101E02005E5C336F000E5F58346F1B51335F1C51A1
:101E1200345B3051335F3151345B020E1D25766FD6
:101E2200000E1E21776F8DEC00F000C078F11DC10D
:101E320076F11EC177F1F1EC00F0030E01011D25D0
:101E4200766F000E1E21776F8DEC00F000C076F1E8
:101E520054EC00F02CC16CF12DC16DF135EC03F0A6
:101E6200040E01011D25766F000E1E21776F8DEC89
:101E720000F000C03CF105EC05F000C03BF105ECC0
:101E820005F000C03AF105EC05F000C039F105ECAF
:101E920005F000C040F105EC05F000C03FF105EC93
:101EA20005F000C03EF105EC05F000C03DF1000E6A
:101EB20001012F1902E1020E2E193CE1010E392512
:101EC200006E000E3A21016E000E3B21026E000EE2
:101ED2003C21036E00C03DF101C03EF102C03FF162
:101EE20003C040F1120E2E6F000E2F6F0C0E766F94
:101EF200B1EC00F000C039F10D0E0101766FB1ECCA
:101F020000F000C03AF10101766BB1EC00F000C0C4
:101F12003BF1010E0101766FB1EC00F000C03CF123
:101F22000101322B140E306F000E316F356B366BA0
:101F3200156A6AD0000E2F1902E1180E2E192FE130
:101F420039C11FF13AC120F13BC121F13CC122F15B
:101F52003DC139F13EC13AF13FC13BF140C13CF1D3
:101F620033511F25006E34512021016E000E2121B4
:101F7200026E000E2221036E00C03DF101C03EF14F
:101F820002C03FF103C040F1100E2E6F000E2F6F02
:101F9200322B140E306F000E316F372B35D0000EFE
:101FA2002F1902E1110E2E192FE139C123F13AC185
:101FB20024F13BC125F13CC126F13DC139F13EC1BD
:101FC2003AF13FC13BF140C13CF1010E2325006EC5
:101FD200000E2421016E000E2521026E000E262124
:101FE200036E00C03DF101C03EF102C03FF103C0EB
:101FF20040F1100E2E6F000E2F6F322B140E306F29
:10200200000E316F356B366B3253D8B495D1040E56
:102012001D256C6F000E1E216D6F3CC16EF13BC120
:102022006FF112EC01F03AC176F154EC00F039C1D3
:1020320076F154EC00F040C176F154EC00F03FC16F
:1020420076F154EC00F03EC176F154EC00F03DC163
:1020520076F154EC00F00C0E01011D25766F000E96
:102062001E21776F8DEC00F00F0E00140101786FC6
:1020720030C100F000360090003600900050781316
:102082000C0E1D25766F000E1E21776FF1EC00F00D
:102092000D0E01011D25766F000E1E21776F8DEC4E
:1020A20000F0C00E00140101786F2E5178130D0E4E
:1020B2001D25766F000E1E21776FF1EC00F00101F5
:1020C2001B513525336F1C513621346F3051332764
:1020D20031513423385303E00FEC09F02FDCBF0EEB
:1020E2006C6F190E6D6F34C16EF133C16FF112EC6A
:1020F20001F0C70E01016C6F190E6D6F6E6B6F6B85
:1021020012EC01F0BD0E01016C6F190E6D6F1BC157
:102112006EF11CC16FF10DEC03F0160E0101766F2A
:10212200B1EC00F000C045F1170E0101766FB1EC81
:1021320000F000C06EF1C70E01016C6F190E6D6FD9
:1021420045C16FF112EC01F0BD0E01013325286F7C
:10215200190E3421296F100E1D256C6F000E1E21E1
:102162006D6F6E6B6F6B12EC01F0010E0101331596
:10217200276F28C176F129C177F1786BF1EC00F075
:10218200C90E01016C6F190E6D6FD10E6E6F190EB3
:102192006F6F27512825706F000E2921716F726BA6
:1021A20032EC02F0080E28256C6F000E29216D6FAB
:1021B20027516C27000E6D236E6B060E6F6F12ECAB
:1021C20001F00A0E010128256C6F000E29216D6FA6
:1021D20027516C27000E6D2335513025036E365181
:1021E2003121046E04C000F0016A00C06EF103C028
:1021F2006FF112EC01F01DC16CF11EC16DF1010114
:10220200355130256E6F365131216F6F0C0E6E27AE
:10221200000E6F2327516E27000E6F230DEC03F083
:10222200160E0101766FB1EC00F000C045F1170EF9
:102232000101766FB1EC00F000C06EF1100E0101E9
:102242001D256C6F000E1E216D6F45C16FF112ECE2
:1022520001F00E0E010133256C6F000E34216D6FFB
:102262005FEC01F00101375344E0100E2E6F000EB7
:102272002F6F376B152A386B020E796F30511D257F
:102282007A6F31511E217B6F2CEC00F00E0E010192
:102292001925466F000E1A21476F1B5146271C5104
:1022A200472330514627315147232CEC0AF0410E87
:1022B2000101466F010E476F2CC148F12DC149F152
:1022C2002AC14AF12BC14BF10E0E5E5C4C6F000E1F
:1022D2005F584D6F1B514C5F1C514D5B30514C5F31
:1022E20031514D5B3FEC0AF000C035F101C036F1CF
:1022F2008ED6155221E035513925006E36513A21DC
:10230200016E000E3B21026E000E3C21036E00C0E6
:1023120039F101C03AF102C03BF103C03CF1110EA8
:102322002E6F000E2F6F156A386B140E306F000E71
:0A233200316F356B366B6BD612006D
:10233C001F0E0101766F010E776F70EC00F01F0E0F
:10234C000101766F020E776FC9EC00F0140E0101DB
:10235C00466F19C147F175EC09F0120E0101766F49
:10236C00010E776FC9EC00F094EC09F0120E766F49
:10237C00010E776F70EC00F0160E0101766FB1EC68
:10238C0000F01CC1E1FF1DC1E2FF00C0E6FF170E0B
:10239C000101766FB1EC00F01AC1E1FF1BC1E2FF45
:0623AC0000C0E6FF120074
:1023B2001F0E0101766F010E776F70EC00F01F0E99
:1023C2000101766F020E776FC9EC00F0140E010165
:1023D200466F19C147F175EC09F094EC09F0160E3D
:1023E200466F1BC147F175EC09F094EC09F0170E2A
:1023F200466F1AC147F175EC09F094EC09F012002E
:10240200C40E0101766F190E776F8DEC00F000C0DB
:1024120019F1E2D0D50E0101466F190E476F590E20
:10242200486F000E496F040E4A6F2CEC09F0005001
:10243200000A47E1C40E0101766F190E776F020E92
:10244200786FF1EC00F00FEC09F0CB0E6C6F190E07
:102452006D6FCF0E6E6F190E6F6FD50E706F190EF6
:10246200716F726B32EC02F0CB0E6C6F190E6D6FE6
:10247200590E6E6F000E6F6F040E706FE0EC02F07B
:10248200C50E6C6F190E6D6FCB0E6E6F190E6F6FDE
:10249200CF0E706F190E716F726B32EC02F0C50EB7
:1024A2006C6F190E6D6F600E6E6F000E6F6F060E01
:1024B200706FE0EC02F03C0E6C6F000E6D6F5FEC23
:1024C20001F093D0AF0E0101466F190E476F600EF7
:1024D200486F000E496F060E4A6F2CEC09F000504F
:1024E200000A79E1CB0E0101466F190E476F95C0C4
:1024F20048F196C049F1040E4A6F2CEC09F00050E5
:10250200000A69E142C000F0000E016E0F0E046E77
:10251200000E056EE7EC08F09F0E002401015E6FCD
:10252200000E01205F6F090E5E27000E5F23C50EAD
:10253200606F190E616F060E626F1FEC05F042C0EC
:1025420000F0000E016E0F0E046E000E056EE7EC39
:1025520008F09F0E00245E6F000E01205F6F050ED3
:102562005E27000E5F2395C060F196C061F1040EF4
:10257200626F000E636FDDEC04F042C000F0000EEB
:10258200016E0F0E046E000E056EE7EC08F09F0E52
:102592000024E16E000E0120E26E010EE66E42C0E2
:1025A20000F0000E016E0F0E046E000E056EE7ECD9
:1025B20008F09F0E0026000E0122010E0024E16E9B
:1025C200000E0120E26E36C0E6FF37C0E6FF38C0DB
:1025D200E6FF39C0E6FF09D001011951010AD8B45A
:0C25E20019D71951020AD8B46DD71200A5
:1025EE000101176B1F0E766F010E776F70EC00F006
:1025FE001F0E0101766F020E776F70EC00F0010175
:10260E00796B2EC07AF12FC07BF12CEC00F0829208
:10261E0078C0E1FF79C0E2FF3A0EE66E76C000F0B8
:10262E0077C001F020EC00F078C0E1FF79C0E2FF46
:10263E00E66A76C000F077C001F020EC00F000C032
:10264E002EF078C0E1FF79C0E2FFE66A76C000F0B6
:10265E0077C001F020EC00F000C02FF078C0E1FF51
:10266E0079C0E2FFE66A76C000F077C001F020EC98
:10267E0000F000C05EF078C0E1FF79C0E2FFE66ACC
:10268E0076C000F077C001F020EC00F000C05FF0E3
:10269E0078C0E1FF79C0E2FFE66A76C000F077C04D
:1026AE0001F020EC00F000C015F178C0E1FF79C018
:1026BE00E2FFE66A76C000F077C001F020EC00F091
:1026CE0000C016F18282040E5E5E000E5F5A2F501D
:1026DE00190802E12E50AD080FE32EB00DD0010106
:1026EE0016BF0AD05F50050802E15E50EE0804E303
:1026FE00010115AF01D003D0010E006E1200766BF2
:10270E00B1EC00F000C013F1010E0101766FB1ECD7
:10271E0000F000C014F113C16CF114C16DF15E50E4
:10272E00010113256E6F5F5014216F6FAF0E706F26
:10273E00190E716F010E726F32EC02F0BB0E766FD6
:10274E00190E776F8DEC00F000C016F105EC05F058
:10275E0000C015F101011651080A02E1060E151905
:10276E0011E1BD0E466F190E476F3A0E486F000EFF
:10277E00496F070E4A6F2CEC09F00050000A01E178
:10278E0039DE2BD101011651080A02E1000E15198E
:10279E00D8A420D1CD0E466F190E476F590E486F33
:1027AE00000E496F040E4A6F2CEC09F0005214E033
:1027BE00CD0E0101466F190E476F300E486F000E99
:1027CE00496F040E4A6F2CEC09F00050000A04E029
:1027DE00020E0101176FFDD00101BD0E766F190EAD
:1027EE00776F8DEC00F0F00E0014016E0150400A70
:1027FE0004E0030E0101176FECD00101BD0E766FE0
:10280E00190E776F8DEC00F000C011F1000E010172
:10281E00126F0F0E1117000E12171137119112377A
:10282E00113711911237C30E766F190E776F8DEC2B
:10283E0000F0BF0E0014016E0150000AD8A4C9D0DA
:10284E00C40E0101766F190E776F8DEC00F00050FB
:10285E00000AD8A4BED0BD0E010111250F6F190EAE
:10286E001221106FC60E766F190E776F8DEC00F079
:10287E0000C00EF10050010AD8A488D00FC176F125
:10288E0010C177F18DEC00F00050080AD8A47DD06D
:10289E00010E01010F25766F000E1021776F8DEC62
:1028AE0000F00050000A71E10FC176F110C177F10E
:1028BE000101786BF1EC00F00FEC09F09FEC0CF0DD
:1028CE00C70E6C6F190E6D6F6E6B6F6B12EC01F0A5
:1028DE00BD0E01016C6F190E6D6F11C16EF112C13B
:1028EE006FF10DEC03F0160E0101766FB1EC00F0F6
:1028FE0000C018F1170E0101766FB1EC00F000C0A8
:10290E006EF1C70E01016C6F190E6D6F18C16FF16C
:10291E0012EC01F0020E01010F256C6F000E10215A
:10292E006D6F6E6B6F6B12EC01F00FC16CF110C11D
:10293E006DF1010111515E5C6E6F12515F586F6F38
:10294E000E0E6E5F000E6F5B0DEC03F0160E0101A6
:10295E00766FB1EC00F000C018F1170E0101766F22
:10296E00B1EC00F000C06EF1020E01010F256C6F8C
:10297E00000E10216D6F18C16FF112EC01F05EC0E8
:10298E006CF15FC06DF15FEC01F023D001010E51CF
:10299E00110A0DE113C119F114C11AF111C11BF184
:1029AE000FC11CF110C11DF113EC0EF012D001017C
:1029BE000E51060A0EE113C119F114C11AF111C11B
:1029CE001BF112C11CF10FC11DF110C11EF1B1ECB2
:1029DE000EF003D00101040E176F01011E0E766F6B
:1029EE00400E776FC9EC00F0010E2E5C016E000EEA
:1029FE002F58026E0250190802E10150AD080AE28A
:102A0E000C0E0101796FAD0E7A6F190E7B6F2CECE7
:102A1E0000F00BD00C0E0101796F010E2E5C7A6F57
:102A2E00000E2F587B6F2CEC00F017C100F0120037
:102A3E000101466B0E5303E00D0E006E02D0050E23
:102A4E00006E00C047F175EC09F0020E0101466FF1
:102A5E000E5303E0310E006E02D0300E006E00C039
:102A6E0047F175EC09F00A0E0101796FEE0E7A6FDF
:102A7E00050E7B6F2CEC00F0040E0101466F0E5319
:102A8E0003E0150E006E02D0120E006E00C047F16C
:102A9E0075EC09F0060E0101466F120E476F75ECCC
:102AAE0009F001010E5306E1070E466F0C0E476F3B
:102ABE0075EC09F001010E5306E1090E466F3F0E4B
:102ACE00476F75EC09F01F0E0101766F010E776FDF
:102ADE00C9EC00F01F0E0101766F020E776FC9EC84
:102AEE0000F0040E0101466F60C047F175EC09F06D
:102AFE00050E0101466F61C047F175EC09F0020E3B
:102B0E000101466F62C047F175EC09F0030E010139
:102B1E00466F63C047F175EC09F00101466B64C066
:102B2E0047F175EC09F0010E0101466F65C047F1E2
:102B3E0075EC09F0150E0101466F476B75EC09F047
:102B4E00120E0101766FB1EC00F000C05DF00101D4
:102B5E00196B0F0E1A6F010E1B6F100E1C6F010EEC
:102B6E001D6F9EEC11F00101196BFE0E0F151A6F01
:102B7E000E5303E0010E006E01D0006A00501A13CE
:102B8E0010C11BF10FDC100E196F010E1A6F1B6BAB
:102B9E0009DC1F0E766F040E776FC9EC00F094EC13
:102BAE0009F09F0E566F000E576F586B2D0E596F12
:102BBE00000E5A6F82EC07F01F0E766F010E776FC4
:102BCE0070EC00F01F0E0101766F020E776F70EC45
:042BDE0000F01200F1
:102BE200969296949598959A959C959E84928494A3
:102BF200839E839C839A8398E6EC00F0E6EC00F0D7
:102C0200E6EC00F0838A838884826DEC00F0849283
:102C1200E6EC00F084826DEC00F08492E6EC00F0C9
:102C220084826DEC00F08492E6EC00F0839884825A
:102C32006DEC00F08492E6EC00F084826DEC00F022
:102C42008492839A838E84826DEC00F08492E6EC07
:102C520000F0839E838884826DEC00F084928398D6
:102C620084826DEC00F08492E6EC00F084826DECDC
:102C720000F08492838884826DEC00F08492E6EC0A
:102C820000F0839884826DEC00F08492838E838CB2
:102C9200838A838884826DEC00F08492E6EC00F0F3
:062CA20000018C8112000C
:102CA8002E0E766E000E776E7C0E786E010E796EA3
:102CB8001C0E00018D6F000E8E6F7C0E8F6F010E43
:102CC800906F949A94969488C66A400EC76EC68A86
:022CD8001200E8
:102CDA00949082809492828294EC09F0828094EC9F
:102CEA0009F0829094EC09F0828094EC09F08292C7
:102CFA0078C0E1FF79C0E2FFFF0EE66E76C000F011
:102D0A0077C001F020EC00F0828294EC09F0600EAA
:102D1A005E6F000E5F6F09C160F10AC161F1060EB4
:102D2A00626F000E636FDDEC04F0590E5E6F000EE9
:102D3A005F6F0BC160F10CC161F1040E626F000E8E
:102D4A00636FDDEC04F01F0E766F010E776F70EC87
:102D5A0000F01F0E0101766F020E776F70EC00F023
:102D6A00080E0101796F7A6B7B6B2CEC00F00A0E6E
:102D7A000101796FAD0E7A6F190E7B6F2CEC00F0A2
:102D8A000C0E0101796FAD0E7A6F190E7B6F2CEC68
:102D9A0000F00101796B7A6B7B6B2CEC00F0040E6E
:102DAA000101796FAE0E7A6F190E7B6F2CEC00F071
:102DBA001F0E0101766F010E776F70EC00F01F0E87
:102DCA000101766F020E776FC9EC00F00DC10EF1AA
:042DDA0031DE1200D4
:102DDE000101096B1F0E766F010E776FC9EC00F0C3
:102DEE001F0E0101766F020E776F70EC00F0190E58
:102DFE000101766FB1EC00F00050000804E2F7EC30
:102E0E0012F000C009F11F0E0101766F010E776FEF
:102E1E0070EC00F01F0E0101766F020E776F70ECF2
:082E2E0000F009C100F01200E0
:102E36000900F5CFE6FF0006FBE10106F9E1120005
:102E460089EC1AF00D0EC16E070EB46E806AFF0E85
:102E5600926E816AFF0E936E836A956ABFDE010EDB
:102E660001016C6F1DEC01F00C0E01016C6F1DEC85
:102E760001F017DF2E0E766E000E776E7C0E786EE2
:102E8600010E796E1E0E0101096F000E0A6F160EF5
:102E96000B6F000E0C6F010E0D6F1CDF1A0E010179
:102EA600566F000E576F240E586F000E596F280E7E
:102EB6005A6F000E5B6FE2EC06F08EDFFED7FFD78F
:1035120010EE15F0440E006E010E016E440EF66EB2
:0E352200340EF76E000EF86E1BEC17F0120060
:102EC6003C6D65746120687474702D6571756976E2
:102ED6003D27726566726573682720636F6E746539
:102EE6006E743D27323B75726C3D687474703A2F70
:102EF6002F3139322E3136382E312E3630273E3CA0
:102F060048544D4C3E3C484541443E3C7469746CC3
:102F1600653E4D696E692057656220536572766518
:102F260072205B504943202B20454E4332384A36A7
:102F3600305D3C2F7469746C653E3C7363726970D6
:102F460074207372633D2F733E3C2F7363726970F6
:102F5600743E3C2F484541443E3C424F44593E3C1A
:102F660068313E4D696E69205765622053657276F9
:102F76006572205B504943202B20454E4332384A28
:102F860036305D3C2F68313E4573746120652061A3
:102F9600207265717569736963616F204854545076
:102FA600206E2E3A3C7363726970743E646F63756B
:102FB6006D656E742E777269746528524551293C89
:102FC6002F7363726970743E3C62723E3C61206886
:102FD6007265663D2F3E5265636172726567617206
:102FE60020506167696E613C2F613E3C7461626C82
:102FF600652077696474683D2736303070782720FD
:1030060063656C6C73706163696E673D2735272055
:1030160063656C6C70616464696E673D2730273E3A
:103026003C74723E3C74642076616C69676E3D2721
:10303600746F70272077696474683D2731302527BF
:103046003E3C7461626C652077696474683D273123
:103056003030252720626F726465723D2731273E26
:103066003C74723E3C746820636F6C7370616E3D95
:103076002732273E4144433C2F74683E3C2F7472EE
:103086003E3C7472206267636F6C6F723D27736992
:103096006C766572273E3C74643E414E303C2F741C
:1030A600643E3C7464206267636F6C6F723D2723D5
:1030B600363646463636273E3C7363726970743E32
:1030C600646F63756D656E742E77726974652841D9
:1030D6004E30293C2F7363726970743E3C2F7464C2
:1030E6003E3C2F74723E3C7472206267636F6C6F55
:1030F600723D2773696C766572273E3C74643E4167
:103106004E313C2F74643E3C7464206267636F6C7E
:103116006F723D2723363646463636273E3C736366
:10312600726970743E646F63756D656E742E777226
:1031360069746528414E31293C2F73637269707436
:103146003E3C2F74643E3C2F74723E3C2F74616289
:103156006C653E3C2F74643E3C74642077696474ED
:10316600683D27343025272076616C69676E3D27D8
:10317600746F70273E3C7461626C65207769647475
:10318600683D27313030252720626F726465723DB5
:103196002731273E3C74723E3C746820636F6C7323
:1031A60070616E3D2732273E504F5254423C2F7479
:1031B600683E3C2F74723E3C7363726970743E00C5
:1031C600766172207374722C693B7374723D22228D
:1031D6003B666F7228693D303B693C363B692B2B59
:1031E600297B7374722B3D223C7472206267636F75
:1031F6006C6F723D2773696C766572273E3C74640A
:103206003E424F54414F204E2E222B692B223C2FFB
:1032160074643E223B6966282128504F5254422648
:1032260028313C3C692929297B7374722B3D223C49
:103236007464206267636F6C6F723D27233636466F
:10324600463636273E4C49472E223B7D656C7365D4
:10325600207B7374722B3D223C7464206267636F1B
:103266006C6F723D2723464636363636273E444532
:10327600534C2E223B7D7374722B3D223C2F74647B
:103286003E3C2F74723E223B7D646F63756D656EA6
:10329600742E77726974652873747229203B3C2FEB
:1032A6007363726970743E3C2F7461626C653E3C58
:1032B6002F74643E3C74642077696474683D2735D6
:1032C6003025273E3C7461626C65207769647468BA
:1032D6003D27313030252720626F726465723D27A5
:1032E60031273E3C74723E3C746820636F6C737089
:1032F600616E3D2733273E504F5254443C2F74682D
:103306003E3C2F74723E3C7363726970743E766104
:1033160072207374722C693B7374723D22223B6671
:103326006F7228693D303B693C383B692B2B297B02
:103336007374722B3D223C7472206267636F6C6FEC
:10334600723D2773696C766572273E3C74643E4C09
:103356004544204E2E222B692B223C2F74643E229C
:103366003B696628504F5254442628313C3C692913
:10337600297B7374722B3D223C7464206267636FF1
:103386006C6F723D2723363646463636273E4C4905
:10339600472E223B7D656C7365207B7374722B3DD3
:1033A600223C7464206267636F6C6F723D2723460C
:1033B6004636363636273E4445534C2E223B7D73E1
:1033C60074722B3D223C2F74643E3C74643E3C6117
:1033D60020687265663D2F74222B692B223E416C54
:1033E6007465726E61723C2F613E3C2F74643E3C84
:1033F6002F74723E223B7D646F63756D656E742E0D
:1034060077726974652873747229203B3C2F736345
:10341600726970743E3C2F7461626C653E3C2F7419
:10342600643E3C2F74723E3C2F7461626C653E3C78
:0E3436002F424F44593E3C2F48544D4C3E000F
:013444000087
:04344500C0A8013CDE
:04344900FFFFFF0082
:06344D000014A576193FF2
:04345300C0A801010B
:04345700C0A8010107
:01345B000070
:01345C00006F
:02345D0000006D
:06345F00FFFFFFFFFFFF6D
:043465000000000063
:08346900000108000604000048
:01347100005A
:03347200C6310060
:03347500433A00D7
:033478004C3A00CB
:06347B00474554202F001C
:043481000000000047
:03348500C62E0050
:10348800485454502F312E3120323030204F4B0ABF
:0F349800436F6E74656E742D747970653A200001
:0D34A700746578742F706C61696E0A0A00FC
:0C34B400010106001223344500008000D6
:0C34C000746578742F68746D6C0A0A0043
:0B34CC0076617220504F5254443D00C6
:0B34D70076617220504F5254423D00BD
:0934E200766172205245513D0053
:0934EB0076617220414E313D0072
:0934F40076617220414E303D006A
:0634FD00638253633501F8
:0535030037030103067F
:023508003B0086
:02350A003B0084
:02350C003B0082
:02350E003B0080
:023510003B007E
:020000040030CA
:0D000100060E1EFF8181FF0FC00FE00F40B3
:00000001FF
